:100000000C945F0B0C948A0B0C948A0B0C948A0B47
:100010000C948A0B0C948A0B0C948A0B0C948A0B0C
:100020000C948A0B0C948A0B0C94C1800C943A7F2C
:100030000C948A0B0C948A0B0C948A0B0C948A0BEC
:100040000C948A0B0C945B460C948A0B0C948A0BD0
:100050000C948A0B0C948A0B0C949B450C94FD7D9C
:100060000C948A0B0C948A0B0C948A0B0C948A0BBC
:100070000C948A0B0C948A0B0C948A0B0C948A0BAC
:100080000C948A0B0C948A0B0C948A0B0C948A0B9C
:100090000C948A0B0C948A0B084AD73B3BCE016E1A
:1000A00084BCBFFDC12F3D6C74319ABD56833DDACF
:1000B0003D00C77F11BED9E4BB4C3E916BAAAABEDE
:1000C000000000803F05A84CCDB2D44EB93836A907
:1000D000020C50B9918688083CA6AAAA2ABE000044
:1000E00000803F000001001C001D001300FFFF1AEC
:1000F000001E001F001200FFFF1B00200021001146
:1001000000FFFF2400FFFFFFFF0F000E0010002282
:100110000023000D000700060014004E6F6E6C698E
:100120006E2E20706F736974696F6E2073746570C2
:10013000733A00506F736974696F6E2073746570E1
:10014000733A0043757272656E7420706F736974D0
:10015000696F6E3A004C61737420636F6D6D616EF0
:1001600064656420706F736974696F6E3A005365DB
:1001700074204D6963726F7374657070696E670087
:10018000506F7346726F6D53746570733A005265A9
:10019000616C44656C74613A00436F6D7044656CCA
:1001A00074613A004649524D574152455F4E414DA8
:1001B000453A52657065746965725F302E39312039
:1001C0004649524D574152455F55524C3A687474F6
:1001D00070733A2F2F6769746875622E636F6D2F85
:1001E00072657065746965722F52657065746965B2
:1001F000722D4669726D776172652F2050524F548F
:100200004F434F4C5F56455253494F4E3A312E3073
:10021000204D414348494E455F545950453A446545
:100220006C74612045585452554445525F434F55B4
:100230004E543A312052455045544945525F505230
:100240004F544F434F4C3A320044656275673A0051
:100250006F6B000D0A004E414E00494E460045723C
:10026000726F723A00496E666F3A005761726E693A
:100270006E673A00526573656E643A004563686F55
:100280003A006F6B200057726F6E6720636865637A
:100290006B73756D004D697373696E672063686574
:1002A000636B73756D00466F726D61742065727259
:1002B0006F7200446F6E65207072696E74696E674C
:1002C0002066696C6500205800205900205A0020E3
:1002D0004500204600205300205000204900204ABD
:1002E0000020520053442072656164206572726F71
:1002F00072004572726F723A6578706563746564F6
:10030000206C696E65200020676F742000736B6934
:10031000702000424C4B2000737461727400506F67
:1003200077657255700045787465726E616C205205
:10033000657365740042726F776E206F757420521A
:1003400065736574005761746368646F67205265F4
:1003500073657400536F66747761726520526573BC
:10036000657400556E6B6E6F776E20636F6D6D6197
:100370006E643A00467265652052414D3A00583A23
:100380000020583A0020593A00205A3A0020453AB5
:1003900000543A0020423A0020403A002054002005
:1003A00040002042403A0020524157003A002F00BE
:1003B000202F0053706565644D756C7469706C799D
:1003C0003A00466C6F774D756C7469706C793A00C1
:1003D00046616E73706565643A005072696E74654B
:1003E000642066696C616D656E743A005072696E66
:1003F00074696E672074696D653A006D2000206431
:10040000617973200020686F7572732000206D6918
:100410006E00496E76616C696420617263002C0025
:100420002000593A005A3A0045303A0045313A0026
:100430004D53312C4D53322050696E730053657407
:10044000206F7574707574200020746F2000482030
:10045000004C2000785F6D696E3A00785F6D6178BE
:100460003A00795F6D696E3A00795F6D61783A00A4
:100470007A5F6D696E3A007A5F6D61783A004A651D
:10048000726B3A00205A4A65726B3A00206C696EB2
:100490006561722073746570733A002071756164D0
:1004A00072617469632073746570733A002C2073F1
:1004B000706565643D00454550524F4D2075706430
:1004C00061746564006C696E656172204C3A00204D
:1004D000717561647261746963204B3A004D6561A6
:1004E000737572656D656E742072657365742E0028
:1004F0004D6561737572652F64656C746120285356
:100500007465707329203D004D6561737572652FA8
:1005100064656C7461203D004D656173757265643E
:10052000206F726967696E207365742E204D656156
:10053000737572656D656E742072657365742E00D7
:100540004F726967696E206D6561737572656D655F
:100550006E742063616E6E6F7420626520736574C3
:100560002E2020557365206F6E6C79205A2D4361C3
:100570007274657369616E2028737472616967684B
:100580007420757020616E6420646F776E29206D11
:100590006F76656D656E747320616E642074727918
:1005A00020616761696E2E00496E76616C69642016
:1005B00064656C746120636F6F7264696E617465E9
:1005C000202D206D6F76652069676E6F72656400FF
:1005D0004C6576656C696E672063616C633A0054A4
:1005E0006F77657220313A00546F77657220323A26
:1005F00000546F77657220333A00416C7068612057
:100600004128323130293A00416C7068612042281B
:10061000333330293A00416C706861204328393007
:10062000293A0044656C74612052616469757320D5
:10063000412830293A0044656C7461205261646934
:10064000757320422830293A0044656C7461205249
:10065000616469757320432830293A004E6F206D1C
:100660006F766520696E2064656C746120736567C0
:100670006D656E742077697468203E203120736543
:10068000676D656E742E20546869732073686F758A
:100690006C64206E657665722068617070656E208E
:1006A000616E64206D6179206361757365206120DE
:1006B00070726F626C656D2100546172676574457C
:1006C000787472005461726765744265643A0050D0
:1006D0004944204175746F74756E6520737461723E
:1006E000740020626961733A200020643A2000207F
:1006F0006D696E3A2000206D61783A2000204B75BC
:100700003A20002054753A200020436C61737369CD
:10071000632050494400204B703A2000204B693A36
:100720002000204B643A2000504944204175746FEA
:1007300074756E65206661696C6564212054656D11
:10074000706572617475726520746F20686967687E
:1007500000504944204175746F74756E6520666160
:10076000696C6564212074696D656F75740050490A
:1007700044204175746F74756E652066696E697387
:10078000686564202120506C616365207468652071
:100790004B702C204B6920616E64204B6420636F8A
:1007A0006E7374616E747320696E20746865204383
:1007B0006F6E66696775726174696F6E2E68206FFF
:1007C0007220454550524F4D004D54454D503A0012
:1007D000686561746564206265640065787472752B
:1007E00064657220003A2074656D702073656E73C5
:1007F0006F7220646566656374003A20776F726B70
:10080000696E67005072696E74657220736574203A
:10081000696E746F206472792072756E206D6F64DA
:100820006520756E74696C207265737461727421D1
:10083000004175746F6C6576656C696E6720656ED6
:1008400061626C6564004175746F6C6576656C6996
:100850006E672064697361626C6564005A2D707202
:100860006F6265206661696C6564005A2D70726FF5
:100870006265206D61783A005072696E746572200D
:100880006865696768743A007761697400417574D6
:100890006F6C6576656C20616374697665202831BC
:1008A0002F302900436F6E66696775726174696FD6
:1008B0006E2073746F72656420746F2045455052CA
:1008C0004F4D2E00436F6E66696775726174696F74
:1008D0006E206C6F616465642066726F6D204545A3
:1008E00050524F4D2E00436F6E666967757261748A
:1008F000696F6E20726573657420746F206465661D
:1009000061756C74732E0050726F746F636F6C201E
:1009100076657273696F6E206368616E6765642CBB
:1009200020757067726164696E6700457874722E15
:10093000004550523A3020004550523A312000458F
:1009400050523A3220004550523A332000426175ED
:1009500064726174650046696C616D656E742070C7
:1009600072696E746564205B6D5D005072696E74AF
:10097000657220616374697665205B735D004D610B
:10098000782E20696E6163746976652074696D657F
:10099000205B6D732C303D6F66665D0053746F7025
:1009A0002073746570706572206166746572206969
:1009B0006E6163746976697479205B6D732C303D68
:1009C0006F66665D005820686F6D6520706F7320DC
:1009D0005B6D6D5D005920686F6D6520706F7320D1
:1009E0005B6D6D5D005A20686F6D6520706F7320C0
:1009F0005B6D6D5D0058206D6178206C656E67746D
:100A000068205B6D6D5D0059206D6178206C656EAE
:100A1000677468205B6D6D5D005A206D6178206C95
:100A2000656E677468205B6D6D5D00582062616360
:100A30006B6C617368205B6D6D5D00592062616352
:100A40006B6C617368205B6D6D5D005A2062616341
:100A50006B6C617368205B6D6D5D004D61782E205D
:100A60006A65726B205B6D6D2F735D00416363651A
:100A70006C65726174696F6E205B6D6D2F735E3291
:100A80005D0054726176656C20616363656C6572AC
:100A90006174696F6E205B6D6D2F735E325D005304
:100AA0007465707320706572206D6D004D61782ED5
:100AB000206665656472617465205B6D6D2F735D82
:100AC00000486F6D696E6720666565647261746564
:100AD000205B6D6D2F735D00446961676F6E616CA3
:100AE00020726F64206C656E677468205B6D6D5D4D
:100AF00000486F72697A6F6E74616C20726164690C
:100B00007573205B6D6D5D005365676D656E747305
:100B10002F7320666F72207072696E74696E670041
:100B20005365676D656E74732F7320666F722074E2
:100B3000726176656C00546F776572205820656E1F
:100B40006473746F70206F6666736574205B737472
:100B50006570735D00546F776572205920656E640F
:100B600073746F70206F6666736574205B73746551
:100B700070735D00546F776572205A20656E6473E0
:100B8000746F70206F6666736574205B7374657034
:100B9000735D004D61782E20726164697573205B0E
:100BA0006D6D5D00436F72722E20646961676F6EB8
:100BB000616C2041205B6D6D5D00436F72722E2071
:100BC000646961676F6E616C2042205B6D6D5D00D2
:100BD000436F72722E20646961676F6E616C20438F
:100BE000205B6D6D5D004F5053206F7065726174B6
:100BF000696F6E206D6F6465205B303D4F66662CBB
:100C0000313D436C61737369632C323D466173748B
:100C10005D004F5053206D6F76652061667465727C
:100C20002078252072657472616374205B255D00F5
:100C30004F5053206D696E2E2064697374616E632A
:100C40006520666F722066696C2E20726574726111
:100C50006374696F6E205B6D6D5D004F5053207241
:100C6000657472616374696F6E206C656E67746819
:100C7000205B6D6D5D004F5053207265747261632F
:100C800074696F6E206261636B6C617368205B6D69
:100C90006D5D004265642048656174204D616E6140
:100CA000676572205B302D335D00426564205049DA
:100CB00044206472697665206D6178004265642025
:100CC000504944206472697665206D696E00426502
:100CD000642050494420502D6761696E004265646C
:100CE0002050494420492D6761696E0042656420A7
:100CF00050494420442D6761696E0042656420506C
:100D00004944206D61782076616C7565205B302DDB
:100D10003235355D00737465707320706572206DB7
:100D20006D006D61782E2066656564726174652062
:100D30005B6D6D2F735D0073746172742066656501
:100D40006472617465205B6D6D2F735D0061636318
:100D5000656C65726174696F6E205B6D6D2F735E7B
:100D6000325D0068656174206D616E616765722037
:100D70005B302D335D0050494420647269766520F4
:100D80006D617800504944206472697665206D6910
:100D90006E0050494420502D6761696E2F64656173
:100DA000642D74696D650050494420492D6761695F
:100DB0006E0050494420442D6761696E00504944DB
:100DC000206D61782076616C7565205B302D323541
:100DD000355D00582D6F6666736574205B737465AE
:100DE00070735D00592D6F6666736574205B737454
:100DF0006570735D0074656D702E20737461626937
:100E00006C697A652074696D65205B735D0074653B
:100E10006D702E20666F72207265747261637469E2
:100E20006F6E207768656E2068656174696E6720F3
:100E30005B435D0064697374616E636520746F2049
:100E400072657472616374207768656E206865618D
:100E500074696E67205B6D6D5D0065787472756492
:100E6000657220636F6F6C657220737065656420B6
:100E70005B302D3235355D00616476616E636520CF
:100E80004B205B303D6F66665D00616476616E632A
:100E900065204C205B303D6F66665D0007061C15C3
:100EA0001C140000002243141F1FC40E340F880FAF
:100EB000F80F0000000000004810D010DC112C12C8
:100EC000A81200000000A00F5C0060096900100972
:100ED0007900C0088C007008A2002008BD00D0076F
:100EE000DE008007050130073401E0066D01900641
:100EF000B20140060702F0056D02A005E8025005A8
:100F00007B0300052B04B004F8046004EB06C00367
:100F1000350920037F0B8002650DE001B00E400112
:100F20001D0FF000480FC8006C0FA000ED0F60FF10
:100F3000FE0F48FE0400801AD8009808AC01200774
:100F4000800250065403C80528045805FC04000517
:100F5000D005B004A4066804780728044C08E80308
:100F60002009B003F4097003C80A38039C0BF80287
:100F7000700CB002440D6802180E0802EC0E8801D5
:100F8000C00F8800F00F00000400001B540060092F
:100F9000640010097400C008840070089C002008D8
:100FA000B800D007D8008007000130072C01E00608
:100FB00068019006AC0140060002F0056802A00539
:100FC000E0025005740300052404B004F00460043A
:100FD000DC051004E406C003040870033009200394
:100FE000780B8002600DE001A80E4001680FA000A0
:100FF000C00F0000E80F60FF0400700DD800480427
:10100000AC0158038002D80254038002280438023D
:10101000FC040002D005C801A406980178077001FD
:101020004C08480120091801F409F000C80AC8005A
:101030009C0BA000700C7000440D3800180E0000CE
:10104000EC0EA8FFC00FE8FE0000401F450060093D
:101050004F0010095C00C0086B0070087D0020087C
:101060009200D007AC008007CC003007DE00E0061D
:10107000230190065E014006A601F005FF01A005D0
:101080006D025005F30200059603B0045A04600493
:10109000400510044806C0036E077003A80820032B
:1010A000EB09D002230B8002410C3002390DE00124
:1010B000040E9001A20E4001170FF000690FA0006E
:1010C000A20F5000C60F0000DD0FB0FFEB0F60FF56
:1010D0000400681D4C00500B94005809DC005008B7
:1010E0002401A8076C012807B401C006FC017006A2
:1010F000440228068C02F005D402B8051C038805BA
:1011000064035805AC033005F40310053C04E804FF
:101110008404C804CC04A804140590045C0570047D
:10112000A4055804EC053804340620047C060804A1
:10113000C406F0030C07D8035407C8039C07B00388
:10114000E40798032C08800374087003BC08580354
:10115000040948034C09300394091803DC09080307
:10116000240AF0026C0AE002B40AC802FC0AB002C7
:10117000440BA0028C0B8802D40B70021C0C58028A
:10118000640C4002AC0C2802F40C10023C0DF0017F
:10119000840DD801CC0DB801140E98015C0E7001BD
:1011A000A40E4801EC0E1801340FD8007C0F880003
:1011B000C40F0800FC0F0000000000000000000049
:1011C000000000000000000000000000000000001F
:1011D00000000000000000000000000004000016F5
:1011E000D800C006AC0178058002C004540348044E
:1011F0002804E803FC049803D0055003A406180350
:101200007807D8024C08A80220097002F4093802B5
:10121000C80A08029C0BD001700C9001440D5001CB
:10122000180EF800EC0E8800C00F00000400401DEE
:10123000900060091C01B007A801D00634023806EE
:10124000C002C8054C036805D80318056404D80417
:10125000F00498047C056004080630049406000439
:101260002007D003AC07A80338088003C40858033C
:1012700050093003DC090803680AE002F40AB802E6
:10128000800B88020C0C6002980C3002240DF801CF
:10129000B00DC0013C0E8001C80E3001540FB800E3
:1012A000B40F2800E00F00000400081D900058094A
:1012B0001C01B007A801C80634023006C002C005F0
:1012C0004C036805D80318056404D004F00498049E
:1012D0007C05600408063004940600042007D0034F
:1012E000AC07A80338088003C4085803500930032A
:1012F000DC090803680AD802F40AB002800B8802ED
:101300000C0C6002980C3002240DF801B00DC001E5
:101310003C0E8001C80E3001540FB800B40F2800F5
:10132000E00F0000000000000000000000000000CE
:101330000000000024F403D950C38EB1C2A23D9630
:10134000828B3582127AE372816CCB66A861015D73
:10135000C758EB546151204E1E4B5648C145594366
:101360001A41013F093D2F3B7139CD374036C93411
:1013700065331432D430A32F802E6B2D632C672B52
:10138000752A8E29B028DC2710274B268F25D924D3
:101390002B248223E0224322AC211A218D20042019
:1013A000801F001F841E0C1E971D261DB81C4E1C7E
:1013B000E61B821B201BC11A641A0A1AB2195D1996
:1013C0000A19B9186A181C18D11788174017FA1685
:1013D000B51673163116F115B31576153A150015B5
:1013E000C7148F1458142214EE13BA13881356130B
:1013F0002513F612C71299126C1240121512EB1136
:10140000C1119811701148112111FB10D610B110A3
:101410008D106910461024100210E10FC00FA00FAC
:10142000800F610F420F230F060FE80ECB0EAF0E99
:10143000930E770E5C0E410E270E0D0EF30DDA0D96
:10144000C10DA80D900D780D600D490D320D1B0DCD
:10145000050DEF0CD90CC30CAE0C990C850C700C5F
:101460005C0C480C350C210C0E0CFB0BE80BD60B5E
:10147000C40BB20BA00B8E0B7D0B6B0B5A0B4A0BE4
:10148000390B290B180B080BF80AE90AD90ACA0A02
:10149000BB0AAC0A9D0A8E0A800A710A630A550AC1
:1014A000470A390A2C0A1E0A110A040AF709EA092E
:1014B000DD09D009C409B709AB099F099209870959
:1014C0007B096F09630958094C09410936092B0941
:1014D000200915090A090009F508EB08E008D608F3
:1014E000CC08C208B808AE08A4089A089008870873
:1014F0007D0874086B08610858084F0846083D08C5
:1015000034082C0823081A08120809080108F807EB
:10151000F007E807E007D807D007C807C007B807F3
:10152000B007A807A1070000420FA1071605D003C6
:101530000D038B022E02E801B20186016301450111
:101540002C0117010401F4000129022904290829AA
:101550001029202940298029012C022C012602264D
:10156000042608261026202640268026402C802C83
:101570000123022304230823102320234023802354
:10158000012002200420082010202020402080205C
:10159000102C202C012F022F042F082F102F202F6A
:1015A000402F802F7EFE7EFD7EFB7EF77EEF7EDF6E
:1015B0007EBF7E7F00010000E8151200020000FAE5
:1015C0001543000300003D160401030904411618E9
:1015D000020309045B16160303090473160C0001C9
:1015E000C102018036018136120100020200002092
:1015F000C016830400010102030109024300020135
:1016000000C032090400000102020100052400109C
:101610000105240100010424020605240600010737
:1016200005820308004009040100020A00000007C7
:10163000050302400000070584024000000403097E
:101640000418035400650065006E0073007900649F
:1016500000750069006E006F00000016035500530E
:101660000042002000530065007200690061006CB8
:101670000000000C0331003200330034003500005C
:1016800000494E46494E4954594E414ECDCCCC3D71
:101690000AD7233C17B7D13877CC2B329595E6245F
:1016A0001FB14F0A000020410000C84200401C4604
:1016B00020BCBE4CCA1B0E5AAEC59D74F2821124CA
:1016C0001FBECFEFD0E2DEBFCDBF12E0A0E0B1E0A1
:1016D000EEEFF0E101E00BBF02C007900D92AE32D9
:1016E000B107D9F71BBE10E1AEE2B2E001C01D9216
:1016F000AF3BB107E1F716E1CEEBD6E104C022978C
:10170000FE010E943788CC3BD107C9F70E94408177
:101710000C947D880C940000A0E0B0E0E2E9FBE0CE
:101720000C944C88EC015B016115710519F0FB010B
:1017300091838083F9908F2D90E00E943B88892BC4
:10174000C9F7FDE2FF1621F4F990EE24E39405C0F9
:101750002BE2F21609F4F990EE248E0101501040AC
:10176000C80161E876E143E050E00E941B0E892B3E
:1017700001F58E010E5F1F4FC80164E876E145E078
:1017800050E00E941B0E892B19F48E01095F1F4F38
:10179000A114B10419F0F50111830083E0FC04C029
:1017A00070E090E080E814C070E090E080E86FEFB7
:1017B00008C1C80169E876E143E050E00E941B0ED1
:1017C000892B69F4A114B10429F470E090E080EC55
:1017D0006FE7F7C02296F501D183C083F6CF882446
:1017E000992440E050E060E070E0EF2DE053EA30F3
:1017F000A0F5F2E0EF2A8E2D90E09C012870307069
:10180000E2FE06C0232B79F50894811C911C2BC0A5
:10181000232B19F0089481089108DB01CA0112E01A
:10182000880F991FAA1FBB1F1A95D1F7480F591F80
:101830006A1F7B1F440F551F661F771F4E0F511DD8
:10184000611D711D483929E9520729E9620729E11B
:10185000720748F084E0E82A06C0EE3F31F4E3FC6A
:1018600039C098E0E92AF990C0CFE53311F0E531AD
:1018700089F529912D3219F4E0E1EE2A05C02B32C9
:1018800019F081E090E003C0299182E090E0E22F1E
:10189000E053EA3018F0C81BD90B1CC020E030E040
:1018A000FCE020383F075CF4C901880F991F880FBE
:1018B000991F280F391F220F331F2E0F311DE99159
:1018C000E053EA3068F3E4FE03C0309521953F4FC2
:1018D000820E931ECE2CDD24E1FE07C0A114B104BC
:1018E00021F02197F501D183C083CB01BA010E9479
:1018F000CC847B018C01F3E0CF22DD2423E0C216EF
:10190000D10421F417FB109517F9109557016801C0
:10191000C801B70120E030E040E050E00E942C8494
:10192000882309F44AC097FE0DC020EAE22E26E182
:10193000F22E9094819491089394C0E2D0E000E05C
:1019400010E012C098EBE92E96E1F92EF6CFF701E0
:101950002591359145915491C601B5010E94DC86CF
:101960005B016C018C1A9D0A8C169D0684F7D59537
:10197000C7950F5F1F4F0630110529F08CEF9FEFC1
:10198000E80EF91EF1CFC501D6017C018D018C2D29
:10199000880F8D2D881F8F3F51F0C601B50120E0C3
:1019A00030E040E050E00E942C84882331F482E251
:1019B00090E09093BE108093BD107E2D9F2D802FC0
:1019C000612F272F392F482F562FB901CA01CDB7C4
:1019D000DEB7ECE00C9468882F923F925F926F9292
:1019E0007F928F929F92AF92BF92CF92DF92EF92AF
:1019F000FF920F931F93CF93DF938C011B01EA019A
:101A00006115710519F0FB0191838083209749F0DE
:101A1000CE010297839728F020E030E040E050E0CC
:101A2000F6C0F801A1908F018A2D90E00E943B88BA
:101A3000892BB9F7FDE2AF1631F4F801A1908F01BF
:101A40005524539407C0FBE2AF1619F4F801A19096
:101A50008F015524209719F0C031D105C1F4F0E36E
:101A6000AF1679F4F8018081883711F0883549F490
:101A7000F801A1800E5F1F4FF2E05F2AC0E1D0E0C5
:101A800006C0209721F480E3A816E9F427C0C830E7
:101A9000D10531F1C930D10524F4C230D10531F579
:101AA0000CC0CA30D10589F0C031D105F9F4C12C80
:101AB000D12CE12CB8E0FB2E28C0C12CD12CE12C7C
:101AC000A0E4FA2E22C0CAE0D0E0FCECCF2EFCEC61
:101AD000DF2EFCECEF2EFCE0FF2E17C0C8E0D0E0BC
:101AE000C12CD12CE12CE0E1FE2E0FC09E01442739
:101AF00037FD4095542F60E070E080E090E80E9450
:101B0000F887C901DA016C017D0120E030E040E096
:101B100050E060E03E01882477FC8094982C70EDC2
:101B2000B72EBA0CE9E0EB1570F48A2D81548A3196
:101B300018F499ECB92E06C08A2D81568A3150F5D9
:101B400089EAB82EBA0C8B2D90E08C179D0714F5FE
:101B50006F3FE1F0C216D306E406F506B0F0CA0105
:101B6000B901A40193010E94B2879B01AC012B0D26
:101B7000311D411D511D2130F0E03F07F0E04F07BE
:101B8000F0E85F0710F461E001C06FEFF801A19089
:101B90008F01C5CF2114310481F0662331F001504B
:101BA0001040F1011183008308C051FE1AC0025099
:101BB0001040F1011183008314C067FF12C050FC74
:101BC00005C02FEF3FEF4FEF5FE704C020E030E0AC
:101BD00040E050E882E290E09093BE108093BD1008
:101BE00016C050FE08C050954095309521953F4F46
:101BF0004F4F5F4F0CC057FF0AC082E290E09093B6
:101C0000BE108093BD102FEF3FEF4FEF5FE7B9019C
:101C1000CA01DF91CF911F910F91FF90EF90DF905C
:101C2000CF90BF90AF909F908F907F906F905F907C
:101C30003F902F900895FB01DC014150504088F007
:101C40008D9181341CF08B350CF4805E659161348C
:101C50001CF06B350CF4605E861B611171F3990BFF
:101C60000895881BFCCFFC018191861721F0882301
:101C7000D9F7992708953197CF010895A0E0B0E0F2
:101C8000E4E4FEE00C9450887C01EB018A016901D8
:101C900009C0CE012196F6010995F70181937F01D4
:101CA0000150104001151105A1F7CDB7DEB7E8E0EE
:101CB0000C946C88BF92CF92DF92EF92FF920F93B9
:101CC0001F937B018C01FB010995B82EC801019679
:101CD000F7010995C82EC8010296F7010995D82E7B
:101CE000C8010396F7010995982F6B2D7C2D8D2D3A
:101CF0001F910F91FF90EF90DF90CF90BF900895CC
:101D0000DF92EF92FF920F931F937B018C01FB01F7
:101D10000995D82EC8010196F7010995982F8D2DA8
:101D20001F910F91FF90EF90DF900895A0E0B0E039
:101D3000ECE9FEE00C945088EC017B018A0169011A
:101D400009C0CE012196F70161917F01F601099545
:101D50000150104001151105A1F7CDB7DEB7E8E03D
:101D60000C946C88BF92CF92DF92EF92FF920F9308
:101D70001F93D52EC62EB72E79018C01642FF90141
:101D80000995C80101966D2DF7010995C8010296C4
:101D90006C2DF7010995C80103966B2DF701099584
:101DA0001F910F91FF90EF90DF90CF90BF9008951B
:101DB000DF92EF92FF920F931F93D72E7A018C013F
:101DC000FA010995C80101966D2DF70109951F913A
:101DD0000F91FF90EF90DF9008959C01F999FECF4D
:101DE00032BD21BDF89A80B508959C01F999FECFC6
:101DF0001FBA32BD21BD60BD0FB6F894FA9AF99AA8
:101E00000FBE0895089560910001709101018091C5
:101E10000201909103016817790744F4709303015C
:101E20006093020184E793E00E9461220895BC015F
:101E3000893191051CF469E170E005C0893C910588
:101E400014F068EC70E070937B1060937A1082EC71
:101E500093E00E9461220895EF92FF920F931F93E7
:101E6000CF93DF93EC01893191051CF4C9E1D0E0F7
:101E700006C081E0C53FD80714F0C4EFD1E0BE0131
:101E8000882777FD8095982F0E94CE847B018C0156
:101E90006091781070917910882777FD8095982F40
:101EA0000E94CE849B01AC01C801B7010E9433841B
:101EB0009B01AC0160917410709175108091761047
:101EC000909177100E94DC86609374107093751067
:101ED0008093761090937710D0937910C0937810F8
:101EE00083EB93E0BE010E946122DF91CF911F91AD
:101EF0000F91FF90EF9008950E9403479C018091FD
:101F00000001909101012817390724F43093010151
:101F10002093000108950E94604508952F923F92FA
:101F20004F925F926F927F928F929F92AF92BF92E9
:101F3000CF92DF92EF92FF920F931F93DF93CF9395
:101F4000CDB7DEB728970FB6F894DEBF0FBECDBF72
:101F5000A090910FB090920FC090930FD090940FDB
:101F60002090950F3090960F4090970F5090980FBB
:101F70008091990F90919A0FA0919B0FB0919C0F17
:101F800089839A83AB83BC832091B90F3091BA0FB8
:101F90004091BB0F5091BC0F6090BD0F7090BE0F71
:101FA0008090BF0F9090C00F8091C10F9091C20F91
:101FB000A091C30FB091C40F8D839E83AF83B88768
:101FC00080913D0F882359F40F2EF0E0EF2EF0E0C2
:101FD000FF2EF0E80F2FFFE31F2FF02D0AC00F2E6A
:101FE000F0E7EF2EF2E4FF2EF1E20F2FFDE31F2FBB
:101FF000F02DC601B5010E946683A80197010E94D9
:10200000DC86AB01BC018EE793E022E00E94562300
:1020100080913D0F882359F40F2EF0E0EF2EF0E071
:10202000FF2EF0E80F2FFFE31F2FF02D0AC00F2E19
:10203000F0E7EF2EF2E4FF2EF1E20F2FFDE31F2F6A
:10204000F02DC201B101A40193010E946683A80191
:1020500097010E94DC86AB01BC0185E893E022E099
:102060000E94562380913D0F882359F40F2EF0E0F3
:10207000EF2EF0E0FF2EF0E80F2FFFE31F2FF02DE3
:102080000AC00F2EF0E7EF2EF2E4FF2EF1E20F2F41
:10209000FDE31F2FF02D69817A818B819C812D8139
:1020A0003E814F8158850E946683A80197010E9456
:1020B000DC86AB01BC0189E893E022E00E94562354
:1020C00020918D0F30918E0F40918F0F5091900F76
:1020D000A0904A0FB0904B0FC0904C0FD0904D0F76
:1020E00080913D0F882359F40F2EF0E0EF2EF0E0A1
:1020F000FF2EF0E80F2FFFE31F2FF02D0AC00F2E49
:10210000F0E7EF2EF2E4FF2EF1E20F2FFDE31F2F99
:10211000F02DCA01B9010E94CE84A60195010E944A
:10212000DC86A80197010E94DC86AB01BC018DE82A
:1021300093E022E00E94922328960FB6F894DEBF27
:102140000FBECDBFCF91DF911F910F91FF90EF9008
:10215000DF90CF90BF90AF909F908F907F906F90C7
:102160005F904F903F902F9008956F927F928F9243
:102170009F92AF92BF92CF92DF92EF92FF920F9316
:102180001F93DF93CF9300D000D0CDB7DEB760911F
:102190008E1070918F1080919010909191102FE679
:1021A00032E143E85AE30E94DC867B018C01CE01D8
:1021B000019661E870E044E050E02DEE3EE00E94C0
:1021C0003E0EC801B70129813A814B815C810E9492
:1021D0006683AB01BC018AED93E022E00E945623A6
:1021E0008BEF93E00E947D21E091B401F091B50165
:1021F000638574858585968520E030E040E751E46D
:102200000E943A8618160CF47AC06624772443019B
:102210008DE790E06DEE7EE00E945A0E7B018C010E
:10222000E60CF71C081D191DC801B70120E831E5AF
:1022300041E050E00E941A88922E832E742E652E63
:10224000622F732F842F952F20E83EEA4EEF5FEF29
:102250000E94B2875B016C01AE0CBF1CC01ED11E78
:102260008CEE93E0492D582D672D762D0E949E22ED
:10227000C601B50120E13EE040E050E00E941A882E
:10228000122F032FF42EE52E8EEF93E0422F502FC6
:102290006F2D7E2D0E949E22612F702F8F2D9E2DDF
:1022A00020EF31EF4FEF5FEF0E94B287A60EB71E0F
:1022B000C81ED91EC601B5012CE330E040E050E055
:1022C0000E941A8885E094E0BA01A9010E949E222A
:1022D0008DE094E00E948B210F900F900F900F9053
:1022E000CF91DF911F910F91FF90EF90DF90CF90F2
:1022F000BF90AF909F908F907F906F9008950FB692
:10230000F8946091A9107091AA108091AB109091EF
:10231000AC100FBE20918A1030918B1040918C1020
:1023200050918D10621B730B840B950B28EE33E0DC
:1023300040E050E00E94F887C901DA013C014D01FC
:1023400067CF809130028823A1F0109230020E9462
:10235000D23A80910501815080930501882349F488
:1023600080910401833010F40E94673485E08093EB
:102370000501089504C00E942F430E94A11180917D
:102380002D0F8823C1F70895CF93DF9397FD10C0D9
:10239000EC018F3F910521F01CF0CFEFD0E002C09F
:1023A000009731F08091C70F88608093C70F07C0F6
:1023B0008091C70F877F8093C70FC0E0D0E066236E
:1023C00011F00E94BA118091370390E0C817D90725
:1023D00029F080ED93E0BE010E946122C093370393
:1023E000DF91CF910895EF92FF920F931F93DF93A8
:1023F000CF930F92CDB7DEB78DE0898381EBE82EC6
:1024000080E1F82EC7018E010F5F1F4FB80141E038
:1024100050E00E94DB818AE08983C701B80141E076
:1024200050E00E94DB810F90CF91DF911F910F91BF
:10243000FF90EF9008951F93182FE0913C02F091C8
:102440003D0244A555A566A577A581E993E022E064
:102450000E945623E0913C02F0913D0240A951A90F
:1024600062A973A980EB93E020E00E9456230E94AA
:102470009531AB01BC0184E993E022E00E94562330
:1024800040917E0150917F016091800170918101A6
:1024900080EB93E020E00E945623112391F087EA1D
:1024A00093E061E070E00E9477226CEF7FE0809122
:1024B000760190917701681B790B8CEA93E00E947A
:1024C0007722E0917301F0E0EC5CFC4F608182EADE
:1024D00093E070E00E947722E0910601EF3F29F43B
:1024E000E0913C02F0913D02E081F0E0EC5CFC4FB9
:1024F000608188E993E070E00E9477220E94F311E6
:102500001F9108952F923F924F925F926F927F9208
:102510008F929F92AF92BF92CF92DF92EF92FF92F3
:102520000F931F93DF93CF93CDB7DEB7E0970FB62E
:10253000F894DEBF0FBECDBF6C0180910F02282F33
:1025400084FF11C0D6018C9182FF02C00C94FB1C49
:1025500081FF09C016968D919C9117978F36910532
:1025600011F00C94FB1CF6010081118102FFC2C521
:10257000808591858C31910509F448C28D31910592
:10258000A0F48430910520F4029708F03FC030C0D9
:102590008431910509F431C28531910509F432C2C3
:1025A000049711F00C94FB1CDAC18338910509F4EF
:1025B00031C38438910570F48B35910509F46BC2F1
:1025C0008C35910509F46CC28A35910511F00C9493
:1025D000FB1C5DC28538910509F47BC485389105E3
:1025E00008F47EC38638910511F00C94FB1C30C5AD
:1025F000C6010E94106F882311F40C94FB1C80E02C
:1026000061E041E00E9478600C94FB1C8091910F86
:102610009091920FA091930FB091940F89879A8710
:10262000AB87BC878091950F9091960FA091970FE3
:10263000B091980F8D879E87AF87B88B8091990F47
:1026400090919A0FA0919B0FB0919C0F898B9A8BC0
:10265000AB8BBC8BC6010E94106F882311F40C94C5
:10266000FB1CFE01319688E0DF011D928A95E9F797
:10267000F601828180FD05C020E030E040E050E0BE
:1026800007C0D60197962D913D914D915C919A97F7
:1026900080913D0F882351F0CA01B90123E333E350
:1026A0004BEC51E40E94DC869B01AC0129833A8308
:1026B0004B835C83F601828181FD05C020E030E020
:1026C00040E050E007C0D6019B962D913D914D9181
:1026D0005C919E9780913D0F882351F0CA01B9010A
:1026E00023E333E34BEC51E40E94DC869B01AC0115
:1026F0002D833E834F835887FE01759680E1DF016D
:102700001D928A95E9F78091910F9091920FA09177
:10271000930FB091940F8D8B9E8BAF8BB88F809160
:10272000950F9091960FA091970FB091980F898F68
:102730009A8FAB8FBC8F8091990F90919A0FA09137
:102740009B0FB0919C0F8D8F9E8FAF8FB8A3609120
:10275000B50F7091B60F8091B70F9091B80F0E948E
:10276000CE8420914A0F30914B0F40914C0F5091E5
:102770004D0F0E94DC8669A37AA38BA39CA3F6016C
:10278000828182FFC8C087A490A8A1A8B2A8809126
:102790003D0F882351F0C501B40123E333E34BEC33
:1027A00051E40E94DC864B015C016D897E898F8932
:1027B000988D29853A854B855C850E9465836DA738
:1027C0007EA78FA798AB698D7A8D8B8D9C8D2D857B
:1027D0003E854F8558890E9465832B013C01C501C8
:1027E000B40120E030E040E850E40E94DC86A5011E
:1027F00094010E94DC867B018C016DA57EA58FA5CE
:1028000098A99B01AC010E94DC869B01AC01C80128
:10281000B7010E9465837B018C01C301B201A30152
:1028200092010E94DC869B01AC01C801B7010E94A5
:1028300065830E9449877B018C016DA57EA58FA5CC
:1028400098A9A30192010E9447869B01AC0117FB46
:10285000109517F91095C801B7010E9433847B01C8
:102860008C01A80197010E949687882331F082E1AC
:1028700094E00E9490210C94FB1CD60118968D9137
:102880009C911997039721F417FB109517F9109550
:10289000C501B40120E030E040E050E00E942C840B
:1028A000882344F417FB109517F91095B7FAB094E4
:1028B000B7F8B094C301B201A80197010E94DC8669
:1028C0009B01AC016DA57EA58FA598A90E9465838B
:1028D00020E030E040E05FE30E94DC8669837A8399
:1028E0008B839C836DA57EA58FA598A9A8019701D0
:1028F0000E94DC869B01AC01C301B2010E94668389
:1029000020E030E040E05FE30E94DC866D837E8360
:102910008F8398870CC069817A818B819C812D81FE
:102920003E814F8158850E9447864B015C01E0E063
:10293000D60118968D919C911997029709F4E1E0C0
:10294000CE010996BE016B5E7F4FAE014F5F5F4FB8
:1029500095018401EE2E0E94C74E0C94FB1C0E9430
:10296000BA11F6012081318133FD05C060E070E0CD
:1029700080E090E007C0D60193966D917D918D9196
:102980009C91969732FF0BC0F601678D70A181A1D3
:1029900092A128EE33E040E050E00E94B2870FB6EB
:1029A000F894E090A910F090AA100091AB1010914B
:1029B000AC100FBEE60EF71E081F191F04C00E94C0
:1029C0002F430E94A1110FB6F8948091A910909105
:1029D000AA10A091AB10B091AC100FBE2701380126
:1029E000481A590A6A0A7B0AD301C20180509449E5
:1029F000A543B74720F30C94FB1C81E080933D0F67
:102A00000C94FB1C10923D0F0C94FB1CC8018873A6
:102A10009070892B11F080E008C0C80156E09695AF
:102A200087955A95E1F78095817006FF08C010924E
:102A30008D0F10928E0F10928F0F1092900F88238F
:102A400021F041E051E061E01EC0D6012D913C91A2
:102A5000C90188739070892B09F43EC1C90143E014
:102A6000969587954A95E1F7582F5170C90134E042
:102A7000969587953A95E1F7682F617025FD02C01C
:102A800040E001C041E0852F0E94BC7325C1109237
:102A90007F0F0C94FB1C81E080937F0F0C94FB1C38
:102AA000A090B90FB090BA0FE090BB0FF090BC0FA0
:102AB0006090BD0F7090BE0F8090BF0F9090C00FC0
:102AC0002090C10F3090C20F4090C30F5090C40FA0
:102AD00003FF21C0F6012285338544855585809109
:102AE0003D0F882351F0CA01B90123E333E34BECD6
:102AF00051E40E94DC869B01AC01CA01B90120911E
:102B0000910F3091920F4091930F5091940F0E942A
:102B100065835B017C0104FF23C0D6011E962D91C5
:102B20003D914D915C91519780913D0F882351F0DB
:102B3000CA01B90123E333E34BEC51E40E94DC8684
:102B40009B01AC01CA01B9012091950F3091960FFC
:102B50004091970F5091980F0E9465833B014C0163
:102B600005FF21C0F6012289338944895589809166
:102B70003D0F882351F0CA01B90123E333E34BEC45
:102B800051E40E94DC869B01AC01CA01B90120918D
:102B9000990F30919A0F40919B0F50919C0F0E947A
:102BA00065831B012C01B501C7019301A4017101CB
:102BB00082010E94966AD6018C9186FF1CC75696A8
:102BC0002D913D914D915C91599780913D0F8823B6
:102BD00051F0CA01B90123E333E34BEC51E40E9405
:102BE000DC869B01AC01CA01B9012091CF01309173
:102BF000D0014091D1015091D2010E94DC860E9407
:102C00009B8460938D0F70938E0F80938F0F9093A2
:102C1000900FF1C66091910F7091920F8091930F78
:102C20009091940F2091950F3091960F4091970FAE
:102C30005091980FE090990FF0909A0F00919B0F90
:102C400010919C0F609074107090751080907610A9
:102C5000909077100F2EF0E0AF2EF0E0BF2EF0E056
:102C6000CF2EF0E0DF2EF02DA0928010B0928110D8
:102C7000C0928210D0928310A0928410B0928510DE
:102C8000C0928610D092871000D000D0A090E301AF
:102C9000B090E401C090E501D090E601EDB7FEB739
:102CA000A182B282C382D4820F2EF0E8AF2EFFE45D
:102CB000BF2EF3ECCF2EF7E4DF2EF02D0E947472BE
:102CC00060927410709275108092761090927710C6
:102CD0000F900F900F900F9080E00E94B76A8BC604
:102CE00080E00E94D56B80E090E0A0E0B0E08093AF
:102CF000B90F9093BA0FA093BB0FB093BC0F809302
:102D0000BD0F9093BE0FA093BF0FB093C00F8093E1
:102D1000C10F9093C20FA093C30FB093C40F6091E3
:102D2000EB017091EC018091ED019091EE010E9418
:102D30006E6C8090341090903510A0903610B0904A
:102D40003710009138101091391020913A103091BD
:102D50003B104091301050913110609132107091C1
:102D60003310D901C8017801FA2FEB2F0815190586
:102D70002A053B052CF4D501C4017401FA2FEB2F71
:102D8000C701AF2FBE2F84179507A607B70714F406
:102D9000DB01CA012C013D01481859086A087B086B
:102DA000530142012C013D01401A510A620A730A83
:102DB000830172012C013D01441A550A660A770A03
:102DC0008FED95E0B501A4010E948B2288EE95E07D
:102DD000B801A7010E948B2281EF95E0B301A20107
:102DE0000E948B22D6018D919C91119792FF2AC14E
:102DF0005F968D919D910D90BC91A02D181619068E
:102E00001A061B060CF01EC18DE793E0B40145EFD6
:102E10005EE00E94D80E0E94BE23282FF999FECFB3
:102E200088E690E092BD81BDF89A80B5281769F0D8
:102E3000F999FECF1FBA88E690E092BD81BD20BD12
:102E40000FB6F894FA9AF99A0FBE8FE793E0B7019C
:102E500045EF5EE00E94D80E0E94BE23282FF9990C
:102E6000FECF88E690E092BD81BDF89A80B5281724
:102E700069F0F999FECF1FBA88E690E092BD81BD56
:102E800020BD0FB6F894FA9AF99A0FBE81E893E044
:102E9000B20145EF5EE00E94D80E0E94BE23282FAB
:102EA000F999FECF88E690E092BD81BDF89A80B591
:102EB000281709F4C7C0F999FECF1FBA88E690E039
:102EC00092BD81BD20BD0FB6F894FA9AF99A0FBE53
:102ED000B9C00091C50F10E025E0169507952A9519
:102EE000E1F7017080E00E94D56B1092810F109283
:102EF000820F1092830F1092840F1092850F109200
:102F0000860F1092870F1092880F20914C103091ED
:102F10004D1040914E1050914F102093890F3093D7
:102F20008A0F40938B0F50938C0F80E090E0A0E0CD
:102F3000B0E08093B90F9093BA0FA093BB0FB093FA
:102F4000BC0F8093BD0F9093BE0FA093BF0FB093A3
:102F5000C00F8093C10F9093C20FA093C30FB09383
:102F6000C40F10926E0F10926F0F1092700F10928C
:102F7000710F1092720F1092730F1092740F1092C3
:102F8000750F2093760F3093770F4093780F5093FF
:102F9000790F6091EB017091EC018091ED019091BE
:102FA000EE010E946E6C60914C1070914D108091FA
:102FB0004E1090914F100E94CE8420E030E040EC03
:102FC0005FE30E94DC860E949B84AB01BC01809180
:102FD000381090913910A0913A10B0913B106A01CD
:102FE0007B01C81AD90AEA0AFB0A80913010909135
:102FF0003110A0913210B09133104A015B01881A50
:10300000990AAA0ABB0A8091341090913510A091B8
:103010003610B0913710481B590B6A0B7B0B8FEDA4
:1030200095E00E948B2288EE95E0B701A6010E94F0
:103030008B2281EF95E0B501A4010E948B22802FA5
:103040000E94D56B81E061E041E00E94BC73D3C473
:1030500040916E0F50916F0F6091700F7091710FD2
:1030600089E991E00E949E224091720F5091730F66
:103070006091740F7091750F8EE194E00E949E2212
:103080004091760F5091770F6091780F7091790F82
:103090008EE194E00E948B224091241050912510E3
:1030A00060912610709127108EE891E00E949E2278
:1030B000409128105091291060912A1070912B1086
:1030C0008EE194E00E949E2240912C1050912D1090
:1030D00060912E1070912F108EE194E00E948B224F
:1030E00080E00E94B76A80E891E00E947D210E9402
:1030F0008E0F81C401FD02C00C942D21F601868142
:1031000097818E3B910509F4CFC38F3B910508F061
:103110005DC08936910509F4CAC18A36910558F512
:103120008435910509F458C58535910568F48235D3
:10313000910509F44AC58335910508F049C58A9778
:1031400011F00C944021B3C08C35910509F481C570
:103150008D35910530F48535910511F00C944021A1
:1031600057C58336910509F4BBC58836910511F022
:103170000C944021EFC08237910509F417C68337BC
:10318000910590F48B36910509F415C58B369105A0
:1031900008F401C58D36910509F493C18F36910568
:1031A00011F00C944021E8C58437910509F437C427
:1031B0008437910508F4F3C58737910509F4F9C5FB
:1031C0008C38910511F00C9440212DC1F1E08F3223
:1031D0009F0709F4ACC421E08033920780F58D3C51
:1031E000910509F4F5C68E3C9105B8F48A3C910529
:1031F00009F44FC68B3C910530F4893C910511F0E0
:103200000C94402102C68B3C910509F488C68C3C85
:10321000910511F00C94402195C68F3C910509F45D
:10322000DEC68F3C910508F4D6C68C3D910509F4A5
:1032300008C78D3D910511F00C94402112C731E073
:10324000843F930709F456C741E0853F9407D0F4C3
:1032500051E08039950709F416C7A1E081399A0732
:1032600030F48E55914011F00C9440215AC7E1E0A2
:1032700081399E0709F40AC78259914011F00C94D4
:10328000402107C721E0863F920709F447C731E094
:10329000863F930708F434C741E0873F940709F459
:1032A00097C68751924011F00C9440213FC712FD00
:1032B00002C00C94402113FD02C00C944021F60181
:1032C000878D90A1A1A1B2A1B7FF02C00C944021AB
:1032D0008F3F9105A105B10519F014F00C94402120
:1032E000E3A0F4A020E030E0F901EE0FFF1FED5164
:1032F000FF4FE4918E2F90E08E159F0511F40C94F2
:1033000040212F5F3F4F2833310571F7F7FE02C090
:103310000C9440218E2D0E94537CD6015F969C9187
:103320005F9790962C91EE2DF0E0092E0E94C27CC2
:103330008E2D692F722F0E94707E8DE394E0B7016D
:103340000E947722F601678D70A189E494E00E94C3
:10335000612296C70E941934882309F091C70FB6DD
:10336000F8948091A9109091AA10A091AB10B091FF
:10337000AC100FBE80932C0390932D03A0932E03CB
:10338000B0932F0380910F0283FD7AC7D6018D91F0
:103390009C91119793FD0CC092FF0CC05F968D918C
:1033A0009D910D90BC91A02D0097A105B10511F440
:1033B0000E94BA11F6018081918192FF61C7878CCA
:1033C00090A0A1A0B2A09C012070317091FF0CC010
:1033D000068D232B81F010E0D6015A966D917D91D8
:1033E0008D919C915D970FC0E0913C02F0913D0260
:1033F0000081232B11F410E00FC010E0F601628D64
:10340000738D848D958D20E030E040E050E00E9487
:103410003A8618160CF411E0C501B4010E94CE845E
:10342000402F212FB9C40E941934882309F028C7DE
:103430000FB6F8948091A9109091AA10A091AB10AA
:10344000B091AC100FBE80932C0390932D03A093EA
:103450002E03B0932F0380910F0283FD11C7D60175
:103460008D919C91119792FF0BC75F96ED90FD9007
:103470000D911C91929790FD02C0BB2410C0BB24FB
:10348000F601628D738D848D958D20E030E040E0F3
:1034900050E00E943A86181614F4BB24B394C80175
:1034A000B7010E94CE844B2D0E94A934E9C683E067
:1034B000169507958A95E1F7802F81700E941B125F
:1034C000DFC60E941934882309F0DAC60FB6F894D3
:1034D0008091A9109091AA10A091AB10B091AC105E
:1034E0000FBE80932C0390932D03A0932E03B093D3
:1034F0002F0380910F0283FDC3C60E94BA118090F2
:103500003C0290903D02D6012D913C91119731FFE4
:1035100008C05E968C91882321F417E0812E11E07B
:10352000912E32FF23C0F601E78CF0A001A112A179
:10353000D401AC9030FD02C0BB2410C0BB24F60106
:10354000628D738D848D958D20E030E040E050E0F9
:103550000E943A86181614F4BB24B394C801B7012C
:103560000E94CE844A2D2B2D0E947D38D4019C963A
:103570006D917D918D919C919F97D0962D913D91CC
:103580004D915C91D3970E9465837B018C0120E073
:1035900030E040E050E00E943A8618165CF4C80122
:1035A000B70120E030E040E050E40E942C84882302
:1035B00064F466C6C801B70120E030E040E050EC9A
:1035C0000E943A8618160CF45BC63324F40122A537
:1035D00033A580A591A58217930714F4332433945F
:1035E0000FB6F8944090A9105090AA106090AB10BC
:1035F0007090AC100FBE49A65AA66BA67CA64424B8
:103600005524320110E00FB6F8942091A9103091A2
:10361000AA104091AB105091AC100FBE2DA33EA349
:103620004FA358A7DA01C90129A53AA54BA55CA566
:10363000821B930BA40BB50B895E9340A040B04056
:1036400058F080E00E941B128DA19EA1AFA1B8A5E9
:1036500089A79AA7ABA7BCA70E94A11180913C02A1
:1036600090913D028816990609F067C0D40193969F
:10367000ED90FC9094971E141F040CF05EC0112373
:1036800009F05BC0332009F458C091966D917C918C
:103690009297882777FD8095982F0E94CE849B0172
:1036A000AC01F40164A575A586A597A50E943A868C
:1036B00018160CF042C000D000D000D00DB71EB7D5
:1036C0000F5F1F4F662777276E197F09882777FDC1
:1036D0008095982F0E94CE842091CF013091D00107
:1036E0004091D1015091D2010E94DC860E949B84BE
:1036F0005B016C01F40187859089A189B289F80189
:1037000080839183A283B3831482158260E070E08A
:1037100080E090E020E030E040E050E0EE24FF2444
:1037200087010E94DB6911E02DB73EB72A5F3F4F4A
:103730000FB6F8943EBF0FBE2DBF41145104610473
:10374000710409F053C03320C9F0D401D0966D91B3
:103750007D918D919C91D39720E030E040E85FE32C
:103760000E9465839B01AC01F40164A575A586A543
:1037700097A50E943A8687FF1AC045CFD401D096FC
:103780006D917D918D919C91D39720E030E040E840
:103790005FE30E9466839B01AC01F40164A575A5FB
:1037A00086A597A50E942C8418160CF42CCFD40162
:1037B0005F966D917C919097882777FD8095982FE3
:1037C00028EE33E040E050E00E94B2872B013C013C
:1037D0002DA13EA14FA158A5420E531E641E751E79
:1037E000411451046104710409F40DCFD301C201E5
:1037F0002DA13EA14FA158A5821B930BA40BB50B85
:1038000080509449A543B74708F4FDCE112309F42D
:10381000F2C080913C0290913D028816990609F011
:10382000EAC000D000D000D00DB71EB70F5F1F4F09
:10383000D40193966D917C919497882777FD80951C
:10384000982F0E94CE842091CF013091D0014091D9
:10385000D1015091D2010E94DC860E949B845B01C1
:103860006C01F40187859089A189B289F801808370
:103870009183A283B3831482158260E070E080E0BC
:1038800090E020E030E040E050E0EE24FF248701AB
:103890000E94DB692DB73EB72A5F3F4F0FB6F89401
:1038A0003EBF0FBE2DBFA7C023FDEAC40E94BA11C0
:1038B000D6018D919C91119792FF21C05F96ED905A
:1038C000FD900D911C91929790FD02C0BB2410C0F9
:1038D000BB24F601628D738D848D958D20E030E0E0
:1038E00040E050E00E943A86181614F4BB24B394CA
:1038F000C801B7010E94CE844B2D0E94A93460916B
:103900007A0170917B0180917C0190917D012091E1
:103910007E0130917F0140918001509181010E9490
:1039200065837B018C0120E030E040E050E00E94A4
:103930003A8618165CF4C801B70120E030E040E494
:1039400050E40E942C84882364F49AC4C801B7010F
:1039500020E030E040E450EC0E943A8618160CF467
:103960008FC40FB6F894E090A910F090AA100091BF
:10397000AB101091AC100FBE24C00FB6F89480911C
:10398000A9109091AA10A091AB10B091AC100FBEED
:103990008E199F09A00BB10B895E9340A040B040E7
:1039A00070F080E00E941B120FB6F894E090A9100E
:1039B000F090AA100091AB101091AC100FBE0E94B5
:1039C000A11160917A0170917B0180917C019091AD
:1039D0007D0120E030E040E05FE30E9466832091BB
:1039E0007E0130917F0140918001509181010E94C0
:1039F0002C8487FDC2CF0FB6F8948091A9109091C6
:103A0000AA10A091AB10B091AC100FBE80932C0304
:103A100090932D03A0932E03B0932F0331C423FD65
:103A20002FC40FB6F8948090A9109090AA10A0907F
:103A3000AB10B090AC100FBE0FB6F8948091A910E7
:103A40009091AA10A091AB10B091AC100FBE881944
:103A50009909AA09BB09895E9340A040B04070F063
:103A600080E00E941B120FB6F8948090A9109090ED
:103A7000AA10A090AB10B090AC100FBE0E94A11184
:103A8000C090B401D090B501D6011B96ED90FD9089
:103A90000D911C911E97C801B70120E030E040EF66
:103AA00051E40E943A861816A4F4C801B701F60141
:103AB00027813085418552850E9465839F7720E06C
:103AC00030E040E85FE30E943A86181614F4772449
:103AD00002C077247394C090B601D090B701D6018C
:103AE0001B96ED90FD900D911C911E97C801B7019A
:103AF00020E030E040EF51E40E943A8618169CF432
:103B0000C801B701F60127813085418552850E94A1
:103B100065839F7720E030E040E85FE30E943A86CB
:103B200018160CF489CF772009F486CFA9C312FDAB
:103B300003C026E930E005C0D6015F962D913C9187
:103B4000909713FD03C0CC24DD240AC0F601C3A066
:103B5000D4A0F2E0CF16D1041CF0B2E0CB2ED12CD1
:103B6000F601EE0FFF1FEC54FE4FE080F180B9012B
:103B7000882777FD8095982F0E94CE84AB01BC01E9
:103B8000F3E016950795FA95E1F70170C7012C2D22
:103B90000E94103575C312FD03C08FEF90E005C081
:103BA000D6015F968D919C919097612F6695669551
:103BB0006695617007C0612F669566956695617020
:103BC00080E090E00E94C4115BC31092800F58C344
:103BD00081E08093800F54C312FF14C0F601678DFB
:103BE00070A181A192A128EE33E040E050E00E9454
:103BF000B2876093B9017093BA018093BB0190932F
:103C0000BC013EC30E94BA1181E00E94DB7438C33C
:103C100012FF16C0D6015F966D917D918D919C919A
:103C2000929728EE33E040E050E00E94B287609324
:103C3000300370933103809332039093330320C396
:103C4000109230031092310310923203109233031A
:103C500017C303FF0DC0F60182859385A485B58542
:103C60008093C3019093C401A093C501B093C60192
:103C7000D6018C9184FF0EC01E968D919D910D9062
:103C8000BC91A02D8093C7019093C801A093C90156
:103C9000B093CA01F601808185FF0CC082899389A7
:103CA000A489B5898093CB019093CC01A093CD01D9
:103CB000B093CE010E947075D6018C9186FFE0C250
:103CC000E0913C02F0913D0256962D913D914D912F
:103CD0005C91599721873287438754878081C4C27A
:103CE00012FD05C060E177E280E090E00BC0F601D4
:103CF000678D70A181A192A128EE33E040E050E0F1
:103D00000E94B28703FD779A04FD769A05FD479AD3
:103D10000FB6F894E090A910F090AA100091AB10A3
:103D20001091AC100FBEE60EF71E081F191F02C03F
:103D30000E9411750FB6F8948091A9109091AA1065
:103D4000A091AB10B091AC100FBE27013801481AFA
:103D5000590A6A0A7B0AD301C201805A9648A140D7
:103D6000B04030F3D6013C9133FD779834FD76981E
:103D700035FF86C2479884C212FF04C0F601878DC2
:103D800080930F0280910F0283FF7AC260E070E09F
:103D900080E090E040E020E00E947D3871C284EA3B
:103DA00091E00E948B210E94B5106AC20E948E0F82
:103DB00067C20E94BA118BE594E00E947D211E9B90
:103DC00003C081E594E002C08EE494E00E947D216E
:103DD00089E694E00E947D211F9B03C081E594E069
:103DE00002C08EE494E00E947D2187E794E00E9467
:103DF0007D21649B03C081E594E002C08EE494E0E1
:103E00000E947D210E94F3113BC203FF0DC0F60109
:103E100082859385A485B5858093EF019093F00109
:103E2000A093F101B093F201D6018C9184FF0EC0F2
:103E30001E968D919D910D90BC91A02D8093F301C4
:103E40009093F401A093F501B093F601F6018081FF
:103E500085FF0CC082899389A489B5898093F70175
:103E60009093F801A093F901B093FA01D6018C91D7
:103E700086FF52C056968D919D910D90BC91A02DBC
:103E80008093FB019093FC01A093FD01B093FE0190
:103E900043C003FF0DC0F60182859385A485B585D7
:103EA0008093FF0190930002A0930102B09302025D
:103EB000D6018C9184FF0EC01E968D919D910D9020
:103EC000BC91A02D8093030290930402A09305025D
:103ED000B0930602F601808185FF0CC08289938928
:103EE000A489B5898093070290930802A0930902E0
:103EF000B0930A02D6018C9186FF0EC056968D9122
:103F00009D910D90BC91A02D80930B0290930C027B
:103F1000A0930D02B0930E020E947075B1C112FF02
:103F2000AFC1F601278D30A141A152A1121613068F
:103F3000140615061CF020930401A2C181E08093B1
:103F400004019EC180913C0290913D0212FD03C08C
:103F5000FC01B59610C0F601878D90A1A1A1B2A178
:103F6000B7FD8EC10097A105B10519F4ECE2F1E0AF
:103F700002C0E3E7F1E003FF0BC0D6011A962D91D2
:103F80003D914D915C911D97228F338F448F558FBA
:103F9000D6018C9184FF0AC01E962D913D914D91C2
:103FA0005C915197268F378F40A351A3D6018C91F6
:103FB00085FF0AC052962D913D914D915C91559788
:103FC00022A333A344A355A3CF010E94493158C172
:103FD0000E94C32F55C1C6010E94C42C51C103FFCA
:103FE0000DC0F60182859385A485B58580937C10EC
:103FF00090937D10A0937E10B0937F10D6018C918A
:1040000086FF11C0E0913C02F0913D0256962D9141
:104010003D914D915C915997278B308F418F528FF5
:1040200080810E944C3940917C1050917D106091AC
:104030007E1070917F108EE794E022E00E94922320
:104040001FC112FD05C024E630E040E050E005C08D
:10405000F601278D30A141A152A1C9010E942C0F68
:104060000FC112FD05C024E630E040E050E007C07B
:10407000D6015F962D913D914D915C919297C9012A
:104080000E94170FFDC00E94BA11FAC00E94856BF2
:10409000F7C010FF06C0F601C28CD38CE48CF58CFF
:1040A00008C0C0907410D0907510E0907610F09019
:1040B0007710B801E4E076956795EA95E1F76170CD
:1040C000A80175E0569547957A95E1F741709801FA
:1040D00056E0369527955A95E1F7217093E01695AD
:1040E00007959A95E1F7802F8170870176010E94EC
:1040F0004174C6C080E00E94C02584EA98E00BC0ED
:104100000E94D128E0913C02F0913D0280810E9402
:104110004C3984EC98E00E94AA21B2C00E943F2D45
:10412000AFC08EE691E00E948B21AAC040919D0F06
:1041300050919E0F60919F0F7091A00F85E591E0C7
:1041400022E00E9456234091A10F5091A20F60914E
:10415000A30F7091A40F8EE194E022E00E945623F9
:104160004091A50F5091A60F6091A70F7091A80FD5
:104170008EE194E022E00E9492234091910F5091B1
:10418000920F6091930F7091940F83E491E022E07D
:104190000E9456234091950F5091960F6091970F72
:1041A0007091980F8EE194E022E00E945623409196
:1041B000990F50919A0F60919B0F70919C0F8EE117
:1041C00094E022E00E9492234091810F5091820F4F
:1041D0006091830F7091840F83E391E00E949E228F
:1041E0004091850F5091860F6091870F7091880FD5
:1041F0008EE194E00E949E224091890F50918A0F97
:1042000060918B0F70918C0F8EE194E00E948B2255
:1042100040916E0F50916F0F6091700F7091710F00
:104220008BE191E00E949E224091720F5091730F9A
:104230006091740F7091750F8EE194E00E949E2240
:104240004091760F5091770F6091780F7091790FB0
:104250008EE194E00E948B2213C011FF08C00E94DF
:10426000BA11D6015E968C910E944C3909C022FF8A
:1042700007C083E693E00E947D21C6010E94784139
:10428000E0960FB6F894DEBF0FBECDBFCF91DF91A1
:104290001F910F91FF90EF90DF90CF90BF90AF9064
:1042A0009F908F907F906F905F904F903F902F9056
:1042B0000895CF93DF930E942F430E94D73DEC01D6
:1042C000009729F00E948212CE010E9446420E946D
:1042D0001175F1CFDF93CF930F92CDB7DEB78983FE
:1042E00081EB90E1BE016F5F7F4F41E050E00E94A3
:1042F000DB810F90CF91DF910895CF93DF93EC0195
:1043000002C00E946A21FE01849121968823C9F788
:10431000DF91CF9108950E947D210E94F3110895AD
:104320000F931F938C018EE592E00E947D21C801BE
:104330000E948B211F910F9108950F931F938C0161
:1043400085E692E00E947D21C8010E948B211F9189
:104350000F9108950F931F938C0185E692E00E94C0
:104360007D21C8010E947D211F910F9108950F9317
:104370001F938C018BE692E00E947D21C8010E9470
:104380008B211F910F910895CF93DF93EC0103C010
:1043900021960E946A2188818823D1F7DF91CF91ED
:1043A0000895AF92BF92CF92DF92EF92FF920F9358
:1043B0001F93DF93CF93CDB7DEB72B970FB6F8944B
:1043C000DEBF0FBECDBFC62ED92E1B869BE0A92E09
:1043D000B12CAC0EBD1E6C2D9D2D2AE030E040E0CE
:1043E00050E00E94F887D52E7901042F152F80E325
:1043F000C80EC801B7012AE030E040E050E00E945A
:10440000B287C61AF501C2925F01CE2C7F2D802F94
:10441000E114F10401051105F1F6CF010E94C42158
:104420002B960FB6F894DEBF0FBECDBFCF91DF91B4
:104430001F910F91FF90EF90DF90CF90BF90AF90C2
:104440000895EF92FF920F931F937A018B010E94C0
:104450007D21C801B7010E94D1210E94F3111F9153
:104460000F91FF90EF900895EF92FF920F931F939B
:104470007A018B010E947D21C801B7010E94D121E0
:104480001F910F91FF90EF900895EF92FF920F937D
:104490001F937B018C0197FF0BC08DE20E946A2164
:1044A00010950095F094E094E11CF11C011D111D84
:1044B000C801B7010E94D1211F910F91FF90EF9089
:1044C0000895EF92FF920F931F937B010E947D212D
:1044D0000027F7FC0095102FC801B7010E94452264
:1044E0000E94F3111F910F91FF90EF900895EF92AA
:1044F000FF920F931F937B010E947D210027F7FC01
:104500000095102FC801B7010E9445221F910F91FD
:10451000FF90EF900895EF92FF920F931F937A010F
:104520008B010E947D21C801B7010E9445220E9493
:10453000F3111F910F91FF90EF900895EF92FF926A
:104540000F931F937A018B010E947D21C801B7014F
:104550000E9445221F910F91FF90EF9008959F9226
:10456000AF92BF92CF92DF92EF92FF920F931F9381
:10457000CF93DF937B018C01942EA80197010E94B9
:104580009687882319F086E592E020C0C0E0D0E04D
:1045900057016801E894D7F8C601B5012FEF3FEF46
:1045A0004FE75FE70E949687882351F4C601B50163
:1045B0002FEF3FEF4FE75FE70E942C84181614F0AF
:1045C000C1E0D0E0219729F08AE592E00E947D21A8
:1045D00061C0C801B70120E030E040E050E00E9437
:1045E0002C8488233CF48DE20E946A2117FB1095ED
:1045F00017F9109520E030E040E05FE3DD240BC0C8
:10460000CA01B90120E030E040E251E40E94338465
:104610009B01AC01D394D91498F3C801B7010E944F
:1046200066835B016C010E94A0847B018C010E9467
:10463000D121992019F08EE20E946A21C801B701A8
:104640000E94CC849B01AC01C601B5010E94658328
:104650001FC020E030E040E251E40E94DC867B0194
:104660008C010E949B845B016C01CC24B7FCC0943C
:10467000DC2CC601B5010E944522C601B5010E948D
:10468000CE849B01AC01C801B7010E9465839A9456
:104690009920F9F6DF91CF911F910F91FF90EF9044
:1046A000DF90CF90BF90AF909F900895DF92EF92F0
:1046B000FF920F931F937A018B01D22E0E947D21CE
:1046C000C801B7014D2D0E94AF221F910F91FF909D
:1046D000EF90DF900895EF92FF920F931F93CF9387
:1046E000DF93162F072FE42EF22E0E947D21212F1B
:1046F000302FC901EC0110E00AC04991599169912C
:10470000799180E294E02F2D0E9456231F5F1E15A1
:10471000A0F30E94F311DF91CF911F910F91FF90B1
:10472000EF900895DF92EF92FF920F931F937A011B
:104730008B01D22E0E947D21C801B7014D2D0E9410
:10474000AF220E94F3111F910F91FF90EF90DF9025
:1047500008959C01F999FECF32BD21BDF89A80B52C
:1047600008959C01F999FECF1FBA32BD21BD60BDED
:104770000FB6F894FA9AF99A0FBE089520E030E047
:1047800090E02836310539F0F999FECF32BD21BDD0
:10479000F89A80B5980F2F5F3F4F88E02030380798
:1047A00081F7892F0895F999FECF12BC11BCF89AB0
:1047B00080B5813071F48BE490E069EA73E20E9485
:1047C0005A0E6093BD017093BE018093BF01909318
:1047D000C0010895DF93CF9300D000D0CDB7DEB7EE
:1047E000BC01CE01019644E050E029EA33E20E9488
:1047F0003E0E29813A814B815C81B901CA010F903B
:104800000F900F900F90CF91DF910895DF93CF938A
:1048100000D000D0CDB7DEB749835A836B837C8349
:10482000BE016F5F7F4F44E050E021EB33E20E9416
:10483000960E0F900F900F900F90CF91DF910895EB
:10484000EF92FF920F931F9360918E1070918F10D3
:10485000809190109091911020E030E040E050E085
:104860000E942C84882309F49CC00FB6F8946091B0
:10487000A9107091AA108091AB109091AC100FBE4E
:1048800020918A1030918B1040918C1050918D1096
:10489000621B730B840B950B28EE33E040E050E075
:1048A0000E94F88779018A018DE790E069EA73E256
:1048B0000E945A0EE60EF71E081F191F8DE790E0A2
:1048C000B801A70121EB33E20E94B20E81E890E02B
:1048D0000E94EA237B018C0160918E1070918F10F1
:1048E00080919010909191102FE632E143E85AE3C5
:1048F0000E94DC869B01AC01C801B7010E9466835F
:10490000AB01BC0181E890E00E94062480E090E0C9
:10491000A0E0B0E080938E1090938F10A093901041
:10492000B09391100FB6F8948091A9109091AA10AD
:10493000A091AB10B091AC100FBE80938A109093F1
:104940008B10A0938C10B0938D1020E030E040E0ED
:104950002836310539F0F999FECF32BD21BDF89ADC
:1049600080B5480F2F5F3F4F88E02030380781F730
:10497000F999FECF88E690E092BD81BDF89A80B5A6
:10498000481769F0F999FECF1FBA88E690E092BD0A
:1049900081BD40BD0FB6F894FA9AF99A0FBE0E94F5
:1049A000B5101F910F91FF90EF9008950F931F93F3
:1049B00088E293E040E050E060E272E40E94062466
:1049C0008CE293E040E050E060E070E40E94062456
:1049D00088E493E040E050E066E173E40E9406243E
:1049E00080E293E040E050E060E070E00E94062446
:1049F00084E293E040E050E060E070E00E94062432
:104A000080E393E040E050E060EA71E40E94062415
:104A100084E393E040E050E060EA71E40E94062401
:104A200088E393E040E050E060E273E40E940624F3
:104A30008CE393E040E050E060EA71E40E940624D9
:104A400080E493E040E050E068EC72E40E940624C9
:104A500084E493E040E050E060E273E40E940624C6
:104A600081EA93E040E050E060E271E40E940624B5
:104A700081E793E040E050E064E173E40E940624A3
:104A800085E793E040E050E063E872E40E9406248A
:104A900001EB13E289E793E066E970E0A8010E9468
:104AA000D80E8BE793E066E470E0A8010E94D80E70
:104AB0008DE793E060E070E0A8010E94D80E8FE7D8
:104AC00093E060E070E0A8010E94D80E81E893E0D6
:104AD00060E070E0A8010E94D80E85E893E040E015
:104AE00050E062E573E40E94062489E893E040E028
:104AF00050E065EA73E40E9406248DE893E040E00C
:104B000050E064EB72E40E94062481E993E040E007
:104B100050E060E070E00E94062485E993E040E008
:104B200050E060E070E00E94062489E993E040E0F4
:104B300050E060E070E00E9406248DE993E040E0E0
:104B400050E060E772E40E94062485EA93E040E0CA
:104B500050E060E070E00E94062489EA93E040E0C3
:104B600050E060E070E00E9406248DEA93E040E0AF
:104B700050E060E070E00E9406241F910F910895BC
:104B8000FF920F931F93CF93DF93F82E4091BD01B7
:104B90005091BE016091BF017091C0018BE490E023
:104BA00021EB33E20E94B20E409130035091310369
:104BB00060913203709133038FE490E021EB33E294
:104BC0000E94B20E4091B9015091BA016091BB01AF
:104BD0007091BC0183E590E021EB33E20E94B20EBC
:104BE0004091C3015091C4016091C5017091C6010B
:104BF00083E090E00E9406244091C7015091C801D3
:104C00006091C9017091CA0187E090E00E9406247A
:104C10004091CB015091CC016091CD017091CE01BA
:104C20008BE090E00E9406244091D3015091D40182
:104C30006091D5017091D6018FE090E00E9406242A
:104C40004091D7015091D8016091D9017091DA015A
:104C500083E190E00E9406244091DB015091DC0149
:104C60006091DD017091DE0187E190E00E940624F1
:104C70004091E3015091E4016091E5017091E601FA
:104C80008BE190E00E9406244091E7015091E801F9
:104C90006091E9017091EA018FE190E00E940624A1
:104CA0004091EB015091EC016091ED017091EE01AA
:104CB00083E290E00E94062440917C1050917D1088
:104CC00060917E1070917F1087E290E00E94062430
:104CD0004091EF015091F0016091F1017091F2016A
:104CE00083E390E00E9406244091F3015091F40187
:104CF0006091F5017091F60187E390E00E9406242F
:104D00004091F7015091F8016091F9017091FA0119
:104D10008BE390E00E9406244091FF015091000235
:104D200060910102709102028FE390E00E940624DC
:104D300040910302509104026091050270910602B5
:104D400083E490E00E9406244091070250910802FB
:104D50006091090270910A0287E490E00E940624A3
:104D600020918601F999FECF1FBA8AE690E092BDA4
:104D700081BD20BD0FB6F894FA9AF99A0FBE209122
:104D80008B01F999FECF1FBA8BE690E092BD81BDF1
:104D900020BD0FB6F894FA9AF99A0FBE20918C01B3
:104DA000F999FECF1FBA8CE790E092BD81BD20BD7E
:104DB0000FB6F894FA9AF99A0FBE40918D0150916E
:104DC0008E0160918F01709190018CE690E00E94BD
:104DD000062440919101509192016091930170914C
:104DE000940180E790E00E94062440919501509143
:104DF0009601609197017091980184E790E00E947C
:104E0000062420919901F999FECF1FBA88E790E016
:104E100092BD81BD20BD0FB6F894FA9AF99A0FBEE3
:104E20004091601050916110609162107091631018
:104E300085E890E00E940624409168105091691026
:104E400060916A1070916B1089E890E00E940624CE
:104E500040917010509171106091721070917310A8
:104E60008DE890E00E94062440915C1050915D1006
:104E700060915E1070915F1081E990E00E940624BD
:104E800040916410509165106091661070916710A8
:104E900085E990E00E94062440916C1050916D10BD
:104EA00060916E1070916F1089E990E00E94062465
:104EB0008DE990E040E050E060E070E00E94062460
:104EC00081EA90E040E050E060E070E00E9406245B
:104ED00085EA90E040E050E060E070E00E94062447
:104EE0002091C50FF999FECF1FBA80E793E092BDDC
:104EF00081BD822F90E035E0969587953A95E1F750
:104F0000817080BD0FB6F894FA9AF99A0FBE08EC3A
:104F10001FE0C0E0D0E0CE01880F991F880F991FD5
:104F2000F80141915191619171918F01845B9C4F86
:104F30000E9406242196C930D10569F740911001DD
:104F400050911101609112017091130188EC90E071
:104F50000E9406244091160150911701609118019A
:104F6000709119018CEC90E00E94062440911E0182
:104F700050911F01609120017091210180ED90E01E
:104F80000E94062440911A0150911B0160911C015E
:104F900070911D0184ED90E00E94062420913F0154
:104FA000F999FECF1FBA88ED90E092BD81BD20BD7A
:104FB0000FB6F894FA9AF99A0FBE20914401F99924
:104FC000FECF1FBA89ED90E092BD81BD20BD0FB626
:104FD000F894FA9AF99A0FBE20914501F999FECFFB
:104FE0001FBA85EF90E092BD81BD20BD0FB6F89449
:104FF000FA9AF99A0FBE409146015091470160918B
:105000004801709149018AED90E00E940624409188
:105010004A0150914B0160914C0170914D018EED10
:1050200090E00E94062440914E0150914F01609102
:1050300050017091510182EE90E00E94062420916F
:105040005201F999FECF1FBA86EE90E092BD81BD64
:1050500020BD0FB6F894FA9AF99A0FBE4091080154
:105060005091090160910A0170910B0187EE90E067
:1050700021EB33E20E94B20E40910C0150910D01E0
:1050800060910E0170910F018BEE90E021EB33E205
:105090000E94B20E60912601709127018FEE90E080
:1050A00041EB53E20E94D80E6091280170912901D2
:1050B0008AEF90E041EB53E20E94D80E60912A0102
:1050C00070912B018CEF90E041EB53E20E94D80EDF
:1050D00020917101F999FECF1FBA8EEF90E092BD39
:1050E00081BD20BD0FB6F894FA9AF99A0FBE81EFF0
:1050F00090E040E050E060E070E00E94062486EF1F
:1051000090E040E050E060E070E00E940624FF2064
:10511000A1F08DE790E040E050E060E070E021EB2E
:1051200033E20E94B20E81E890E040E050E060E09F
:1051300070E00E9406240E94D624F999FECF1FBA7F
:1051400089E690E092BD81BD87E080BD0FB6F894FE
:10515000FA9AF99A0FBE20E030E040E02836310597
:1051600039F0F999FECF32BD21BDF89A80B5480FCC
:105170002F5F3F4FF8E020303F0781F7F999FECFCE
:105180001FBA88E690E092BD81BD40BD0FB6F8948D
:10519000FA9AF99A0FBEDF91CF911F910F91FF906C
:1051A0000895DF92EF92FF920F931F93CF93DF93B7
:1051B000F999FECF89E690E092BD81BDF89AD0B40E
:1051C0008BE490E069EA73E20E945A0E6093BD019D
:1051D0007093BE018093BF019093C0018FE490E073
:1051E00069EA73E20E945A0E6093300370933103B0
:1051F000809332039093330383E590E069EA73E28E
:105200000E945A0E6093B9017093BA018093BB015A
:105210009093BC0183E090E00E94EA236093C30175
:105220007093C4018093C5019093C60187E090E01C
:105230000E94EA236093C7017093C8018093C9015B
:105240009093CA018BE090E00E94EA236093CB0127
:105250007093CC018093CD019093CE018FE090E0CC
:105260000E94EA236093D3017093D4018093D50107
:105270009093D60183E190E00E94EA236093D701E6
:105280007093D8018093D9019093DA0187E190E07F
:105290000E94EA236093DB017093DC018093DD01BF
:1052A0009093DE018BE190E00E94EA236093E3019A
:1052B0007093E4018093E5019093E6018FE190E023
:1052C0000E94EA236093E7017093E8018093E9016B
:1052D0009093EA0183E290E00E94EA236093EB015D
:1052E0007093EC018093ED019093EE0187E290E0E2
:1052F0000E94EA2360937C1070937D1080937E104F
:1053000090937F1083E390E00E94EA236093EF0183
:105310007093F0018093F1019093F20187E390E0A4
:105320000E94EA236093F3017093F4018093F501E6
:105330009093F6018BE390E00E94EA236093F701DB
:105340007093F8018093F9019093FA018FE390E054
:105350000E94EA236093FF01709300028093010290
:105360009093020283E490E00E94EA236093030298
:1053700070930402809305029093060287E490E004
:105380000E94EA2360930702709308028093090247
:1053900090930A02F999FECF8AE690E092BD81BD12
:1053A000F89A80B580938601F999FECF8BE690E05C
:1053B00092BD81BDF89A80B580938B01F999FECF9B
:1053C0008CE790E092BD81BDF89A80B580938C0106
:1053D0008CE690E00E94EA2360938D0170938E0129
:1053E00080938F019093900180E790E00E94EA23E0
:1053F0006093910170939201809393019093940133
:1054000084E790E00E94EA236093950170939601EF
:105410008093970190939801F999FECF88E790E0E7
:1054200092BD81BDF89A80B58093990185E890E09E
:105430000E94EA2360936010709361108093621061
:105440009093631089E890E00E94EA2360936810CB
:105450007093691080936A1090936B108DE890E0C0
:105460000E94EA2360937010709371108093721001
:105470009093731081E990E00E94EA2360935C109E
:1054800070935D1080935E1090935F1085E990E0BB
:105490000E94EA23609364107093651080936610F5
:1054A0009093671089E990E00E94EA2360936C1062
:1054B00070936D1080936E1090936F1082E08D1535
:1054C00008F050C008EC1FE07801C0E0D0E0CE0149
:1054D000880F991F880F991F845B9C4F0E94EA23B5
:1054E000F70161937193819391937F012196C93064
:1054F000D10569F72091C80F3091C90F4091CA0FAB
:105500005091CB0FCA01B9010E9496878823A1F060
:10551000CCE4D3E0CE01880F991F880F991F0E9419
:10552000EA23F80161937193819391938F012196FE
:10553000F3E0C535DF0771F7F999FECF80E793E017
:1055400092BD81BDF89A80B590E0811191E0892FDC
:105550000E94D56B85E692E068EC7FE049E026E0AA
:105560000E946B2388EC90E00E94EA236093100174
:105570007093110180931201909313018CEC90E0D1
:105580000E94EA236093160170931701809318011B
:105590009093190180ED90E00E94EA2360931E0130
:1055A00070931F01809320019093210184ED90E07E
:1055B0000E94EA2360931A0170931B0180931C01DF
:1055C00090931D01F999FECF88ED90E092BD81BDC9
:1055D000F89A80B580933F01F999FECF89ED90E06C
:1055E00092BD81BDF89A80B580934401F999FECFB0
:1055F00085EF90E092BD81BDF89A80B5809345011A
:105600008AED90E00E94EA2360934601709347017F
:1056100080934801909349018EED90E00E94EA2327
:1056200060934A0170934B0180934C0190934D011C
:1056300082EE90E00E94EA2360934E0170934F0146
:105640008093500190935101F999FECF86EE90E03E
:1056500092BD81BDF89A80B58093520187EE90E0AB
:1056600069EA73E20E945A0E60930801709309017F
:1056700080930A0190930B018BEE90E069EA73E24C
:105680000E945A0E60930C0170930D0180930E01DD
:1056900090930F018FEE90E069EA73E20E94800E12
:1056A00090932701809326018AEF90E069EA73E2E4
:1056B0000E94800E90932901809328018CEF90E046
:1056C00069EA73E20E94800E90932B0180932A0175
:1056D00081E08D1570F4F999FECF8EEF90E092BDC8
:1056E00081BDF89A80B580937101E7E0DE1609F478
:1056F000FFC087E099E00E949D21F2E0FD1508F4CB
:1057000058C088E293E040E050E060E272E40E941A
:1057100006248CE293E040E050E060E070E40E94F8
:10572000062488E493E040E050E066E173E40E94E0
:10573000062480E293E040E050E060E070E00E94E8
:10574000062484E293E040E050E060E070E00E94D4
:10575000062480E393E040E050E060EA71E40E94B8
:10576000062484E393E040E050E060EA71E40E94A4
:10577000062488E393E040E050E060E273E40E9496
:1057800006248CE393E040E050E060EA71E40E947C
:10579000062480E493E040E050E068EC72E40E946C
:1057A000062484E493E040E050E060E273E40E9469
:1057B000062483E08D15C0F181E793E040E050E0DE
:1057C00064E173E40E94062485E793E040E050E042
:1057D00063E872E40E94062489E793E066E970E0DA
:1057E00041EB53E20E94D80E8BE793E066E470E051
:1057F00041EB53E20E94D80E8DE793E060E070E049
:1058000041EB53E20E94D80E8FE793E060E070E036
:1058100041EB53E20E94D80E81E893E060E070E033
:1058200041EB53E20E94D80EE4E0ED15C0F085E8AC
:1058300093E040E050E062E573E40E94062489E8CA
:1058400093E040E050E065EA73E40E9406248DE8AE
:1058500093E040E050E064EB72E40E940624F5E03F
:10586000FD15C0F081E993E040E050E060E070E0B9
:105870000E94062485E993E040E050E060E070E09B
:105880000E94062489E993E040E050E060E070E087
:105890000E94062486E08D1540F18DE993E040E0FA
:1058A00050E060E772E40E94062485EA93E040E05D
:1058B00050E060E070E00E94062489EA93E040E056
:1058C00050E060E070E00E9406248DEA93E040E042
:1058D00050E060E070E00E94062481EA93E040E03E
:1058E00050E060E271E40E94062480E00E94C0253E
:1058F0000E9470750E949031DF91CF911F910F919E
:10590000FF90EF90DF9008950F931F9320E030E019
:1059100010E02836310539F0F999FECF32BD21BDAE
:10592000F89A80B5180F2F5F3F4F88E02030380776
:1059300081F7F999FECF88E690E092BD81BDF89A93
:1059400000B5F999FECF12BC11BCF89A80B5813030
:1059500029F4011719F40E94D12813C0F999FECF38
:105960001FBA12BC11BC81E080BD0FB6F894FA9A40
:10597000F99A0FBE0E94D62480E0011381E00E94B4
:10598000C0251F910F910895FC018081918191FFA5
:1059900042C093FF40C0268D2130D9F0213030F035
:1059A000223011F1233009F036C02BC092FF33C0F2
:1059B00023A134A145A156A1878DF999FECF1FBA25
:1059C00032BD21BD80BD0FB6F894FA9AF99A0FBE88
:1059D00022C092FF20C0678D70A183A194A141EBEA
:1059E00053E20E94D80E17C092FF15C0478D50A1F8
:1059F00061A172A183A194A121EB33E20E94B20EB6
:105A00000AC083FF08C0428553856485758583A1DC
:105A100094A10E94062420E030E040E028363105C1
:105A200039F0F999FECF32BD21BDF89A80B5480F03
:105A30002F5F3F4F88E02030380781F7F999FECF7C
:105A400088E690E092BD81BDF89A80B5481769F06C
:105A5000F999FECF1FBA88E690E092BD81BD40BDA6
:105A60000FB6F894FA9AF99A0FBE0E94D128E091E5
:105A70003C02F0913D0280810E944C390895EF92E2
:105A8000FF920F931F9380E092ECA1E0B0E080932F
:105A9000BD019093BE01A093BF01B093C0011092CD
:105AA000300310923103109232031092330388E1D5
:105AB0009DEDA5EFB5E08093B9019093BA01A09355
:105AC000BB01B093BC0180E090E0A0EAB2E4809317
:105AD000C3019093C401A093C501B093C601809304
