:100000000C945F0B0C948A0B0C948A0B0C948A0B47
:100010000C948A0B0C948A0B0C948A0B0C948A0B0C
:100020000C948A0B0C948A0B0C94BA7D0C94337C40
:100030000C948A0B0C948A0B0C948A0B0C948A0BEC
:100040000C948A0B0C945C430C948A0B0C948A0BD2
:100050000C948A0B0C948A0B0C94B5420C94F67A8F
:100060000C948A0B0C948A0B0C948A0B0C948A0BBC
:100070000C948A0B0C948A0B0C948A0B0C948A0BAC
:100080000C948A0B0C948A0B0C948A0B0C948A0B9C
:100090000C948A0B0C948A0B084AD73B3BCE016E1A
:1000A00084BCBFFDC12F3D6C74319ABD56833DDACF
:1000B0003D00C77F11BED9E4BB4C3E916BAAAABEDE
:1000C000000000803F05A84CCDB2D44EB93836A907
:1000D000020C50B9918688083CA6AAAA2ABE000044
:1000E00000803F000001001C001D001300FFFF1AEC
:1000F000001E001F001200FFFF1B00200021001146
:1001000000FFFF2400FFFFFFFF0F000E0010002282
:100110000023000D000700060014004E6F6E6C698E
:100120006E2E20706F736974696F6E2073746570C2
:10013000733A00506F736974696F6E2073746570E1
:10014000733A0043757272656E7420706F736974D0
:10015000696F6E3A004C61737420636F6D6D616EF0
:1001600064656420706F736974696F6E3A005365DB
:1001700074204D6963726F7374657070696E670087
:10018000506F7346726F6D53746570733A005265A9
:10019000616C44656C74613A00436F6D7044656CCA
:1001A00074613A004649524D574152455F4E414DA8
:1001B000453A52657065746965725F302E39312039
:1001C0004649524D574152455F55524C3A687474F6
:1001D00070733A2F2F6769746875622E636F6D2F85
:1001E00072657065746965722F52657065746965B2
:1001F000722D4669726D776172652F2050524F548F
:100200004F434F4C5F56455253494F4E3A312E3073
:10021000204D414348494E455F545950453A446545
:100220006C74612045585452554445525F434F55B4
:100230004E543A312052455045544945525F505230
:100240004F544F434F4C3A320044656275673A0051
:100250006F6B000D0A004E414E00494E460045723C
:10026000726F723A00496E666F3A005761726E693A
:100270006E673A00526573656E643A004563686F55
:100280003A006F6B200057726F6E6720636865637A
:100290006B73756D004D697373696E672063686574
:1002A000636B73756D00466F726D61742065727259
:1002B0006F7200446F6E65207072696E74696E674C
:1002C0002066696C6500205800205900205A0020E3
:1002D0004500204600205300205000204900204ABD
:1002E0000020520053442072656164206572726F71
:1002F00072004572726F723A6578706563746564F6
:10030000206C696E65200020676F742000736B6934
:10031000702000424C4B2000737461727400506F67
:1003200077657255700045787465726E616C205205
:10033000657365740042726F776E206F757420521A
:1003400065736574005761746368646F67205265F4
:1003500073657400536F66747761726520526573BC
:10036000657400556E6B6E6F776E20636F6D6D6197
:100370006E643A00467265652052414D3A00583A23
:100380000020583A0020593A00205A3A0020453AB5
:1003900000543A0020423A0020403A002054002005
:1003A00040002042403A0020524157003A002F00BE
:1003B000202F0053706565644D756C7469706C799D
:1003C0003A00466C6F774D756C7469706C793A00C1
:1003D00046616E73706565643A005072696E74654B
:1003E000642066696C616D656E743A005072696E66
:1003F00074696E672074696D653A006D2000206431
:10040000617973200020686F7572732000206D6918
:100410006E00496E76616C696420617263002C0025
:100420002000593A005A3A0045303A0045313A0026
:100430004D53312C4D53322050696E730053657407
:10044000206F7574707574200020746F2000482030
:10045000004C2000785F6D696E3A00785F6D6178BE
:100460003A00795F6D696E3A00795F6D61783A00A4
:100470007A5F6D696E3A007A5F6D61783A004A651D
:10048000726B3A00205A4A65726B3A00206C696EB2
:100490006561722073746570733A002071756164D0
:1004A00072617469632073746570733A002C2073F1
:1004B000706565643D00454550524F4D2075706430
:1004C00061746564006C696E656172204C3A00204D
:1004D000717561647261746963204B3A004D6561A6
:1004E000737572656D656E742072657365742E0028
:1004F0004D6561737572652F64656C746120285356
:100500007465707329203D004D6561737572652FA8
:1005100064656C7461203D004D656173757265643E
:10052000206F726967696E207365742E204D656156
:10053000737572656D656E742072657365742E00D7
:100540004F726967696E206D6561737572656D655F
:100550006E742063616E6E6F7420626520736574C3
:100560002E2020557365206F6E6C79205A2D4361C3
:100570007274657369616E2028737472616967684B
:100580007420757020616E6420646F776E29206D11
:100590006F76656D656E747320616E642074727918
:1005A00020616761696E2E00496E76616C69642016
:1005B00064656C746120636F6F7264696E617465E9
:1005C000202D206D6F76652069676E6F72656400FF
:1005D0004C6576656C696E672063616C633A0054A4
:1005E0006F77657220313A00546F77657220323A26
:1005F00000546F77657220333A00416C7068612057
:100600004128323130293A00416C7068612042281B
:10061000333330293A00416C706861204328393007
:10062000293A0044656C74612052616469757320D5
:10063000412830293A0044656C7461205261646934
:10064000757320422830293A0044656C7461205249
:10065000616469757320432830293A004E6F206D1C
:100660006F766520696E2064656C746120736567C0
:100670006D656E742077697468203E203120736543
:10068000676D656E742E20546869732073686F758A
:100690006C64206E657665722068617070656E208E
:1006A000616E64206D6179206361757365206120DE
:1006B00070726F626C656D2100546172676574457C
:1006C000787472005461726765744265643A0050D0
:1006D0004944204175746F74756E6520737461723E
:1006E000740020626961733A200020643A2000207F
:1006F0006D696E3A2000206D61783A2000204B75BC
:100700003A20002054753A200020436C61737369CD
:10071000632050494400204B703A2000204B693A36
:100720002000204B643A2000504944204175746FEA
:1007300074756E65206661696C6564212054656D11
:10074000706572617475726520746F20686967687E
:1007500000504944204175746F74756E6520666160
:10076000696C6564212074696D656F75740050490A
:1007700044204175746F74756E652066696E697387
:10078000686564202120506C616365207468652071
:100790004B702C204B6920616E64204B6420636F8A
:1007A0006E7374616E747320696E20746865204383
:1007B0006F6E66696775726174696F6E2E68206FFF
:1007C0007220454550524F4D004D54454D503A0012
:1007D000686561746564206265640065787472752B
:1007E00064657220003A2074656D702073656E73C5
:1007F0006F7220646566656374003A20776F726B70
:10080000696E67005072696E74657220736574203A
:10081000696E746F206472792072756E206D6F64DA
:100820006520756E74696C207265737461727421D1
:10083000004175746F6C6576656C696E6720656ED6
:1008400061626C6564004175746F6C6576656C6996
:100850006E672064697361626C6564005A2D707202
:100860006F6265206661696C6564005A2D70726FF5
:100870006265206D61783A005072696E746572200D
:100880006865696768743A007761697400417574D6
:100890006F6C6576656C20616374697665202831BC
:1008A0002F302900436F6E66696775726174696FD6
:1008B0006E2073746F72656420746F2045455052CA
:1008C0004F4D2E00436F6E66696775726174696F74
:1008D0006E206C6F616465642066726F6D204545A3
:1008E00050524F4D2E00436F6E666967757261748A
:1008F000696F6E20726573657420746F206465661D
:1009000061756C74732E0050726F746F636F6C201E
:1009100076657273696F6E206368616E6765642CBB
:1009200020757067726164696E6700457874722E15
:10093000004550523A3020004550523A312000458F
:1009400050523A3220004550523A332000426175ED
:1009500064726174650046696C616D656E742070C7
:1009600072696E746564205B6D5D005072696E74AF
:10097000657220616374697665205B735D004D610B
:10098000782E20696E6163746976652074696D657F
:10099000205B6D732C303D6F66665D0053746F7025
:1009A0002073746570706572206166746572206969
:1009B0006E6163746976697479205B6D732C303D68
:1009C0006F66665D005820686F6D6520706F7320DC
:1009D0005B6D6D5D005920686F6D6520706F7320D1
:1009E0005B6D6D5D005A20686F6D6520706F7320C0
:1009F0005B6D6D5D0058206D6178206C656E67746D
:100A000068205B6D6D5D0059206D6178206C656EAE
:100A1000677468205B6D6D5D005A206D6178206C95
:100A2000656E677468205B6D6D5D00582062616360
:100A30006B6C617368205B6D6D5D00592062616352
:100A40006B6C617368205B6D6D5D005A2062616341
:100A50006B6C617368205B6D6D5D004D61782E205D
:100A60006A65726B205B6D6D2F735D00416363651A
:100A70006C65726174696F6E205B6D6D2F735E3291
:100A80005D0054726176656C20616363656C6572AC
:100A90006174696F6E205B6D6D2F735E325D005304
:100AA0007465707320706572206D6D004D61782ED5
:100AB000206665656472617465205B6D6D2F735D82
:100AC00000486F6D696E6720666565647261746564
:100AD000205B6D6D2F735D00446961676F6E616CA3
:100AE00020726F64206C656E677468205B6D6D5D4D
:100AF00000486F72697A6F6E74616C20726164690C
:100B00007573205B6D6D5D005365676D656E747305
:100B10002F7320666F72207072696E74696E670041
:100B20005365676D656E74732F7320666F722074E2
:100B3000726176656C00546F776572205820656E1F
:100B40006473746F70206F6666736574205B737472
:100B50006570735D00546F776572205920656E640F
:100B600073746F70206F6666736574205B73746551
:100B700070735D00546F776572205A20656E6473E0
:100B8000746F70206F6666736574205B7374657034
:100B9000735D004D61782E20726164697573205B0E
:100BA0006D6D5D00436F72722E20646961676F6EB8
:100BB000616C2041205B6D6D5D00436F72722E2071
:100BC000646961676F6E616C2042205B6D6D5D00D2
:100BD000436F72722E20646961676F6E616C20438F
:100BE000205B6D6D5D004F5053206F7065726174B6
:100BF000696F6E206D6F6465205B303D4F66662CBB
:100C0000313D436C61737369632C323D466173748B
:100C10005D004F5053206D6F76652061667465727C
:100C20002078252072657472616374205B255D00F5
:100C30004F5053206D696E2E2064697374616E632A
:100C40006520666F722066696C2E20726574726111
:100C50006374696F6E205B6D6D5D004F5053207241
:100C6000657472616374696F6E206C656E67746819
:100C7000205B6D6D5D004F5053207265747261632F
:100C800074696F6E206261636B6C617368205B6D69
:100C90006D5D004265642048656174204D616E6140
:100CA000676572205B302D335D00426564205049DA
:100CB00044206472697665206D6178004265642025
:100CC000504944206472697665206D696E00426502
:100CD000642050494420502D6761696E004265646C
:100CE0002050494420492D6761696E0042656420A7
:100CF00050494420442D6761696E0042656420506C
:100D00004944206D61782076616C7565205B302DDB
:100D10003235355D00737465707320706572206DB7
:100D20006D006D61782E2066656564726174652062
:100D30005B6D6D2F735D0073746172742066656501
:100D40006472617465205B6D6D2F735D0061636318
:100D5000656C65726174696F6E205B6D6D2F735E7B
:100D6000325D0068656174206D616E616765722037
:100D70005B302D335D0050494420647269766520F4
:100D80006D617800504944206472697665206D6910
:100D90006E0050494420502D6761696E2F64656173
:100DA000642D74696D650050494420492D6761695F
:100DB0006E0050494420442D6761696E00504944DB
:100DC000206D61782076616C7565205B302D323541
:100DD000355D00582D6F6666736574205B737465AE
:100DE00070735D00592D6F6666736574205B737454
:100DF0006570735D0074656D702E20737461626937
:100E00006C697A652074696D65205B735D0074653B
:100E10006D702E20666F72207265747261637469E2
:100E20006F6E207768656E2068656174696E6720F3
:100E30005B435D0064697374616E636520746F2049
:100E400072657472616374207768656E206865618D
:100E500074696E67205B6D6D5D0065787472756492
:100E6000657220636F6F6C657220737065656420B6
:100E70005B302D3235355D00616476616E636520CF
:100E80004B205B303D6F66665D00616476616E632A
:100E900065204C205B303D6F66665D00071C151CAD
:100EA000140000002243141F1FC30E330F870FF7D7
:100EB0000F0000000000004710CF10DB112B12A71D
:100EC0001200000000A00F5C0060096900100979A1
:100ED00000C0088C007008A2002008BD00D007DE0A
:100EE000008007050130073401E0066D019006B26D
:100EF0000140060702F0056D02A005E80250057BDF
:100F00000300052B04B004F8046004EB06C00335AD
:100F10000920037F0B8002650DE001B00E40011D2A
:100F20000FF000480FC8006C0FA000ED0F60FFFE2F
:100F30000F48FE0400801AD8009808AC01200780F2
:100F40000250065403C80528045805FC040005D0C7
:100F500005B004A4066804780728044C08E80320B8
:100F600009B003F4097003C80A38039C0BF8027037
:100F70000CB002440D6802180E0802EC0E8801C085
:100F80000F8800F00F00000400001B54006009648B
:100F90000010097400C008840070089C002008B884
:100FA00000D007D8008007000130072C01E0066858
:100FB000019006AC0140060002F0056802A005E0C1
:100FC000025005740300052404B004F0046004DC3E
:100FD000051004E406C003040870033009200378F8
:100FE0000B8002600DE001A80E4001680FA000C058
:100FF0000F0000E80F60FF0400700DD8004804AC3B
:101000000158038002D8025403800228043802FCED
:10101000040002D005C801A4069801780770014CAD
:1010200008480120091801F409F000C80AC8009C0A
:101030000BA000700C7000440D3800180E0000EC7E
:101040000EA8FFC00FE8FE0000401F450060094FDA
:101050000010095C00C0086B0070087D0020089239
:1010600000D007AC008007CC003007DE00E006238C
:101070000190065E014006A601F005FF01A0056D86
:10108000025005F30200059603B0045A04600440C0
:101090000510044806C0036E077003A8082003EB80
:1010A00009D002230B8002410C3002390DE001040B
:1010B0000E9001A20E4001170FF000690FA000A2D0
:1010C0000F5000C60F0000DD0FB0FFEB0F60FF04F4
:1010D00000681D4C00500B94005809DC0050082497
:1010E00001A8076C012807B401C006FC0170064482
:1010F0000228068C02F005D402B8051C038805649A
:10110000035805AC033005F40310053C04E80484DF
:1011100004C804CC04A804140590045C057004A45D
:10112000055804EC053804340620047C060804C481
:1011300006F0030C07D8035407C8039C07B003E468
:101140000798032C08800374087003BC0858030434
:101150000948034C09300394091803DC09080324E7
:101160000AF0026C0AE002B40AC802FC0AB00244A7
:101170000BA0028C0B8802D40B70021C0C5802646A
:101180000C4002AC0C2802F40C10023C0DF001845F
:101190000DD801CC0DB801140E98015C0E7001A49D
:1011A0000E4801EC0E1801340FD8007C0F8800C4E3
:1011B0000F0800FC0F00000000000000000000000D
:1011C000000000000000000000000000000000001F
:1011D000000000000000000000000004000016D81D
:1011E00000C006AC0178058002C0045403480428FE
:1011F00004E803FC049803D0055003A40618037800
:1012000007D8024C08A80220097002F4093802C865
:101210000A08029C0BD001700C9001440D5001187B
:101220000EF800EC0E8800C00F00000400401D9076
:101230000060091C01B007A801D00634023806C0BE
:1012400002C8054C036805D80318056404D804F0E7
:101250000498047C05600408063004940600042009
:1012600007D003AC07A80338088003C4085803500C
:10127000093003DC090803680AE002F40AB80280B6
:101280000B88020C0C6002980C3002240DF801B09F
:101290000DC0013C0E8001C80E3001540FB800B4DF
:1012A0000F2800E00F00000400081D900058091CE2
:1012B00001B007A801C80634023006C002C0054CC0
:1012C000036805D80318056404D004F00498047C6E
:1012D00005600408063004940600042007D003AC1F
:1012E00007A80338088003C408580350093003DCFA
:1012F000090803680AD802F40AB002800B88020CBD
:101300000C6002980C3002240DF801B00DC0013CB5
:101310000E8001C80E3001540FB800B40F2800E051
:101320000F000000000000000000000000000000AE
:1013300000000024F403D950C38EB1C2A23D9682AE
:101340008B3582127AE372816CCB66A861015DC72E
:1013500058EB546151204E1E4B5648C14559431A13
:1013600041013F093D2F3B7139CD374036C93465C6
:10137000331432D430A32F802E6B2D632C672B7542
:101380002A8E29B028DC2710274B268F25D9242B1D
:10139000248223E0224322AC211A218D20042080C4
:1013A0001F001F841E0C1E971D261DB81C4E1CE618
:1013B0001B821B201BC11A641A0A1AB2195D190A72
:1013C00019B9186A181C18D11788174017FA16B5DA
:1013D0001673163116F115B31576153A150015C7A3
:1013E000148F1458142214EE13BA138813561325AD
:1013F00013F612C71299126C1240121512EB11C19A
:10140000119811701148112111FB10D610B1108DD7
:10141000106910461024100210E10FC00FA00F80B9
:101420000F610F420F230F060FE80ECB0EAF0E9386
:101430000E770E5C0E410E270E0D0EF30DDA0DC168
:101440000DA80D900D780D600D490D320D1B0D0589
:101450000DEF0CD90CC30CAE0C990C850C700C5C08
:101460000C480C350C210C0E0CFB0BE80BD60BC4F6
:101470000BB20BA00B8E0B7D0B6B0B5A0B4A0B396F
:101480000B290B180B080BF80AE90AD90ACA0ABB80
:101490000AAC0A9D0A8E0A800A710A630A550A4735
:1014A0000A390A2C0A1E0A110A040AF709EA09DD98
:1014B00009D009C409B709AB099F09920987097BBB
:1014C000096F09630958094C09410936092B09209C
:1014D0000915090A090009F508EB08E008D608CC47
:1014E00008C208B808AE08A4089A08900887087DC2
:1014F0000874086B08610858084F0846083D08340E
:10150000082C0823081A08120809080108F807F02F
:1015100007E807E007D807D007C807C007B807B033
:1015200007A807A1070000420FA1071605D0030D69
:10153000038B022E02E801B2018601630145012CF2
:101540000117010401F400012902290429082910C6
:1015500029202940298029012C022C012602260459
:101560002608261026202640268026402C802C0186
:101570002302230423082310232023402380230154
:10158000200220042008201020202040208020104D
:101590002C202C012F022F042F082F102F202F403A
:1015A0002F802F7EFE7EFD7EFB7EF77EEF7EDF7E30
:1015B000BF7E7F00010000E7151200020000F91550
:1015C00043000300003C16040103090440161802FE
:1015D0000309045A16160303090472160C0001C10C
:1015E000020180360181361201000202000020C093
:1015F00016830400010102030109024300020100F5
:10160000C03209040000010202010005240010019B
:101610000524010001042402060524060001070533
:10162000820308004009040100020A0000000705C7
:10163000030240000007058402400000040309047F
:1016400018035400650065006E00730079006400A3
:10165000750069006E006F0000001603550053000E
:1016600042002000530065007200690061006C00B8
:1016700000000C033100320033003400350000005C
:10168000494E46494E4954594E414ECDCCCC3D0A67
:10169000D7233C17B7D13877CC2B329595E6241F4A
:1016A000B14F0A000020410000C84200401C462003
:1016B000BCBE4CCA1B0E5AAEC59D7400EB7F1124F4
:1016C0001FBECFEFD0E2DEBFCDBF11E0A0E0B1E0A2
:1016D000E0EFFAE001E00BBF02C007900D92AC3ED4
:1016E000B107D9F71BBE10E1ACEEB1E001C01D920D
:1016F000A837B107E1F716E1CEEBD6E104C0229797
:10170000FE010E943085CC3BD107C9F70E94397E8B
:101710000C9476850C940000A0E0B0E0E2E9FBE0D8
:101720000C944585EC015B016115710519F0FB0115
:1017300091838083F9908F2D90E00E943485892BCE
:10174000C9F7FDE2FF1621F4F990EE24E39405C0F9
:101750002BE2F21609F4F990EE248E0101501040AC
:10176000C80160E876E143E050E00E941B0E892B3F
:1017700001F58E010E5F1F4FC80163E876E145E079
:1017800050E00E941B0E892B19F48E01095F1F4F38
:10179000A114B10419F0F50111830083E0FC04C029
:1017A00070E090E080E814C070E090E080E86FEFB7
:1017B00008C1C80168E876E143E050E00E941B0ED2
:1017C000892B69F4A114B10429F470E090E080EC55
:1017D0006FE7F7C02296F501D183C083F6CF882446
:1017E000992440E050E060E070E0EF2DE053EA30F3
:1017F000A0F5F2E0EF2A8E2D90E09C012870307069
:10180000E2FE06C0232B79F50894811C911C2BC0A5
:10181000232B19F0089481089108DB01CA0112E01A
:10182000880F991FAA1FBB1F1A95D1F7480F591F80
:101830006A1F7B1F440F551F661F771F4E0F511DD8
:10184000611D711D483929E9520729E9620729E11B
:10185000720748F084E0E82A06C0EE3F31F4E3FC6A
:1018600039C098E0E92AF990C0CFE53311F0E531AD
:1018700089F529912D3219F4E0E1EE2A05C02B32C9
:1018800019F081E090E003C0299182E090E0E22F1E
:10189000E053EA3018F0C81BD90B1CC020E030E040
:1018A000FCE020383F075CF4C901880F991F880FBE
:1018B000991F280F391F220F331F2E0F311DE99159
:1018C000E053EA3068F3E4FE03C0309521953F4FC2
:1018D000820E931ECE2CDD24E1FE07C0A114B104BC
:1018E00021F02197F501D183C083CB01BA010E9479
:1018F000C5817B018C01F3E0CF22DD2423E0C216F9
:10190000D10421F417FB109517F9109557016801C0
:10191000C801B70120E030E040E050E00E9425819E
:10192000882309F44AC097FE0DC02FE9E22E26E174
:10193000F22E9094819491089394C0E2D0E000E05C
:1019400010E012C097EBE92E96E1F92EF6CFF701E1
:101950002591359145915491C601B5010E94D583D9
:101960005B016C018C1A9D0A8C169D0684F7D59537
:10197000C7950F5F1F4F0630110529F08CEF9FEFC1
:10198000E80EF91EF1CFC501D6017C018D018C2D29
:10199000880F8D2D881F8F3F51F0C601B50120E0C3
:1019A00030E040E050E00E942581882331F482E25B
:1019B00090E090937710809376107E2D9F2D802F4E
:1019C000612F272F392F482F562FB901CA01CDB7C4
:1019D000DEB7ECE00C9461852F923F925F926F929C
:1019E0007F928F929F92AF92BF92CF92DF92EF92AF
:1019F000FF920F931F93CF93DF938C011B01EA019A
:101A00006115710519F0FB0191838083209749F0DE
:101A1000CE010297839728F020E030E040E050E0CC
:101A2000F6C0F801A1908F018A2D90E00E943485C4
:101A3000892BB9F7FDE2AF1631F4F801A1908F01BF
:101A40005524539407C0FBE2AF1619F4F801A19096
:101A50008F015524209719F0C031D105C1F4F0E36E
:101A6000AF1679F4F8018081883711F0883549F490
:101A7000F801A1800E5F1F4FF2E05F2AC0E1D0E0C5
:101A800006C0209721F480E3A816E9F427C0C830E7
:101A9000D10531F1C930D10524F4C230D10531F579
:101AA0000CC0CA30D10589F0C031D105F9F4C12C80
:101AB000D12CE12CB8E0FB2E28C0C12CD12CE12C7C
:101AC000A0E4FA2E22C0CAE0D0E0FCECCF2EFCEC61
:101AD000DF2EFCECEF2EFCE0FF2E17C0C8E0D0E0BC
:101AE000C12CD12CE12CE0E1FE2E0FC09E01442739
:101AF00037FD4095542F60E070E080E090E80E9450
:101B0000F184C901DA016C017D0120E030E040E0A0
:101B100050E060E03E01882477FC8094982C70EDC2
:101B2000B72EBA0CE9E0EB1570F48A2D81548A3196
:101B300018F499ECB92E06C08A2D81568A3150F5D9
:101B400089EAB82EBA0C8B2D90E08C179D0714F5FE
:101B50006F3FE1F0C216D306E406F506B0F0CA0105
:101B6000B901A40193010E94AB849B01AC012B0D30
:101B7000311D411D511D2130F0E03F07F0E04F07BE
:101B8000F0E85F0710F461E001C06FEFF801A19089
:101B90008F01C5CF2114310481F0662331F001504B
:101BA0001040F1011183008308C051FE1AC0025099
:101BB0001040F1011183008314C067FF12C050FC74
:101BC00005C02FEF3FEF4FEF5FE704C020E030E0AC
:101BD00040E050E882E290E0909377108093761096
:101BE00016C050FE08C050954095309521953F4F46
:101BF0004F4F5F4F0CC057FF0AC082E290E09093B6
:101C00007710809376102FEF3FEF4FEF5FE7B9012A
:101C1000CA01DF91CF911F910F91FF90EF90DF905C
:101C2000CF90BF90AF909F908F907F906F905F907C
:101C30003F902F900895FB01DC014150504088F007
:101C40008D9181341CF08B350CF4805E659161348C
:101C50001CF06B350CF4605E861B611171F3990BFF
:101C60000895881BFCCFFC018191861721F0882301
:101C7000D9F7992708953197CF010895A0E0B0E0F2
:101C8000E4E4FEE00C9449857C01EB018A016901E2
:101C900009C0CE012196F6010995F70181937F01D4
:101CA0000150104001151105A1F7CDB7DEB7E8E0EE
:101CB0000C946585BF92CF92DF92EF92FF920F93C3
:101CC0001F937B018C01FB010995B82EC801019679
:101CD000F7010995C82EC8010296F7010995D82E7B
:101CE000C8010396F7010995982F6B2D7C2D8D2D3A
:101CF0001F910F91FF90EF90DF90CF90BF900895CC
:101D0000DF92EF92FF920F931F937B018C01FB01F7
:101D10000995D82EC8010196F7010995982F8D2DA8
:101D20001F910F91FF90EF90DF900895A0E0B0E039
:101D3000ECE9FEE00C944985EC017B018A01690124
:101D400009C0CE012196F70161917F01F601099545
:101D50000150104001151105A1F7CDB7DEB7E8E03D
:101D60000C946585BF92CF92DF92EF92FF920F9312
:101D70001F93D52EC62EB72E79018C01642FF90141
:101D80000995C80101966D2DF7010995C8010296C4
:101D90006C2DF7010995C80103966B2DF701099584
:101DA0001F910F91FF90EF90DF90CF90BF9008951B
:101DB000DF92EF92FF920F931F93D72E7A018C013F
:101DC000FA010995C80101966D2DF70109951F913A
:101DD0000F91FF90EF90DF9008959C01F999FECF4D
:101DE00032BD21BDF89A80B508959C01F999FECFC6
:101DF0001FBA32BD21BD60BD0FB6F894FA9AF99AA8
:101E00000FBE0895089560910001709101018091C5
:101E10000201909103016817790744F4709303015C
:101E20006093020184E793E00E9433210895BC018E
:101E3000893191051CF469E170E005C0893C910588
:101E400014F068EC70E0709334106093331082ECFF
:101E500093E00E9433210895EF92FF920F931F9316
:101E6000CF93DF93EC01893191051CF4C9E1D0E0F7
:101E700006C081E0C53FD80714F0C4EFD1E0BE0131
:101E8000882777FD8095982F0E94C7817B018C0160
:101E90006091311070913210882777FD8095982FCE
:101EA0000E94C7819B01AC01C801B7010E942C812F
:101EB0009B01AC0160912D1070912E1080912F101C
:101EC000909130100E94D58360932D1070932E1046
:101ED00080932F1090933010D0933210C093311014
:101EE00083EB93E0BE010E943321DF91CF911F91DC
:101EF0000F91FF90EF9008950E9404449C018091FF
:101F00000001909101012817390724F43093010151
:101F10002093000108950E94844208952F923F92D9
:101F20004F925F926F927F928F929F92AF92BF92E9
:101F3000CF92DF92EF92FF920F931F93DF93CF9395
:101F4000CDB7DEB728970FB6F894DEBF0FBECDBF72
:101F5000A0904A0FB0904B0FC0904C0FD0904D0FF7
:101F600020904E0F30904F0F4090500F5090510FD7
:101F70008091520F9091530FA091540FB091550F33
:101F800089839A83AB83BC832091720F3091730F46
:101F90004091740F5091750F6090760F7090770F8D
:101FA0008090780F9090790F80917A0F90917B0FAD
:101FB000A0917C0FB0917D0F8D839E83AF83B887F6
:101FC0008091F60E882359F40F2EF0E0EF2EF0E00A
:101FD000FF2EF0E80F2FFFE31F2FF02D0AC00F2E6A
:101FE000F0E7EF2EF2E4FF2EF1E20F2FFDE31F2FBB
:101FF000F02DC601B5010E945F80A80197010E94E3
:10200000D583AB01BC018EE793E022E00E94282239
:102010008091F60E882359F40F2EF0E0EF2EF0E0B9
:10202000FF2EF0E80F2FFFE31F2FF02D0AC00F2E19
:10203000F0E7EF2EF2E4FF2EF1E20F2FFDE31F2F6A
:10204000F02DC201B101A40193010E945F80A8019B
:1020500097010E94D583AB01BC0185E893E022E0A3
:102060000E9428228091F60E882359F40F2EF0E06A
:10207000EF2EF0E0FF2EF0E80F2FFFE31F2FF02DE3
:102080000AC00F2EF0E7EF2EF2E4FF2EF1E20F2F41
:10209000FDE31F2FF02D69817A818B819C812D8139
:1020A0003E814F8158850E945F80A80197010E9460
:1020B000D583AB01BC0189E893E022E00E9428228D
:1020C0002091460F3091470F4091480F5091490F92
:1020D000A090030FB090040FC090050FD090060F92
:1020E0008091F60E882359F40F2EF0E0EF2EF0E0E9
:1020F000FF2EF0E80F2FFFE31F2FF02D0AC00F2E49
:10210000F0E7EF2EF2E4FF2EF1E20F2FFDE31F2F99
:10211000F02DCA01B9010E94C781A60195010E9454
:10212000D583A80197010E94D583AB01BC018DE83E
:1021300093E022E00E94642228960FB6F894DEBF56
:102140000FBECDBFCF91DF911F910F91FF90EF9008
:10215000DF90CF90BF90AF909F908F907F906F90C7
:102160005F904F903F902F9008956F927F928F9243
:102170009F92AF92BF92CF92DF92EF92FF920F9316
:102180001F93DF93CF9300D000D0CDB7DEB760911F
:102190004710709148108091491090914A102FE695
:1021A00032E143E85AE30E94D5837B018C01CE01E2
:1021B000019661E870E044E050E02DEE3EE00E94C0
:1021C0003E0EC801B70129813A814B815C810E9492
:1021D0005F80AB01BC018AED93E022E00E942822DF
:1021E0008BEF93E00E944F20E0917301F091740116
:1021F000638574858585968520E030E040E751E46D
:102200000E94338318160CF47AC0662477244301A5
:102210008DE790E06DEE7EE00E945A0E7B018C010E
:10222000E60CF71C081D191DC801B70120E831E5AF
:1022300041E050E00E941385922E832E742E652E6D
:10224000622F732F842F952F20E83EEA4EEF5FEF29
:102250000E94AB845B016C01AE0CBF1CC01ED11E82
:102260008CEE93E0492D582D672D762D0E9470211C
:10227000C601B50120E13EE040E050E00E94138538
:10228000122F032FF42EE52E8EEF93E0422F502FC6
:102290006F2D7E2D0E947021612F702F8F2D9E2D0E
:1022A00020EF31EF4FEF5FEF0E94AB84A60EB71E19
:1022B000C81ED91EC601B5012CE330E040E050E055
:1022C0000E94138585E094E0BA01A9010E94702163
:1022D0008DE094E00E945D200F900F900F900F9082
:1022E000CF91DF911F910F91FF90EF90DF90CF90F2
:1022F000BF90AF909F908F907F906F9008950FB692
:10230000F8946091621070916310809164109091C4
:1023100065100FBE2091431030914410409145103C
:1023200050914610621B730B840B950B28EE33E023
:1023300040E050E00E94F184C901DA013C014D0106
:1023400067CF8091EE018823A1F01092EE010E94E8
:102350002D3880910501815080930501882349F42F
:1023600080910401833010F40E945C3285E08093F8
:102370000501089504C00E9453400E94A11180915C
:10238000E60E8823C1F70895CF93DF9397FD10C021
:10239000EC018F3F910521F01CF0CFEFD0E002C09F
:1023A000009731F08091800F88608093800F07C084
:1023B0008091800F877F8093800FC0E0D0E06623FC
:1023C00011F00E94BA118091F00290E0C817D9076D
:1023D00029F080ED93E0BE010E943321C093F0020A
:1023E000DF91CF910895EF92FF920F931F93DF93A8
:1023F000CF930F92CDB7DEB78DE089838AE6E82EC2
:1024000080E1F82EC7018E010F5F1F4FB80141E038
:1024100050E00E94D47E8AE08983C701B80141E080
:1024200050E00E94D47E0F90CF91DF911F910F91C9
:10243000FF90EF900895E091F501F091F60144A529
:1024400055A566A577A581E993E022E00E942822A0
:10245000E091F501F091F60140A951A962A973A993
:1024600080EB93E020E00E942822E0910601EF3FFC
:1024700029F4E091F501F091F601E081F0E0E351FB
:10248000FD4F608188E993E070E00E9449210E943D
:10249000F31108952F923F924F925F926F927F9225
:1024A0008F929F92AF92BF92CF92DF92EF92FF9264
:1024B0000F931F93DF93CF93CDB7DEB7E0970FB69F
:1024C000F894DEBF0FBECDBF6C018091CC01282FE8
:1024D00084FF11C0D6018C9182FF02C00C94001CB5
:1024E00081FF09C016968D919C9117978F369105A3
:1024F00011F00C94001CF6010081118102FFBCC593
:10250000808591858C31910509F444C28D31910506
:10251000A0F48430910520F4029708F03FC030C049
:102520008431910509F42FC28531910509F42FC238
:10253000049711F00C94001CD9C18338910509F45B
:102540002BC38438910570F48B35910509F466C26C
:102550008C35910509F466C28A35910511F00C9409
:10256000001C59C28538910509F475C48538910558
:1025700008F478C38638910511F00C94001C2AC524
:10258000C6010E94116C882311F40C94001C80E099
:1025900061E041E00E94795D0C94001C80914A0F3B
:1025A00090914B0FA0914C0FB0914D0F89879A8756
:1025B000AB87BC8780914E0F90914F0FA091500F29
:1025C000B091510F8D879E87AF87B88B8091520F46
:1025D0009091530FA091540FB091550F898B9A8B06
:1025E000AB8BBC8BC6010E94116C882311F40C9438
:1025F000001CFE01319688E0DF011D928A95E9F703
:10260000F601828180FD05C020E030E040E050E02E
:1026100007C0D60197962D913D914D915C919A9767
:102620008091F60E882351F0CA01B90123E333E308
:102630004BEC51E40E94D5839B01AC0129833A8382
:102640004B835C83F601828181FD05C020E030E090
:1026500040E050E007C0D6019B962D913D914D91F1
:102660005C919E978091F60E882351F0CA01B901C2
:1026700023E333E34BEC51E40E94D5839B01AC018F
:102680002D833E834F835887FE01759680E1DF01DD
:102690001D928A95E9F780914A0F90914B0FA09176
:1026A0004C0FB0914D0F8D8B9E8BAF8BB88F80915F
:1026B0004E0F90914F0FA091500FB091510F898FF5
:1026C0009A8FAB8FBC8F8091520F9091530FA09136
:1026D000540FB091550F8D8F9E8FAF8FB8A360911F
:1026E0006E0F70916F0F8091700F9091710F0E941B
:1026F000C7812091030F3091040F4091050F509135
:10270000060F0E94D58369A37AA38BA39CA3F6012D
:10271000828182FFC8C087A490A8A1A8B2A8809196
:10272000F60E882351F0C501B40123E333E34BECEB
:1027300051E40E94D5834B015C016D897E898F89AC
:10274000988D29853A854B855C850E945E806DA7B2
:102750007EA78FA798AB698D7A8D8B8D9C8D2D85EB
:102760003E854F8558890E945E802B013C01C50142
:10277000B40120E030E040E850E40E94D583A50198
:1027800094010E94D5837B018C016DA57EA58FA548
:1027900098A99B01AC010E94D5839B01AC01C801A3
:1027A000B7010E945E807B018C01C301B201A301CD
:1027B00092010E94D5839B01AC01C801B7010E9420
:1027C0005E800E9442847B018C016DA57EA58FA551
:1027D00098A9A30192010E9440839B01AC0117FBC1
:1027E000109517F91095C801B7010E942C817B0143
:1027F0008C01A80197010E948F84882331F082E127
:1028000094E00E9462200C94001CD60118968D91D1
:102810009C911997039721F417FB109517F91095C0
:10282000C501B40120E030E040E050E00E94258185
:10283000882344F417FB109517F91095B7FAB09454
:10284000B7F8B094C301B201A80197010E94D583E3
:102850009B01AC016DA57EA58FA598A90E945E8005
:1028600020E030E040E05FE30E94D58369837A8313
:102870008B839C836DA57EA58FA598A9A801970140
:102880000E94D5839B01AC01C301B2010E945F800D
:1028900020E030E040E05FE30E94D5836D837E83DB
:1028A0008F8398870CC069817A818B819C812D816F
:1028B0003E814F8158850E9440834B015C01E0E0DE
:1028C000D60118968D919C911997029709F4E1E031
:1028D000CE010996BE016B5E7F4FAE014F5F5F4F29
:1028E00095018401EE2E0E94C84B8AC70E94BA113E
:1028F000F6012081318133FD05C060E070E080E0A9
:1029000090E007C0D60193966D917D918D919C9139
:10291000969732FF0BC0F601678D70A181A192A13D
:1029200028EE33E040E050E00E94AB840FB6F8940C
:10293000E0906210F09063100091641010916510A7
:102940000FBEE60EF71E081F191F04C00E94534059
:102950000E94A1110FB6F8948091621090916310BB
:10296000A0916410B09165100FBE27013801481A7C
:10297000590A6A0A7B0AD301C20180509449A543CF
:10298000B74720F33DC781E08093F60E39C7109218
:10299000F60E36C7C80188739070892B11F080E05D
:1029A00008C0C80156E0969587955A95E1F780953D
:1029B000817006FF08C01092460F1092470F1092C8
:1029C000480F1092490F882321F041E051E061E067
:1029D0001EC0D6012D913C91C90188739070892B3E
:1029E00009F43CC1C90143E0969587954A95E1F702
:1029F000582F5170C90134E0969587953A95E1F7C3
:102A0000682F617025FD02C040E001C041E0852FC4
:102A10000E94BD7023C11092380FF2C681E08093EE
:102A2000380FEEC6A090720FB090730FE090740F45
:102A3000F090750F6090760F7090770F8090780F00
:102A40009090790F20907A0F30907B0F40907C0F00
:102A500050907D0F03FF21C0F60122853385448508
:102A600055858091F60E882351F0CA01B90123E300
:102A700033E34BEC51E40E94D5839B01AC01CA01C6
:102A8000B90120914A0F30914B0F40914C0F50915A
:102A90004D0F0E945E805B017C0104FF23C0D601C4
:102AA0001E962D913D914D915C9151978091F60E1E
:102AB000882351F0CA01B90123E333E34BEC51E41D
:102AC0000E94D5839B01AC01CA01B90120914E0F30
:102AD00030914F0F4091500F5091510F0E945E80E6
:102AE0003B014C0105FF21C0F6012289338944894D
:102AF00055898091F60E882351F0CA01B90123E36C
:102B000033E34BEC51E40E94D5839B01AC01CA0135
:102B1000B9012091520F3091530F4091540F5091B1
:102B2000550F0E945E801B012C01B501C701930166
:102B3000A401710182010E949767D6018C9186FFE2
:102B40005FC656962D913D914D915C91599780911C
:102B5000F60E882351F0CA01B90123E333E34BECAD
:102B600051E40E94D5839B01AC01CA01B9012091B7
:102B70008C0130918D0140918E0150918F010E9406
:102B8000D5830E9494816093460F7093470F809382
:102B9000480F9093490F34C660914A0F70914B0FC4
:102BA00080914C0F90914D0F20914E0F30914F0F0F
:102BB0004091500F5091510FE090520FF090530FF1
:102BC0000091540F1091550F60902D1070902E10A1
:102BD00080902F10909030100F2EF0E0AF2EF0E08C
:102BE000BF2EF0E0CF2EF0E0DF2EF02DA0923910B6
:102BF000B0923A10C0923B10D0923C10A0923D107F
:102C0000B0923E10C0923F10D092401000D000D041
:102C1000A090A001B090A101C090A201D090A3010A
:102C2000EDB7FEB7A182B282C382D4820F2EF0E844
:102C3000AF2EFFE4BF2EF3ECCF2EF7E4DF2EF02D06
:102C40000E94756F60922D1070922E1080922F103E
:102C5000909230100F900F900F900F9080E00E9494
:102C6000B867CEC580E00E94D66880E090E0A0E022
:102C7000B0E08093720F9093730FA093740FB09392
:102C8000750F8093760F9093770FA093780FB09382
:102C9000790F80937A0F90937B0FA0937C0FB09362
:102CA0007D0F6091A8017091A9018091AA01909176
:102CB000AB010E946F698090ED0F9090EE0FA09095
:102CC000EF0FB090F00F0091F10F1091F20F2091E3
:102CD000F30F3091F40F4091E90F5091EA0F60919A
:102CE000EB0F7091EC0FD901C8017801FA2FEB2F8F
:102CF000081519052A053B052CF4D501C4017401FA
:102D0000FA2FEB2FC701AF2FBE2F84179507A60709
:102D1000B70714F4DB01CA012C013D01481859081A
:102D20006A087B08530142012C013D01401A510AF7
:102D3000620A730A830172012C013D01441A550A8B
:102D4000660A770A8FED95E0B501A4010E945D2126
:102D500088EE95E0B801A7010E945D2181EF95E022
:102D6000B301A2010E945D21D6018D919C91119722
:102D700092FF2AC15F968D919D910D90BC91A02DDF
:102D8000181619061A061B060CF01EC18DE793E0F3
:102D9000B40145EF5EE00E94D80E0E949022282FD9
:102DA000F999FECF88E690E092BD81BDF89A80B592
:102DB000281769F0F999FECF1FBA88E690E092BD16
:102DC00081BD20BD0FB6F894FA9AF99A0FBE8FE72D
:102DD00093E0B70145EF5EE00E94D80E0E9490227A
:102DE000282FF999FECF88E690E092BD81BDF89A30
:102DF00080B5281769F0F999FECF1FBA88E690E0F0
:102E000092BD81BD20BD0FB6F894FA9AF99A0FBE13
:102E100081E893E0B20145EF5EE00E94D80E0E9487
:102E20009022282FF999FECF88E690E092BD81BDCF
:102E3000F89A80B5281709F4C7C0F999FECF1FBAD0
:102E400088E690E092BD81BD20BD0FB6F894FA9A55
:102E5000F99A0FBEB9C000917E0F10E025E01695DB
:102E600007952A95E1F7017080E00E94D6681092DC
:102E70003A0F10923B0F10923C0F10923D0F1092A0
:102E80003E0F10923F0F1092400F1092410F209171
:102E900005103091061040910710509108102093B2
:102EA000420F3093430F4093440F5093450F80E0FF
:102EB00090E0A0E0B0E08093720F9093730FA09326
:102EC000740FB093750F8093760F9093770FA09344
:102ED000780FB093790F80937A0F90937B0FA09324
:102EE0007C0FB0937D0F1092270F1092280F109235
:102EF000290F10922A0F10922B0F10922C0F109264
:102F00002D0F10922E0F20932F0F3093300F4093E0
:102F1000310F5093320F6091A8017091A9018091F7
:102F2000AA019091AB010E946F69609105107091A8
:102F3000061080910710909108100E94C78120E030
:102F400030E040EC5FE30E94D5830E949481AB01A6
:102F5000BC018091F10F9091F20FA091F30FB0910D
:102F6000F40F6A017B01C81AD90AEA0AFB0A8091A8
:102F7000E90F9091EA0FA091EB0FB091EC0F4A018D
:102F80005B01881A990AAA0ABB0A8091ED0F9091F9
:102F9000EE0FA091EF0FB091F00F481B590B6A0B89
:102FA0007B0B8FED95E00E945D2188EE95E0B701E7
:102FB000A6010E945D2181EF95E0B501A4010E9468
:102FC0005D21802F0E94D66881E061E041E00E948F
:102FD000BD7016C44091270F5091280F6091290FA2
:102FE00070912A0F89E991E00E94702140912B0F86
:102FF00050912C0F60912D0F70912E0F8EE194E067
:103000000E94702140912F0F5091300F6091310F2D
:103010007091320F8EE194E00E945D214091DD0FAE
:103020005091DE0F6091DF0F7091E00F8EE891E01C
:103030000E9470214091E10F5091E20F6091E30FE7
:103040007091E40F8EE194E00E9470214091E50FB1
:103050005091E60F6091E70F7091E80F8EE194E0D8
:103060000E945D2180E00E94B86780E891E00E94A4
:103070004F200E948E0FC4C301FD02C00C94FF1F9D
:10308000F601868197818E3B910509F4B9C38F3B88
:10309000910508F058C08936910509F4B5C18A3602
:1030A000910540F58435910509F46DC48535910588
:1030B00060F48235910509F45FC48335910508F009
:1030C0005EC48A9709F0AEC7A9C08C35910509F492
:1030D00097C48D35910528F48535910509F0A2C76F
:1030E0006EC48336910509F4D2C48836910509F07F
:1030F00099C7DDC08237910509F42FC58337910543
:1031000088F48B36910509F42DC48B36910508F4AB
:1031100019C48D36910509F481C18F36910509F0E6
:1031200081C701C58437910509F47EC384379105B1
:1031300008F40CC58737910509F412C58C38910540
:1031400009F070C71DC1F1E08F329F0709F4C7C3B2
:1031500021E08033920768F58D3C910509F40AC699
:103160008E3C9105A8F48A3C910509F469C58B3C15
:10317000910528F4893C910509F054C71DC58B3C85
:10318000910509F4A3C58C3C910509F04BC7AEC568
:103190008F3C910509F4F5C58F3C910508F4EDC508
:1031A0008C3D910509F41FC68D3D910509F03AC784
:1031B0002AC631E0843F930709F46EC641E0853F9B
:1031C0009407C0F451E08039950709F42EC6A1E0B8
:1031D00081399A0728F48E55914009F023C773C6A8
:1031E000E1E081399E0709F423C68259914009F034
:1031F00019C721C621E0863F920709F461C631E074
:10320000863F930708F44EC641E0873F940709F4D0
:10321000B1C58751924009F005C75AC612FF02C7CF
:1032200013FF00C7F601878D90A1A1A1B2A1B7FD40
:10323000F9C68F3F9105A105B10511F00CF0F2C65A
:10324000E3A0F4A020E030E0F901EE0FFF1FED5104
:10325000FF4FE4918E2F90E08E159F0509F4E2C692
:103260002F5F3F4F2833310579F7F7FCDBC68E2DF2
:103270000E944C79D6015F969C915F9790962C9115
:10328000EE2DF0E0092E0E94BB798E2D692F722F52
:103290000E94697B8DE394E0B7010E944921F60109
:1032A000678D70A189E494E00E943321BBC60E941F
:1032B0002632882309F0B6C60FB6F89480916210C2
:1032C00090916310A0916410B09165100FBE80932F
:1032D000E5029093E602A093E702B093E8028091A2
:1032E000CC0183FD9FC6D6018D919C91119793FDD2
:1032F0000CC092FF0CC05F968D919D910D90BC917A
:10330000A02D0097A105B10511F40E94BA11F60194
:103310008081918192FF86C6878C90A0A1A0B2A0E7
:103320009C012070317091FF0CC0068D232B81F021
:1033300010E0D6015A966D917D918D919C915D978B
:103340000FC0E091F501F091F6010081232B11F4FB
:1033500010E00FC010E0F601628D738D848D958DA5
:1033600020E030E040E050E00E94338318160CF477
:1033700011E0C501B4010E94C781402F212FE3C392
:103380000E942632882309F04DC60FB6F89480912A
:10339000621090916310A0916410B09165100FBEFF
:1033A0008093E5029093E602A093E702B093E802CF
:1033B0008091CC0183FD36C6D6018D919C911197E9
:1033C00092FF30C65F96ED90FD900D911C91929703
:1033D00090FD02C0BB2410C0BB24F601628D738D2A
:1033E000848D958D20E030E040E050E00E943383F2
:1033F000181614F4BB24B394C801B7010E94C78106
:103400004B2D0E94AC2F0EC683E0169507958A952A
:10341000E1F7802F81700E941B1204C60E942632A1
:10342000882309F0FFC50FB6F8948091621090913F
:103430006310A0916410B09165100FBE8093E502F7
:103440009093E602A093E702B093E8028091CC014A
:1034500083FDE8C50E94BA118090F5019090F601B5
:10346000D6012D913C91119731FF08C05E968C9149
:10347000882321F417E0812E11E0912E32FF23C022
:10348000F601E78CF0A001A112A1D401AC9030FDAF
:1034900002C0BB2410C0BB24F601628D738D848DE5
:1034A000958D20E030E040E050E00E943383181614
:1034B00014F4BB24B394C801B7010E94C7814A2DFC
:1034C0002B2D0E94DA35D4019C966D917D918D91C2
:1034D0009C919F97D0962D913D914D915C91D39762
:1034E0000E945E807B018C0120E030E040E050E0F3
:1034F0000E94338318165CF4C801B70120E030E065
:1035000040E050E40E942581882364F48BC5C80103
:10351000B70120E030E040E050EC0E943383181601
:103520000CF480C53324F40122A533A580A591A510
:103530008217930714F4332433940FB6F894409011
:1035400062105090631060906410709065100FBE10
:1035500049A65AA66BA67CA644245524320110E045
:103560000FB6F8942091621030916310409164106E
:10357000509165100FBE2DA33EA34FA358A7DA01AB
:10358000C90129A53AA54BA55CA5821B930BA40BE9
:10359000B50B895E9340A040B04058F080E00E9497
:1035A0001B128DA19EA1AFA1B8A589A79AA7ABA711
:1035B000BCA70E94A1118091F5019091F601881697
:1035C000990609F067C0D4019396ED90FC9094970A
:1035D0001E141F040CF05EC0112309F05BC03320E1
:1035E00009F458C091966D917C919297882777FD48
:1035F0008095982F0E94C7819B01AC01F40164A5BE
:1036000075A586A597A50E94338318160CF042C0B5
:1036100000D000D000D00DB71EB70F5F1F4F662738
:1036200077276E197F09882777FD8095982F0E944C
:10363000C78120918C0130918D0140918E01509174
:103640008F010E94D5830E9494815B016C01F4017B
:1036500087859089A189B289F80180839183A283AB
:10366000B3831482158260E070E080E090E020E097
:1036700030E040E050E0EE24FF2487010E94DC6649
:1036800011E02DB73EB72A5F3F4F0FB6F8943EBF0B
:103690000FBE2DBF411451046104710409F053C0E1
:1036A0003320C9F0D401D0966D917D918D919C917C
:1036B000D39720E030E040E85FE30E945E809B010A
:1036C000AC01F40164A575A586A597A50E94338376
:1036D00087FF1AC045CFD401D0966D917D918D9111
:1036E0009C91D39720E030E040E85FE30E945F8048
:1036F0009B01AC01F40164A575A586A597A50E9460
:10370000258118160CF42CCFD4015F966D917C9115
:103710009097882777FD8095982F28EE33E040E03A
:1037200050E00E94AB842B013C012DA13EA14FA192
:1037300058A5420E531E641E751E411451046104A7
:10374000710409F40DCFD301C2012DA13EA14FA1F7
:1037500058A5821B930BA40BB50B80509449A5432D
:10376000B74708F4FDCE112309F44AC08091F50152
:103770009091F6018816990609F042C000D000D059
:1037800000D00DB71EB70F5F1F4FD40193966D91F8
:103790007C919497882777FD8095982F0E94C78108
:1037A00020918C0130918D0140918E0150918F01BB
:1037B0000E94D5830E9494815B016C01F40187858E
:1037C0009089A189B289F80180839183A283B38310
:1037D0001482158260E070E080E090E020E030E04C
:1037E00040E050E0EE24FF2487010E94DC662DB704
:1037F0003EB72A5F3F4F0FB6F8943EBF0FBE2DBFB6
:103800000FB6F8948091621090916310A0916410AB
:10381000B09165100FBE8093E5029093E602A093ED
:10382000E702B093E802FEC323FDFCC30FB6F89491
:103830008090621090906310A0906410B09065101A
:103840000FBE0FB6F8948091621090916310A09112
:103850006410B09165100FBE88199909AA09BB09B7
:10386000895E9340A040B04070F080E00E941B123F
:103870000FB6F8948090621090906310A09064103E
:10388000B09065100FBE0E94A111C0907301D0903E
:103890007401D6011B96ED90FD900D911C911E9721
:1038A000C801B70120E030E040EF51E40E943383CB
:1038B00018160CF0B7C3C801B701F601278130858F
:1038C000418552850E945E809F7720E030E040E88D
:1038D0005FE30E94338318160CF4B3CFA3C312FD29
:1038E00003C026E930E005C0D6015F962D913C91DA
:1038F000909713FD03C0CC24DD2409C0F601C3A0BA
:10390000D4A01C141D041CF4B1E0CB2ED12CF60164
:10391000EE0FFF1FED58FE4FE080F180B9018827C0
:1039200077FD8095982F0E94C781AB01BC01F3E021
:1039300016950795FA95E1F70170C7012C2D0E94A5
:103940009E3270C312FD03C08FEF90E005C0D60118
:103950005F968D919C919097612F6695669566957F
:10396000617007C0612F669566956695617080E00D
:1039700090E00E94C41156C31092390F53C381E0E6
:103980008093390F4FC312FF14C0F601678D70A1E9
:1039900081A192A128EE33E040E050E00E94AB8488
:1039A0006093760170937701809378019093790109
:1039B00039C30E94BA1181E00E94DC7133C312FF47
:1039C00016C0D6015F966D917D918D919C919297D5
:1039D00028EE33E040E050E00E94AB846093E902BF
:1039E0007093EA028093EB029093EC021BC3109257
:1039F000E9021092EA021092EB021092EC0212C35A
:103A000003FF0DC0F60182859385A485B58580935B
:103A1000800190938101A0938201B0938301D6012C
:103A20008C9184FF0EC01E968D919D910D90BC913E
:103A3000A02D8093840190938501A0938601B0937B
:103A40008701F601808185FF0CC082899389A48952
:103A5000B5898093880190938901A0938A01B093DE
:103A60008B010E946972D6018C9186FFDBC2E091C6
:103A7000F501F091F60156962D913D914D915C9195
:103A8000599721873287438754878081BFC212FDAF
:103A900005C060E177E280E090E00BC0F601678D41
:103AA00070A181A192A128EE33E040E050E00E9495
:103AB000AB8403FD779A04FD769A05FD479A0FB60D
:103AC000F894E0906210F0906310009164101091EF
:103AD00065100FBEE60EF71E081F191F02C00E94D8
:103AE0000A720FB6F8948091621090916310A091C1
:103AF0006410B09165100FBE27013801481A590AA9
:103B00006A0A7B0AD301C201805A9648A140B0409C
:103B100030F3D6013C9133FD779834FD769835FF2C
:103B200081C247987FC212FF04C0F601878D80933F
:103B3000CC018091CC0183FF75C260E070E080E031
:103B400090E040E020E00E94DA356CC284EA91E027
:103B50000E945D200E94B51065C20E948E0F62C255
:103B60000E94BA118BE594E00E944F201E9B03C077
:103B700081E594E002C08EE494E00E944F2089E643
:103B800094E00E944F201F9B03C081E594E002C097
:103B90008EE494E00E944F2087E794E00E944F203B
:103BA000649B03C081E594E002C08EE494E00E942F
:103BB0004F200E94F31136C203FF0DC0F60182852B
:103BC0009385A485B5858093AC019093AD01A093B6
:103BD000AE01B093AF01D6018C9184FF0EC01E964A
:103BE0008D919D910D90BC91A02D8093B0019093EB
:103BF000B101A093B201B093B301F601808185FFBA
:103C00000CC082899389A489B5898093B40190936B
:103C1000B501A093B601B093B701D6018C9186FF90
:103C200052C056968D919D910D90BC91A02D809380
:103C3000B8019093B901A093BA01B093BB0143C0FE
:103C400003FF0DC0F60182859385A485B585809319
:103C5000BC019093BD01A093BE01B093BF01D601FA
:103C60008C9184FF0EC01E968D919D910D90BC91FC
:103C7000A02D8093C0019093C101A093C201B09385
:103C8000C301F601808185FF0CC082899389A489D4
:103C9000B5898093C4019093C501A093C601B093E8
:103CA000C701D6018C9186FF0EC056968D919D91CD
:103CB0000D90BC91A02D8093C8019093C901A09351
:103CC000CA01B093CB010E946972ACC112FFAAC1B4
:103CD000F601278D30A141A152A112161306140638
:103CE00015060CF49FC1209304019CC18091F5013D
:103CF0009091F60112FD03C0FC01B5960EC0F601CD
:103D0000878D90A1A1A1B2A1B7FD8CC10097A1059B
:103D1000B10509F087C1ECE2F1E003FF0BC0D60169
:103D20001A962D913D914D915C911D97228F338F65
:103D3000448F558FD6018C9184FF0AC01E962D9119
:103D40003D914D915C915197268F378F40A351A3A0
:103D5000D6018C9185FF0AC052962D913D914D91CF
:103D60005C91559722A333A344A355A3CF010E948E
:103D7000652F58C10E940B2E55C1C6010E94392BD8
:103D800051C103FF0DC0F60182859385A485B585D9
:103D90008093351090933610A0933710B09338105D
:103DA000D6018C9186FF11C0E091F501F091F601EA
:103DB00056962D913D914D915C915997278B308F5F
:103DC000418F528F80810E94A936409135105091C9
:103DD000361060913710709138108EE794E022E031
:103DE0000E9464221FC112FD05C024E630E040E0BD
:103DF00050E005C0F601278D30A141A152A1C901B3
:103E00000E942C0F0FC112FD05C024E630E040E0F7
:103E100050E007C0D6015F962D913D914D915C9188
:103E20009297C9010E94170FFDC00E94BA11FAC0F3
:103E30000E948668F7C010FF06C0F601C28CD38CC2
:103E4000E48CF58C08C0C0902D10D0902E10E0901E
:103E50002F10F0903010B801E4E076956795EA9560
:103E6000E1F76170A80175E0569547957A95E1F7FD
:103E70004170980156E0369527955A95E1F72170E3
:103E800093E0169507959A95E1F7802F8170870149
:103E900076010E944271C6C080E00E94922484EAAA
:103EA00098E00BC00E949227E091F501F091F60195
:103EB00080810E94A93684EC98E00E947C20B2C0E8
:103EC0000E94B42BAFC08EE691E00E945D20AAC094
:103ED0004091560F5091570F6091580F7091590FA4
:103EE00085E591E022E00E94282240915A0F5091EE
:103EF0005B0F60915C0F70915D0F8EE194E022E0AA
:103F00000E94282240915E0F50915F0F6091600FD8
:103F10007091610F8EE194E022E00E946422409152
:103F20004A0F50914B0F60914C0F70914D0F83E4ED
:103F300091E022E00E94282240914E0F50914F0FB5
:103F40006091500F7091510F8EE194E022E00E9439
:103F500028224091520F5091530F6091540F70914D
:103F6000550F8EE194E022E00E94642240913A0FC6
:103F700050913B0F60913C0F70913D0F83E391E0B6
:103F80000E94702140913E0F50913F0F6091400F71
:103F90007091410F8EE194E00E9470214091420F98
:103FA0005091430F6091440F7091450F8EE194E062
:103FB0000E945D214091270F5091280F6091290F99
:103FC00070912A0F8BE191E00E94702140912B0F9C
:103FD00050912C0F60912D0F70912E0F8EE194E077
:103FE0000E94702140912F0F5091300F6091310F3E
:103FF0007091320F8EE194E00E945D2113C011FF99
:1040000008C00E94BA11D6015E968C910E94A93612
:1040100009C022FF07C083E693E00E944F20C6013B
:104020000E949C3EE0960FB6F894DEBF0FBECDBF57
:10403000CF91DF911F910F91FF90EF90DF90CF9084
:10404000BF90AF909F908F907F906F905F904F90B8
:104050003F902F900895CF93DF930E9453400E948A
:10406000FB3AEC01009729F00E944A12CE010E940F
:104070006A3F0E940A72F1CFDF93CF930F92CDB7C0
:10408000DEB789838AE690E1BE016F5F7F4F41E032
:1040900050E00E94D47E0F90CF91DF910895CF938E
:1040A000DF93EC0102C00E943C20FE018491219626
:1040B0008823C9F7DF91CF9108950E944F200E9475
:1040C000F31108950F931F938C018EE592E00E94E7
:1040D0004F20C8010E945D201F910F9108950F93FA
:1040E0001F938C0185E692E00E944F20C8010E9438
:1040F0005D201F910F9108950F931F938C0185E60A
:1041000092E00E944F20C8010E944F201F910F9102
:1041100008950F931F938C018BE692E00E944F202D
:10412000C8010E945D201F910F910895CF93DF93E6
:10413000EC0103C021960E943C2088818823D1F79E
:10414000DF91CF910895AF92BF92CF92DF92EF921D
:10415000FF920F931F93DF93CF93CDB7DEB72B97CB
:104160000FB6F894DEBF0FBECDBFC62ED92E1B866C
:104170009BE0A92EB12CAC0EBD1E6C2D9D2D2AE00E
:1041800030E040E050E00E94F184D52E7901042F08
:10419000152F80E3C80EC801B7012AE030E040E0E7
:1041A00050E00E94AB84C61AF501C2925F01CE2C8A
:1041B0007F2D802FE114F10401051105F1F6CF01E7
:1041C0000E9496202B960FB6F894DEBF0FBECDBF8F
:1041D000CF91DF911F910F91FF90EF90DF90CF90E3
:1041E000BF90AF900895EF92FF920F931F937A01C3
:1041F0008B010E944F20C801B7010E94A3200E949A
:10420000F3111F910F91FF90EF900895EF92FF929D
:104210000F931F937A018B010E944F20C801B701B1
:104220000E94A3201F910F91FF90EF900895EF92AD
:10423000FF920F931F937B018C0197FF0BC08DE2C0
:104240000E943C2010950095F094E094E11CF11C34
:10425000011D111DC801B7010E94A3201F910F91DC
:10426000FF90EF900895EF92FF920F931F937B01C1
:104270000E944F200027F7FC0095102FC801B701BE
:104280000E9417210E94F3111F910F91FF90EF9050
:104290000895EF92FF920F931F937B010E944F208E
:1042A0000027F7FC0095102FC801B7010E941721C5
:1042B0001F910F91FF90EF900895EF92FF920F934F
:1042C0001F937A018B010E944F20C801B7010E9401
:1042D00017210E94F3111F910F91FF90EF90089505
:1042E000EF92FF920F931F937A018B010E944F2050
:1042F000C801B7010E9417211F910F91FF90EF9005
:1043000008959F92AF92BF92CF92DF92EF92FF9269
:104310000F931F93CF93DF937B018C01942EA80101
:1043200097010E948F84882319F086E592E020C0CF
:10433000C0E0D0E057016801E894D7F8C601B501A4
:104340002FEF3FEF4FE75FE70E948F84882351F400
:10435000C601B5012FEF3FEF4FE75FE70E942581D0
:10436000181614F0C1E0D0E0219729F08AE592E018
:104370000E944F2061C0C801B70120E030E040E05A
:1043800050E00E94258188233CF48DE20E943C206D
:1043900017FB109517F9109520E030E040E05FE33F
:1043A000DD240BC0CA01B90120E030E040E251E455
:1043B0000E942C819B01AC01D394D91498F3C801BD
:1043C000B7010E945F805B016C010E9499817B01B3
:1043D0008C010E94A320992019F08EE20E943C20BB
:1043E000C801B7010E94C5819B01AC01C601B5019E
:1043F0000E945E801FC020E030E040E251E40E9455
:10440000D5837B018C010E9494815B016C01CC24DB
:10441000B7FCC094DC2CC601B5010E941721C6016F
:10442000B5010E94C7819B01AC01C801B7010E9480
:104430005E809A949920F9F6DF91CF911F910F91A8
:10444000FF90EF90DF90CF90BF90AF909F90089536
:10445000DF92EF92FF920F931F937A018B01D22E7E
:104460000E944F20C801B7014D2D0E9481211F914C
:104470000F91FF90EF90DF900895EF92FF920F93CE
:104480001F93CF93DF93162F072FE42EF22E0E9457
:104490004F20212F302FC901EC0110E00AC04991B3
:1044A00059916991799180E294E02F2D0E94282200
:1044B0001F5F1E15A0F30E94F311DF91CF911F9192
:1044C0000F91FF90EF900895DF92EF92FF920F937C
:1044D0001F937A018B01D22E0E944F20C801B70191
:1044E0004D2D0E9481210E94F3111F910F91FF9089
:1044F000EF90DF9008959C01F999FECF32BD21BD68
:10450000F89A80B508959C01F999FECF1FBA32BD83
:1045100021BD60BD0FB6F894FA9AF99A0FBE0895BE
:1045200020E030E090E02836310539F0F999FECFEF
:1045300032BD21BDF89A80B5980F2F5F3F4F88E0BC
:104540002030380781F7892F0895F999FECF12BCE2
:1045500011BCF89A80B5813071F48BE490E06BE780
:1045600072E20E945A0E60937A0170937B018093ED
:104570007C0190937D010895DF93CF9300D000D00C
:10458000CDB7DEB7BC01CE01019644E050E02BE789
:1045900032E20E943E0E29813A814B815C81B90151
:1045A000CA010F900F900F900F90CF91DF91089557
:1045B000DF93CF9300D000D0CDB7DEB749835A83C5
:1045C0006B837C83BE016F5F7F4F44E050E023E844
:1045D00032E20E94960E0F900F900F900F90CF91A5
:1045E000DF910895EF92FF920F931F936091471010
:1045F000709148108091491090914A1020E030E06D
:1046000040E050E00E942581882309F49CC00FB649
:10461000F894609162107091631080916410909191
:1046200065100FBE20914310309144104091451009
:1046300050914610621B730B840B950B28EE33E0F0
:1046400040E050E00E94F18479018A018DE790E01A
:104650006BE772E20E945A0EE60EF71E081F191F42
:104660008DE790E0B801A70123E832E20E94B20E84
:1046700081E890E00E94BC227B018C016091471090
:10468000709148108091491090914A102FE632E1C4
:1046900043E85AE30E94D5839B01AC01C801B701EE
:1046A0000E945F80AB01BC0181E890E00E94D822AB
:1046B00080E090E0A0E0B0E0809347109093481035
:1046C000A0934910B0934A100FB6F89480916210ED
:1046D00090916310A0916410B09165100FBE80930B
:1046E000431090934410A0934510B093461020E0DF
:1046F00030E040E02836310539F0F999FECF32BD7F
:1047000021BDF89A80B5480F2F5F3F4F88E02030D9
:10471000380781F7F999FECF88E690E092BD81BD18
:10472000F89A80B5481769F0F999FECF1FBA88E664
:1047300090E092BD81BD40BD0FB6F894FA9AF99A07
:104740000FBE0E94B5101F910F91FF90EF9008953A
:104750000F931F9388E293E040E050E060E272E440
:104760000E94D8228CE293E040E050E060E070E4E8
:104770000E94D82288E493E040E050E066E173E4D0
:104780000E94D82280E293E040E050E060E070E0D8
:104790000E94D82284E293E040E050E060E070E0C4
:1047A0000E94D82280E393E040E050E060EA71E4A8
:1047B0000E94D82284E393E040E050E060EA71E494
:1047C0000E94D82288E393E040E050E060E273E486
:1047D0000E94D8228CE393E040E050E060EA71E46C
:1047E0000E94D82280E493E040E050E068EC72E45C
:1047F0000E94D82284E493E040E050E060E273E459
:104800000E94D82281EA93E040E050E060E271E447
:104810000E94D82281E793E040E050E064E173E435
:104820000E94D82285E793E040E050E063E872E41C
:104830000E94D82203E812E289E793E066E970E07B
:10484000A8010E94D80E8BE793E066E470E0A8010F
:104850000E94D80E8DE793E060E070E0A8010E940E
:10486000D80E8FE793E060E070E0A8010E94D80EB8
:1048700081E893E060E070E0A8010E94D80E85E82E
:1048800093E040E050E062E573E40E94D82289E8BA
:1048900093E040E050E065EA73E40E94D8228DE89E
:1048A00093E040E050E064EB72E40E94D82281E99A
:1048B00093E040E050E060E070E00E94D82285E99B
:1048C00093E040E050E060E070E00E94D82289E987
:1048D00093E040E050E060E070E00E94D8228DE973
:1048E00093E040E050E060E772E40E94D82285EA5D
:1048F00093E040E050E060E070E00E94D82289EA56
:1049000093E040E050E060E070E00E94D8228DEA41
:1049100093E040E050E060E070E00E94D8221F91F8
:104920000F910895FF920F931F93CF93DF93F82E6B
:1049300040917A0150917B0160917C0170917D01E1
:104940008BE490E023E832E20E94B20E4091E9024B
:104950005091EA026091EB027091EC028FE490E0DA
:1049600023E832E20E94B20E409176015091770125
:10497000609178017091790183E590E023E832E25B
:104980000E94B20E4091800150918101609182019C
:104990007091830183E090E00E94D82240918401CD
:1049A00050918501609186017091870187E090E0C8
:1049B0000E94D822409188015091890160918A011A
:1049C00070918B018BE090E00E94D8224091900181
:1049D0005091910160919201709193018FE090E06C
:1049E0000E94D822409194015091950160919601C6
:1049F0007091970183E190E00E94D8224091980144
:104A00005091990160919A0170919B0187E190E02A
:104A10000E94D8224091A0015091A1016091A20171
:104A20007091A3018BE190E00E94D8224091A401F3
:104A30005091A5016091A6017091A7018FE190E0CE
:104A40000E94D8224091A8015091A9016091AA0129
:104A50007091AB0183E290E00E94D8224091351022
:104A600050913610609137107091381087E290E0C5
:104A70000E94D8224091AC015091AD016091AE01ED
:104A80007091AF0183E390E00E94D8224091B00181
:104A90005091B1016091B2017091B30187E390E050
:104AA0000E94D8224091B4015091B5016091B601A5
:104AB0007091B7018BE390E00E94D8224091BC0135
:104AC0005091BD016091BE017091BF018FE390E0F4
:104AD0000E94D8224091C0015091C1016091C20151
:104AE0007091C30183E490E00E94D8224091C401F8
:104AF0005091C5016091C6017091C70187E490E0B3
:104B00000E94D822F999FECF1FBA8AE690E092BDA2
:104B100081BD10BC0FB6F894FA9AF99A0FBEF999B4
:104B2000FECF1FBA8BE690E092BD81BD8FEF80BDB6
:104B30000FB6F894FA9AF99A0FBEF999FECF1FBAF8
:104B40008CE790E092BD81BD80E580BD0FB6F89402
:104B5000FA9AF99A0FBE8CE690E040E050E064E4E7
:104B600073E40E94D82280E790E040E050E064E0E7
:104B700072E40E94D82284E790E040E050E061E9CE
:104B800073E40E94D822F999FECF1FBA88E790E01B
:104B900092BD81BD8FEF80BD0FB6F894FA9AF99A55
:104BA0000FBE4091191050911A1060911B10709116
:104BB0001C1085E890E00E94D8224091211050916D
:104BC0002210609123107091241089E890E00E94D7
:104BD000D8224091291050912A1060912B10709189
:104BE0002C108DE890E00E94D82240911510509131
:104BF0001610609117107091181081E990E00E94D2
:104C0000D82240911D1050911E1060911F1070917C
:104C1000201085E990E00E94D82240912510509103
:104C20002610609127107091281089E990E00E9469
:104C3000D8228DE990E040E050E060E070E00E9412
:104C4000D82281EA90E040E050E060E070E00E940D
:104C5000D82285EA90E040E050E060E070E00E94F9
:104C6000D82220917E0FF999FECF1FBA80E793E0FA
:104C700092BD81BD822F90E035E0969587953A955B
:104C8000E1F7817080BD0FB6F894FA9AF99A0FBED9
:104C900001E81FE0C0E0D0E0CE01880F991F880F27
:104CA000991FF80141915191619171918F01845B3C
:104CB0009C4F0E94D8222196C930D10569F74091B6
:104CC000100150911101609112017091130188EC53
:104CD00090E00E94D82240911601509117016091F6
:104CE0001801709119018CEC90E00E94D82240913B
:104CF0001E0150911F01609120017091210180EDF2
:104D000090E00E94D82240911A0150911B016091BD
:104D10001C0170911D0184ED90E00E94D822209129
:104D20003F01F999FECF1FBA88ED90E092BD81BD99
:104D300020BD0FB6F894FA9AF99A0FBE209144015B
:104D4000F999FECF1FBA89ED90E092BD81BD20BDDB
:104D50000FB6F894FA9AF99A0FBE20914501F99985
:104D6000FECF1FBA85EF90E092BD81BD20BD0FB68A
:104D7000F894FA9AF99A0FBE409146015091470172
:104D800060914801709149018AED90E00E94D8221B
:104D900040914A0150914B0160914C0170914D013D
:104DA0008EED90E00E94D82240914E0150914F012B
:104DB000609150017091510182EE90E00E94D822E2
:104DC00020915201F999FECF1FBA86EE90E092BD74
:104DD00081BD20BD0FB6F894FA9AF99A0FBE4091A2
:104DE00008015091090160910A0170910B0187EE51
:104DF00090E023E832E20E94B20E40910C01509103
:104E00000D0160910E0170910F018BEE90E023E88F
:104E100032E20E94B20E60912601709127018FEE5E
:104E200090E043E852E20E94D80E60912801709110
:104E300029018AEF90E043E852E20E94D80E609187
:104E40002A0170912B018CEF90E043E852E20E941E
:104E5000D80E20917101F999FECF1FBA8EEF90E024
:104E600092BD81BD20BD0FB6F894FA9AF99A0FBE93
:104E700081EF90E040E050E060E070E00E94D822D6
:104E800086EF90E040E050E060E070E00E94D822C1
:104E9000FF20A1F08DE790E040E050E060E070E09E
:104EA00023E832E20E94B20E81E890E040E050E058
:104EB00060E070E00E94D8220E94A823F999FECFFA
:104EC0001FBA89E690E092BD81BD87E080BD0FB634
:104ED000F894FA9AF99A0FBE20E030E040E02836C4
:104EE000310539F0F999FECF32BD21BDF89A80B570
:104EF000480F2F5F3F4FF8E020303F0781F7F999C7
:104F0000FECF1FBA88E690E092BD81BD40BD0FB6CE
:104F1000F894FA9AF99A0FBEDF91CF911F910F91F1
:104F2000FF900895DF92EF92FF920F931F93CF931C
:104F3000DF93F999FECF89E690E092BD81BDF89AA2
:104F4000D0B48BE490E06BE772E20E945A0E60935B
:104F50007A0170937B0180937C0190937D018FE4B3
:104F600090E06BE772E20E945A0E6093E902709340
:104F7000EA028093EB029093EC0283E590E06BE70A
:104F800072E20E945A0E60937601709377018093CB
:104F900078019093790183E090E00E94BC226093B5
:104FA000800170938101809382019093830187E057
:104FB00090E00E94BC2260938401709385018093ED
:104FC0008601909387018BE090E00E94BC22609361
:104FD00088017093890180938A0190938B018FE0FF
:104FE00090E00E94BC2260939001709391018093A5
:104FF00092019093930183E190E00E94BC22609320
:10500000940170939501809396019093970187E1A5
:1050100090E00E94BC226093980170939901809364
:105020009A0190939B018BE190E00E94BC226093D7
:10503000A0017093A1018093A2019093A3018FE13D
:1050400090E00E94BC226093A4017093A50180931C
:10505000A6019093A70183E290E00E94BC22609396
:10506000A8017093A9018093AA019093AB0187E2F4
:1050700090E00E94BC2260933510709336108093AC
:1050800037109093381083E390E00E94BC22609325
:10509000AC017093AD018093AE019093AF0187E3B3
:1050A00090E00E94BC226093B0017093B1018093A4
:1050B000B2019093B3018BE390E00E94BC22609315
:1050C000B4017093B5018093B6019093B7018FE35B
:1050D00090E00E94BC226093BC017093BD0180935C
:1050E000BE019093BF0183E490E00E94BC226093D4
:1050F000C0017093C1018093C2019093C30187E402
:1051000090E00E94BC226093C4017093C50180931B
:10511000C6019093C70185E890E00E94BC2260938D
:10512000191070931A1080931B1090931C1089E82B
:1051300090E00E94BC226093211070932210809313
:105140002310909324108DE890E00E94BC2260937D
:10515000291070932A1080932B1090932C1081E9C2
:1051600090E00E94BC2260931510709316108093FB
:1051700017109093181085E990E00E94BC2260936C
:105180001D1070931E1080931F109093201089E9BA
:1051900090E00E94BC2260932510709326108093AB
:1051A00027109093281082E08D1508F050C001E878
:1051B0001FE07801C0E0D0E0CE01880F991F880F72
:1051C000991F845B9C4F0E94BC22F70161937193ED
:1051D000819391937F012196C930D10569F7209180
:1051E000810F3091820F4091830F5091840FCA013B
:1051F000B9010E948F848823A1F0CCE4D3E0CE01D2
:10520000880F991F880F991F0E94BC22F801619393
:105210007193819391938F012196F3E0C535DF0758
:1052200071F7F999FECF80E793E092BD81BDF89ABE
:1052300080B590E0811191E0892F0E94D66885E6C3
:1052400092E061E87FE049E026E00E943D2288ECA0
:1052500090E00E94BC226093100170931101809332
:105260001201909313018CEC90E00E94BC22609399
:10527000160170931701809318019093190180ED26
:1052800090E00E94BC2260931E0170931F018093E6
:1052900020019093210184ED90E00E94BC22609354
:1052A0001A0170931B0180931C0190931D01F999C1
:1052B000FECF88ED90E092BD81BDF89A80B58093D5
:1052C0003F01F999FECF89ED90E092BD81BDF89A3A
:1052D00080B580934401F999FECF85EF90E092BDAF
:1052E00081BDF89A80B5809345018AED90E00E94D7
:1052F000BC226093460170934701809348019093CC
:1053000049018EED90E00E94BC2260934A017093A7
:105310004B0180934C0190934D0182EE90E00E94EE
:10532000BC2260934E0170934F0180935001909383
:105330005101F999FECF86EE90E092BD81BDF89AB9
:1053400080B58093520187EE90E06BE772E20E9495
:105350005A0E609308017093090180930A0190939B
:105360000B018BEE90E06BE772E20E945A0E6093A5
:105370000C0170930D0180930E0190930F018FEE3D
:1053800090E06BE772E20E94800E90932701809379
:1053900026018AEF90E06BE772E20E94800E909304
:1053A0002901809328018CEF90E06BE772E20E9464
:1053B000800E90932B0180932A0181E08D1570F46B
:1053C000F999FECF8EEF90E092BD81BDF89A80B53D
:1053D00080937101E7E0DE1609F4FFC087E099E0F1
:1053E0000E946F20F2E0FD1508F458C088E293E0B7
:1053F00040E050E060E272E40E94D8228CE293E048
:1054000040E050E060E070E40E94D82288E493E03D
:1054100040E050E066E173E40E94D82280E293E02D
:1054200040E050E060E070E00E94D82284E293E027
:1054300040E050E060E070E00E94D82280E393E01A
:1054400040E050E060EA71E40E94D82284E393E0F7
:1054500040E050E060EA71E40E94D82288E393E0E3
:1054600040E050E060E273E40E94D8228CE393E0D5
:1054700040E050E060EA71E40E94D82280E493E0CA
:1054800040E050E068EC72E40E94D82284E493E0AB
:1054900040E050E060E273E40E94D82283E08D1582
:1054A000C0F181E793E040E050E064E173E40E94E2
:1054B000D82285E793E040E050E063E872E40E9480
:1054C000D82289E793E066E970E043E852E20E945F
:1054D000D80E8BE793E066E470E043E852E20E9466
:1054E000D80E8DE793E060E070E043E852E20E945E
:1054F000D80E8FE793E060E070E043E852E20E944C
:10550000D80E81E893E060E070E043E852E20E9448
:10551000D80EE4E0ED15C0F085E893E040E050E0FF
:1055200062E573E40E94D82289E893E040E050E00D
:1055300065EA73E40E94D8228DE893E040E050E0F1
:1055400064EB72E40E94D822F5E0FD15C0F081E919
:1055500093E040E050E060E070E00E94D82285E9EE
:1055600093E040E050E060E070E00E94D82289E9DA
:1055700093E040E050E060E070E00E94D82286E0D6
:105580008D1540F18DE993E040E050E060E772E472
:105590000E94D82285EA93E040E050E060E070E0AD
:1055A0000E94D82289EA93E040E050E060E070E099
:1055B0000E94D8228DEA93E040E050E060E070E085
:1055C0000E94D82281EA93E040E050E060E271E47A
:1055D0000E94D82280E00E9492240E9469720E9458
:1055E000642FDF91CF911F910F91FF90EF90DF908B
:1055F00008950F931F9320E030E010E02836310526
:1056000039F0F999FECF32BD21BDF89A80B5180F57
:105610002F5F3F4F88E02030380781F7F999FECFA0
:1056200088E690E092BD81BDF89A00B5F999FECF69
:1056300012BC11BCF89A80B5813029F4011719F415
:105640000E94922713C0F999FECF1FBA12BC11BC59
:1056500081E080BD0FB6F894FA9AF99A0FBE0E94C5
:10566000A82380E0011381E00E9492241F910F91F2
:105670000895FC018081918191FF42C093FF40C059
:10568000268D2130D9F0213030F0223011F1233035
:1056900009F036C02BC092FF33C023A134A145A12D
:1056A00056A1878DF999FECF1FBA32BD21BD80BDAD
:1056B0000FB6F894FA9AF99A0FBE22C092FF20C052
:1056C000678D70A183A194A143E852E20E94D80E95
:1056D00017C092FF15C0478D50A161A172A183A18F
:1056E00094A123E832E20E94B20E0AC083FF08C0F0
:1056F000428553856485758583A194A10E94D82233
:1057000020E030E040E02836310539F0F999FECF4D
:1057100032BD21BDF89A80B5480F2F5F3F4F88E01A
:105720002030380781F7F999FECF88E690E092BDE6
:1057300081BDF89A80B5481769F0F999FECF1FBA74
:1057400088E690E092BD81BD40BD0FB6F894FA9A0C
:10575000F99A0FBE0E949227E091F501F091F601AF
:1057600080810E94A9360895EF92FF920F931F93B4
:1057700080E092ECA1E0B0E080937A0190937B010D
:10578000A0937C01B0937D011092E9021092EA028D
:105790001092EB021092EC0288E19DEDA5EFB5E0CE
:1057A0008093760190937701A0937801B09379016B
:1057B00080E090E0A0EAB2E48093800190938101C0
:1057C000A0938201B093830180938401909385011B
:1057D000A0938601B09387018093880190938901FB
:1057E000A0938A01B0938B0180E090E0A0E8BFE332
:1057F00080938C0190938D01A0938E01B0938F01C3
:1058000080E090E0A8E4B3E480939001909391014C
:10581000A0939201B093930180939401909395018A
:10582000A0939601B093970180939801909399016A
:10583000A0939A01B0939B0120E030E040E252E453
:105840002093A0013093A1014093A2015093A301A2
:105850002093A4013093A5014093A6015093A70182
:105860002093A8013093A9014093AA015093AB0162
:105870000F2EF0E0EF2EF0E0FF2EF0EA0F2FF1E414
:105880001F2FF02DE0923510F09236100093371054
:105890001093381080E090E0AAE7B4E48093AC0164
:1058A0009093AD01A093AE01B093AF018093B0018E
:1058B0009093B101A093B201B093B3018093B4016E
:1058C0009093B501A093B601B093B7018093BC014A
:1058D0009093BD01A093BE01B093BF018093C0011E
:1058E0009093C101A093C201B093C3018093C401FE
:1058F0009093C501A093C601B093C70180E090E0EA
:10590000ACE5B2E48093151090931610A093171095
:10591000B093181080931D1090931E10A0931F1029
:10592000B093201080E090E8A4E4B3E480932510C5
:1059300090932610A0932710B093281080E090E059
:10594000A0E0B0E08093191090931A10A0931B1060
:10595000B0931C108093211090932210A0932310D9
:10596000B09324108093291090932A10A0932B10A9
:10597000B0932C1080E090E0A8ECB2E4809310018A
:1059800090931101A0931201B093130180E090E075
:10599000A8E4B2E48093160190931701A093180134
:1059A000B0931901E0921E01F0921F0100932001B3
:1059B0001093210180E090E4ACE9B5E480931A01F2
:1059C00090931B01A0931C01B0931D0183E0809371
:1059D0003F0186EE8093440188E28093450180E098
:1059E00090E0A0EEB0E48093460190934701A0932D
:1059F0004801B093490180E090E0A0E0B0E48093DA
:105A00004A0190934B01A0934C01B0934D01209318
:105A10004E0130934F0140935001509351012FEFAD
:105A20002093520110920C0110920D0110920E0160
:105A300010920F01109208011092090110920A01B0
:105A400010920B0181E090E0909327018093260152
:105A500086E990E0909329018093280110922B0110
:105A600010922A01209371010E94A8230E9469725A
:105A7000E091F501F091F60180810E94A9360E9423
:105A8000642F86EE98E00E947C201F910F91FF907A
:105A9000EF900895DF93CF930F92CDB7DEB7898350
:105AA0008AE690E1BE016F5F7F4F41E050E00E94C7
:105AB000D47E0F90CF91DF910895885C904022E0D2
:105AC0008835920768F464E670E00E94CA846F5FCC
:105AD0007F4F8BE299E00E94492180E20E944A2D8B
