:100000000C943C140C9467140C9467140C946714AF
:100010000C9467140C9467140C9467140C94671474
:100020000C9467140C9467140C9474D40C94EDD253
:100030000C9467140C9467140C9467140C94671454
:100040000C9467140C9486520C9467140C946714E7
:100050000C9467140C9467140C94BE510C94B0D19A
:100060000C9467140C9467140C9467140C94671424
:100070000C9467140C9467140C9467140C94671414
:100080000C9467140C9467140C9467140C94671404
:100090000C9467140C946714F9AC13AD2DADEAAD54
:1000A0005FBA5FBA5FBA5FBA5FBA5FBA5FBA5FBA88
:1000B0005FBA47AD76ADAAAD5FBA5FBA5FBA5FBA55
:1000C0005FBA5FBA5FBA5FBA5FBA5FBA5FBAC5AF0D
:1000D00024B083B0E2B041B1A0B1FFB15FBAE8B5DE
:1000E0006CB2CBB22AB389B3E8B347B4A6B411B5A6
:1000F0007CB55FBA5FBA5FBA5FBA5FBA93AEFBAE68
:1001000060AF3FB66BB6D4B63DB762B7B2B7E9B72A
:1001100020B879B8D4B82DB98CB9B6B987B75FBA59
:100120005FBA5FBA5FBA5FBA5FBA5FBA5FBA5FBA07
:100130005FBA5FBA5FBA2DAE5CAE5FBA5FBA5FBA44
:100140005FBA5FBA5FBA5FBA5FBA5FBA5FBABAAE98
:100150005FBA5FBA5FBAEFB928BA5FBA5FBA5FBA7F
:100160005FBAEBAC084AD73B3BCE016E84BCBFFD07
:10017000C12F3D6C74319ABD56833DDA3D00C77F77
:1001800011BED9E4BB4C3E916BAAAABE0000008010
:100190003F05A84CCDB2D44EB93836A9020C50B99F
:1001A000918688083CA6AAAA2ABE000000803F00CB
:1001B0000001001C001D001300FFFF1A001E001F9D
:1001C000001200FFFF1B00200021001100FFFF2490
:1001D00000FFFFFFFF0F000E001000220023000DA4
:1001E000000700060026004E6F6E6C696E2E2070B0
:1001F0006F736974696F6E2073746570733A005021
:100200006F736974696F6E2073746570733A00431D
:10021000757272656E7420706F736974696F6E3A6F
:10022000004C61737420636F6D6D616E6465642052
:10023000706F736974696F6E3A00536574204D690D
:1002400063726F7374657070696E6700486561747E
:10025000696E67204265640048656174696E672055
:10026000457874727564657200506F7346726F6D75
:1002700053746570733A005265616C44656C7461C7
:100280003A00436F6D7044656C74613A00464952A0
:100290004D574152455F4E414D453A526570657428
:1002A0006965725F302E3931204649524D574152AF
:1002B000455F55524C3A68747470733A2F2F6769D2
:1002C000746875622E636F6D2F72657065746965F1
:1002D000722F52657065746965722D4669726D770B
:1002E0006172652F2050524F544F434F4C5F56451B
:1002F0005253494F4E3A312E30204D414348494EDA
:10030000455F545950453A44656C746120455854D2
:1003100052554445525F434F554E543A3120524551
:100320005045544945525F50524F544F434F4C3AF9
:10033000320044656275673A006F6B000D0A004E2B
:10034000414E00494E46004572726F723A00496E46
:10035000666F3A005761726E696E673A0052657354
:10036000656E643A004563686F3A006F6B20005712
:10037000726F6E6720636865636B73756D004D699E
:100380007373696E6720636865636B73756D004690
:100390006F726D6174206572726F7200446F6E656A
:1003A000207072696E74696E672066696C650020E2
:1003B0005800205900205A002045002046002053B4
:1003C00000205000204900204A00205200534420C1
:1003D00072656164206572726F72004572726F722D
:1003E0003A6578706563746564206C696E65200099
:1003F00020676F742000736B69702000424C4B20A3
:1004000000737461727400506F77657255700045A7
:10041000787465726E616C20526573657400427207
:100420006F776E206F757420526573657400576125
:10043000746368646F6720526573657400536F66F8
:10044000747761726520526573657400556E6B6ECA
:100450006F776E20636F6D6D616E643A00467265F2
:10046000652052414D3A00583A0020583A00205930
:100470003A00205A3A0020453A00543A0020423AC5
:100480000020403A002054002040002042403A0022
:1004900020524157003A002F00202F00537065650D
:1004A000644D756C7469706C793A00466C6F774D69
:1004B000756C7469706C793A0046616E737065652D
:1004C000643A005072696E7465642066696C616D8F
:1004D000656E743A005072696E74696E6720746953
:1004E0006D653A006D2000206461797320002068FA
:1004F0006F7572732000206D696E00496E76616CB5
:10050000696420617263002C002000593A005A3A55
:100510000045303A0045313A004D53312C4D5332AD
:100520002050696E7300536574206F757470757414
:10053000200020746F20004820004C2000785F6D60
:10054000696E3A00785F6D61783A00795F6D696E27
:100550003A00795F6D61783A007A5F6D696E3A00B2
:100560007A5F6D61783A004A65726B3A00205A4AA8
:1005700065726B3A00206C696E65617220737465F8
:1005800070733A00207175616472617469632073DD
:10059000746570733A002C2073706565643D004586
:1005A0004550524F4D2075706461746564006C69EC
:1005B0006E656172204C3A002071756164726174DD
:1005C0006963204B3A004D6561737572656D656EA8
:1005D000742072657365742E004D65617375726564
:1005E0002F64656C74612028537465707329203DF5
:1005F000004D6561737572652F64656C7461203D93
:10060000004D65617375726564206F726967696E0C
:10061000207365742E204D6561737572656D656E0E
:10062000742072657365742E004F726967696E205D
:100630006D6561737572656D656E742063616E6E54
:100640006F74206265207365742E202055736520B9
:100650006F6E6C79205A2D43617274657369616E97
:100660002028737472616967687420757020616EE8
:100670006420646F776E29206D6F76656D656E748A
:100680007320616E642074727920616761696E2ED7
:1006900000496E76616C69642064656C74612063E6
:1006A0006F6F7264696E617465202D206D6F766561
:1006B0002069676E6F726564004C6576656C696E63
:1006C000672063616C633A00546F77657220313A3A
:1006D00000546F77657220323A00546F776572204C
:1006E000333A00416C706861204128323130293A38
:1006F00000416C706861204228333330293A004150
:100700006C7068612043283930293A0044656C7464
:10071000612052616469757320412830293A004490
:10072000656C7461205261646975732042283029B8
:100730003A0044656C7461205261646975732043AA
:100740002830293A004E6F206D6F766520696E2043
:1007500064656C7461207365676D656E742077697C
:100760007468203E2031207365676D656E742E209D
:10077000546869732073686F756C64206E65766564
:10078000722068617070656E20616E64206D6179A1
:1007900020636175736520612070726F626C656D96
:1007A00021005461726765744578747200546172F7
:1007B0006765744265643A00504944204175746F1E
:1007C00074756E6520737461727400206269617360
:1007D0003A200020643A2000206D696E3A20002003
:1007E0006D61783A2000204B753A20002054753A0C
:1007F000200020436C6173736963205049440020DA
:100800004B703A2000204B693A2000204B643A207C
:1008100000504944204175746F74756E652066619F
:10082000696C6564212054656D70657261747572C0
:100830006520746F206869676800504944204175DD
:10084000746F74756E65206661696C6564212074CF
:10085000696D656F757400504944204175746F74FB
:10086000756E652066696E69736865642021205025
:100870006C61636520746865204B702C204B692087
:10088000616E64204B6420636F6E7374616E747369
:1008900020696E2074686520436F6E6669677572A3
:1008A0006174696F6E2E68206F7220454550524FFB
:1008B0004D004D54454D503A0068656174656420A3
:1008C00062656400657874727564657220003A2010
:1008D00074656D702073656E736F722064656665F4
:1008E0006374003A20776F726B696E6700507269AB
:1008F0006E7465722073657420696E746F20647203
:10090000792072756E206D6F646520756E74696CE8
:10091000207265737461727421004175746F6C6527
:1009200076656C696E6720656E61626C6564004116
:1009300075746F6C6576656C696E67206469736148
:10094000626C6564005A2D70726F62652066616921
:100950006C6564005A2D70726F6265206D61783A23
:10096000005072696E746572206865696768743AD0
:100970000077616974004175746F6C6576656C20F1
:100980006163746976652028312F302900436F6ECA
:1009900066696775726174696F6E2073746F7265D2
:1009A0006420746F20454550524F4D2E00436F6EAA
:1009B00066696775726174696F6E206C6F616465DA
:1009C000642066726F6D20454550524F4D2E004396
:1009D0006F6E66696775726174696F6E2072657398
:1009E000657420746F2064656661756C74732E0085
:1009F00050726F746F636F6C2076657273696F6E7F
:100A0000206368616E6765642C207570677261642D
:100A1000696E6700457874722E004550523A302056
:100A2000004550523A3120004550523A322000459C
:100A300050523A3320004261756472617465004619
:100A4000696C616D656E74207072696E7465642086
:100A50005B6D5D005072696E7465722061637469CC
:100A60007665205B735D004D61782E20696E616351
:100A7000746976652074696D65205B6D732C303DFB
:100A80006F66665D0053746F702073746570706577
:100A90007220616674657220696E6163746976693B
:100AA0007479205B6D732C303D6F66665D00582055
:100AB000686F6D6520706F73205B6D6D5D005920F0
:100AC000686F6D6520706F73205B6D6D5D005A20DF
:100AD000686F6D6520706F73205B6D6D5D005820D1
:100AE0006D6178206C656E677468205B6D6D5D006C
:100AF00059206D6178206C656E677468205B6D6D40
:100B00005D005A206D6178206C656E677468205BAB
:100B10006D6D5D0058206261636B6C617368205B72
:100B20006D6D5D0059206261636B6C617368205B61
:100B30006D6D5D005A206261636B6C617368205B50
:100B40006D6D5D004D61782E206A65726B205B6D66
:100B50006D2F735D00416363656C65726174696FCD
:100B60006E205B6D6D2F735E325D00547261766531
:100B70006C20616363656C65726174696F6E205B84
:100B80006D6D2F735E325D005374657073207065F8
:100B900072206D6D004D61782E206665656472610E
:100BA0007465205B6D6D2F735D00486F6D696E67B6
:100BB000206665656472617465205B6D6D2F735D81
:100BC00000446961676F6E616C20726F64206C65B0
:100BD0006E677468205B6D6D5D00486F72697A6F37
:100BE0006E74616C20726164697573205B6D6D5DFC
:100BF000005365676D656E74732F7320666F722086
:100C00007072696E74696E67005365676D656E74A6
:100C1000732F7320666F722074726176656C005456
:100C20006F776572205820656E6473746F70206FE3
:100C30006666736574205B73746570735D00546FD2
:100C4000776572205920656E6473746F70206F66CB
:100C500066736574205B73746570735D00546F77A1
:100C60006572205A20656E6473746F70206F6666BB
:100C7000736574205B73746570735D004D61782ECD
:100C800020726164697573205B6D6D5D00436F72E6
:100C9000722E20646961676F6E616C2041205B6D0C
:100CA0006D5D00436F72722E20646961676F6E61C3
:100CB0006C2042205B6D6D5D00436F72722E20646C
:100CC0006961676F6E616C2043205B6D6D5D004FE5
:100CD0005053206F7065726174696F6E206D6F6420
:100CE00065205B303D4F66662C313D436C6173730C
:100CF00069632C323D466173745D004F5053206D23
:100D00006F7665206166746572207825207265743F
:100D100072616374205B255D004F5053206D696ED6
:100D20002E2064697374616E636520666F7220663D
:100D3000696C2E2072657472616374696F6E205BDA
:100D40006D6D5D004F5053207265747261637469FC
:100D50006F6E206C656E677468205B6D6D5D004F13
:100D600050532072657472616374696F6E206261A2
:100D7000636B6C617368205B6D6D5D004265642020
:100D800048656174204D616E61676572205B302D2E
:100D9000335D004265642050494420647269766581
:100DA000206D617800426564205049442064726976
:100DB0007665206D696E004265642050494420507C
:100DC0002D6761696E004265642050494420492DB9
:100DD0006761696E004265642050494420442D6774
:100DE00061696E0042656420504944206D6178203D
:100DF00076616C7565205B302D3235355D0073741E
:100E000065707320706572206D6D006D61782E20A5
:100E10006665656472617465205B6D6D2F735D003E
:100E20007374617274206665656472617465205BB9
:100E30006D6D2F735D00616363656C6572617469CC
:100E40006F6E205B6D6D2F735E325D00686561743F
:100E5000206D616E61676572205B302D335D0050DF
:100E60004944206472697665206D61780050494478
:100E7000206472697665206D696E00504944205087
:100E80002D6761696E2F646561642D74696D6500FD
:100E900050494420492D6761696E005049442044FF
:100EA0002D6761696E00504944206D61782076613C
:100EB0006C7565205B302D3235355D00582D6F66C1
:100EC00066736574205B73746570735D00592D6F74
:100ED0006666736574205B73746570735D0074651A
:100EE0006D702E2073746162696C697A6520746913
:100EF0006D65205B735D0074656D702E20666F728A
:100F00002072657472616374696F6E207768656EB4
:100F10002068656174696E67205B435D0064697376
:100F200074616E636520746F20726574726163749E
:100F3000207768656E2068656174696E67205B6DF7
:100F40006D5D00657874727564657220636F6F6C97
:100F50006572207370656564205B302D3235355DB8
:100F600000616476616E6365204B205B303D6F6687
:100F7000665D00616476616E6365204C205B303D88
:100F80006F66665D00534420436172642072656D34
:100F90006F766564005344204361726420696E7308
:100FA000657274656400534420696E6974206661DB
:100FB000696C006572726F722077726974696E670E
:100FC00020746F2066696C6500426567696E2066F3
:100FD000696C65206C69737400456E642066696C89
:100FE00065206C6973740046696C65206F70656E6E
:100FF00065643A002053697A653A0046696C652059
:1010000073656C65637465640066696C652E6F70EA
:10101000656E206661696C65640053442070726976
:101020006E74696E67206279746520004E6F74205B
:101030005344207072696E74696E67006F70656EDC
:10104000206661696C65642C2046696C653A2000F5
:1010500057726974696E6720746F2066696C653AAF
:101060002000446F6E6520736176696E6720666943
:101070006C652E0046696C652064656C65746564FA
:101080000044656C6574696F6E206661696C6564A7
:10109000004469726563746F72792063726561746C
:1010A0006564004372656174696F6E206661696C86
:1010B0006564005344206572726F72436F64653AD1
:1010C0000007061C151C140000002243141F1FE912
:1010D000105911AD111D120000000000006D12F535
:1010E0001201145114CD1400000000A00F5C006028
:1010F00009690010097900C0088C007008A200205E
:1011000008BD00D007DE008007050130073401E08C
:10111000066D019006B20140060702F0056D02A0BF
:1011200005E80250057B0300052B04B004F80460B9
:1011300004EB06C003350920037F0B8002650DE038
:1011400001B00E40011D0FF000480FC8006C0FA049
:1011500000ED0F60FFFE0F48FE0400801AD80098D3
:1011600008AC012007800250065403C80528045823
:1011700005FC040005D005B004A40668047807281F
:10118000044C08E8032009B003F4097003C80A38C6
:10119000039C0BF802700CB002440D6802180E0894
:1011A00002EC0E8801C00F8800F00F000004000060
:1011B0001B54006009640010097400C008840070AA
:1011C000089C002008B800D007D800800700013034
:1011D000072C01E00668019006AC0140060002F011
:1011E000056802A005E0025005740300052404B060
:1011F00004F0046004DC051004E406C00304087075
:101200000330092003780B8002600DE001A80E4036
:1012100001680FA000C00F0000E80F60FF0400701D
:101220000DD8004804AC0158038002D80254038052
:101230000228043802FC040002D005C801A4069864
:1012400001780770014C08480120091801F409F0E1
:1012500000C80AC8009C0BA000700C7000440D3838
:1012600000180E0000EC0EA8FFC00FE8FE000040C2
:101270001F450060094F0010095C00C0086B00703A
:10128000087D0020089200D007AC008007CC003019
:1012900007DE00E006230190065E014006A601F08D
:1012A00005FF01A0056D025005F30200059603B08D
:1012B000045A046004400510044806C0036E077019
:1012C00003A8082003EB09D002230B8002410C3055
:1012D00002390DE001040E9001A20E4001170FF03B
:1012E00000690FA000A20F5000C60F0000DD0FB074
:1012F000FFEB0F60FF0400681D4C00500B9400587A
:1013000009DC0050082401A8076C012807B401C0BB
:1013100006FC017006440228068C02F005D402B8CF
:10132000051C03880564035805AC033005F403105D
:10133000053C04E8048404C804CC04A80414059003
:10134000045C057004A4055804EC05380434062038
:10135000047C060804C406F0030C07D8035407C82D
:10136000039C07B003E40798032C088003740870FB
:1013700003BC085803040948034C093003940918B6
:1013800003DC090803240AF0026C0AE002B40AC86C
:1013900002FC0AB002440BA0028C0B8802D40B7032
:1013A000021C0C5802640C4002AC0C2802F40C1015
:1013B000023C0DF001840DD801CC0DB801140E983B
:1013C000015C0E7001A40E4801EC0E1801340FD818
:1013D000007C0F8800C40F0800FC0F000000000014
:1013E00000000000000000000000000000000000FD
:1013F00000000000000000000000000000000000ED
:101400000004000016D800C006AC0178058002C0B8
:1014100004540348042804E803FC049803D005504E
:1014200003A40618037807D8024C08A80220097004
:1014300002F4093802C80A08029C0BD001700C9013
:1014400001440D5001180EF800EC0E8800C00F008A
:10145000000400401D900060091C01B007A801D0E5
:101460000634023806C002C8054C036805D80318C4
:10147000056404D804F00498047C05600408063070
:1014800004940600042007D003AC07A803380880A2
:1014900003C408580350093003DC090803680AE054
:1014A00002F40AB802800B88020C0C6002980C301F
:1014B00002240DF801B00DC0013C0E8001C80E30B1
:1014C00001540FB800B40F2800E00F00000400081A
:1014D0001D900058091C01B007A801C8063402304D
:1014E00006C002C0054C036805D80318056404D083
:1014F00004F00498047C0560040806300494060097
:10150000042007D003AC07A80338088003C4085898
:101510000350093003DC090803680AD802F40AB052
:1015200002800B88020C0C6002980C3002240DF82B
:1015300001B00DC0013C0E8001C80E3001540FB83F
:1015400000B40F2800E00F00005344206572726F52
:1015500072206669786564005344206572726F7208
:1015600020646964206E6F74207265636F766572A3
:10157000210053442052656164204572726F7200ED
:1015800042696E6172793A00436F6D6D616E6442BB
:101590007566666572000000000000000000000033
:1015A00000000000000024F403D950C38EB1C2A291
:1015B0003D96828B3582127AE372816CCB66A8618C
:1015C000015DC758EB546151204E1E4B5648C14532
:1015D00059431A41013F093D2F3B7139CD37403600
:1015E000C93465331432D430A32F802E6B2D632C75
:1015F000672B752A8E29B028DC2710274B268F25CC
:10160000D9242B248223E0224322AC211A218D20CD
:101610000420801F001F841E0C1E971D261DB81C51
:101620004E1CE61B821B201BC11A641A0A1AB2192F
:101630005D190A19B9186A181C18D11788174017AC
:10164000FA16B51673163116F115B31576153A1547
:101650000015C7148F1458142214EE13BA138813EC
:1016600056132513F612C71299126C124012151256
:10167000EB11C1119811701148112111FB10D610F6
:10168000B1108D106910461024100210E10FC00F28
:10169000A00F800F610F420F230F060FE80ECB0E35
:1016A000AF0E930E770E5C0E410E270E0D0EF30D4E
:1016B000DA0DC10DA80D900D780D600D490D320D9C
:1016C0001B0D050DEF0CD90CC30CAE0C990C850C41
:1016D000700C5C0C480C350C210C0E0CFB0BE80B51
:1016E000D60BC40BB20BA00B8E0B7D0B6B0B5A0BE6
:1016F0004A0B390B290B180B080BF80AE90AD90A0F
:10170000CA0ABB0AAC0A9D0A8E0A800A710A630AD9
:10171000550A470A390A2C0A1E0A110A040AF7094F
:10172000EA09DD09D009C409B709AB099F09920983
:1017300087097B096F09630958094C094109360972
:101740002B09200915090A090009F508EB08E0082A
:10175000D608CC08C208B808AE08A4089A089008B1
:1017600087087D0874086B08610858084F08460808
:101770003D0834082C0823081A0812080908010833
:10178000F807F007E807E007D807D007C807C00741
:10179000B807B007A807A1070000420FA107160568
:1017A000D0030D038B022E02E801B2018601630112
:1017B00045012C0117010401F40049646C650049DE
:1017C000646C6500486F6D652044656C74610053FE
:1017D0007465707065722044697361626C65640041
:1017E0004B696C6C65640055706C6F6164696E6701
:1017F0002E2E2E005344207072696E742073746F05
:101800007070656420627920757365722E00000027
:101810002110422063308440A550C660E7700881E3
:1018200029914AA16BB18CC1ADD1CEE1EFF131125A
:10183000100273325222B5529442F772D662399333
:1018400018837BB35AA3BDD39CC3FFF3DEE36224AA
:10185000433420040114E664C774A44485546AA583
:101860004BB528850995EEE5CFF5ACC58DD553363A
:10187000722611163006D776F6669556B4465BB7D3
:101880007AA719973887DFF7FEE79DD7BCC7C4480A
:10189000E5588668A7784008611802282338CCC923
:1018A000EDD98EE9AFF9488969990AA92BB9F55A9A
:1018B000D44AB77A966A711A500A333A122AFDDB73
:1018C000DCCBBFFB9EEB799B588B3BBB1AABA66C6A
:1018D000877CE44CC55C222C033C600C411CAEEDC3
:1018E0008FFDECCDCDDD2AAD0BBD688D499D977E7A
:1018F000B66ED55EF44E133E322E511E700E9FFF13
:10190000BEEFDDDFFCCF1BBF3AAF599F788F8891C8
:10191000A981CAB1EBA10CD12DC14EF16FE18010AC
:10192000A100C230E3200450254046706760B983AF
:101930009893FBA3DAB33DC31CD37FE35EF3B102FC
:101940009012F322D2323542145277625672EAB5BF
:10195000CBA5A89589856EF54FE52CD50DC5E2344C
:10196000C324A01481046674476424540544DBA78F
:10197000FAB79987B8975FE77EF71DC73CD7D3269C
:10198000F2369106B01657667676154634564CD91F
:101990006DC90EF92FE9C899E9898AB9ABA94458EC
:1019A000654806782768C018E1088238A3287DCBEF
:1019B0005CDB3FEB1EFBF98BD89BBBAB9ABB754A3C
:1019C000545A376A167AF10AD01AB32A923A2EFD7F
:1019D0000FED6CDD4DCDAABD8BADE89DC98D267C8C
:1019E000076C645C454CA23C832CE01CC10C1FEFCF
:1019F0003EFF5DCF7CDF9BAFBABFD98FF89F176EDC
:101A0000367E554E745E932EB23ED10EF01E7C3C57
:101A10003E5E2B3D3F2F5B5D3B2C2A225C004E6FD0
:101A2000206572726F7220666F756E642E0043615E
:101A30006E2774206F70656E20726F6F74206469FA
:101A4000726563746F72792E00496E76616C696499
:101A500020666F726D61742C207265666F726D61A5
:101A6000742053442E004E6F20636172642C2077E3
:101A7000726F6E6720636869702073656C6563744C
:101A80002070696E2C206F72205350492070726F45
:101A9000626C656D3F0043616E277420616363650E
:101AA000737320534420636172642E20446F206E50
:101AB0006F74207265666F726D61742E0000000095
:101AC0000000000000000000FF00000100416374FE
:101AD000696F6E3A256C61000310270200C01C0379
:101AE00010270200C41C0100000100C81C020000F5
:101AF0000600CA1C03ED030400D61C03EE03040019
:101B0000DE1C03EF030400E61C03FA030400EE1CD2
:101B100003FB030400F61C03FC030400FE1C02008C
:101B2000000900061D0200000600181D0200000941
:101B300000241D5265717565737450617573653A43
:101B4000004E6F205344204361726400436F6F6CFA
:101B5000646F776E0050726568656174204142530E
:101B6000005072656865617420504C41008025000A
:101B70000040380000004B0000807000000096001C
:101B800000C0DA000000E10000002C010008B201F2
:101B90000000C2010000F401000084030090D003A3
:101BA0000000E803000008070020A1070000100E55
:101BB0000040420F0060E316000000000002000039
:101BC0000900361D481D4F1D561D5D1D4F6E004FEF
:101BD000666600596573004E6F00030004004E2FC7
:101BE0004100003A00206461797320004D696372FE
:101BF0006F202044656C7461202020202000426109
:101C00006E6742616E6700536C6F7742616E67006A
:101C1000446561642054696D650050494400507208
:101C2000696E74696E672E2E2E0020646566200032
:101C30000000003FCDCC4C3D0AD7A33B6F12033AC6
:101C4000526570657469657220302E39310020202C
:101C5000202020627920654D6F74696F6E20546575
:101C60006368004D6963726F202044656C74612065
:101C700020202020005072696E74657220726561A8
:101C800064792E0000401454040E15041C0000005A
:101C9000040A040000000000001F1F1F1F1F000097
:101CA000001F1111111F0000040A0A0A0E1F1F0E47
:101CB000001C1F11111F0000110A0411040A111148
:101CC000641D6B1D721D791D801D801D871D8E1D5D
:101CD000951D9C1DA31DAA1DB11DB81DBF1DC61DB0
:101CE000CD1DD41DDB1DE21DE91DF01DF71DFE1DE0
:101CF000051E0C1E131E1A1E211E281E2F1E361E08
:101D00003D1E441E4B1E801D521E591E601E671E26
:101D10006E1E751E7C1E831E801D8A1E911E981EBF
:101D20009F1EA61E801D521EAD1EB41EBB1EC21ECF
:101D3000C91ED01E9F1E801DD71E871DDE1EE51EDC
:101D4000EC1EF31EFA1E011F0000000400081F0015
:101D500000000400101F0000000400181F00000015
:101D60000400201F281F0000000000361F00000094
:101D70000000471F0000000000551F000000000089
:101D8000661F03E80300006D1F03F5030102781FBF
:101D900003F6030204841F03540402008F1F03F799
:101DA0000304009E1F03F4030102AA1F00000000A9
:101DB00000B31F0000000000C31F0000000000D39C
:101DC0001F0000000000D41F0000000000DD1F0005
:101DD00000000000ED1F0000000000FD1F000000DB
:101DE0000000FE1F000000000007200000000000AF
:101DF000172000000000002720000000000028201D
:101E00000000000000312000000000004120000020
:101E100000000051200000000000522000000000DF
:101E2000005B2000000000006B2000000000007B31
:101E30002000000000007C20000000000085200041
:101E40000000000095200000000000A52000000018
:101E50000000A62003FD030000AF20041F040000C3
:101E6000C1200448040000D3200337040000DF2011
:101E70000347040000EB200338040000F420033182
:101E8000040000022103420400001221043C04006B
:101E9000002221043D0400003221033A04000041E5
:101EA0002102502100005721034304000062210257
:101EB000091B00006E2102F41A0000792102101B98
:101EC0000000852102FB1A0000902102171B000070
:101ED0009C2102021B0000A721021E1B0000B6214C
:101EE000022C1B0000BF2102251B0000C82102D2CA
:101EF000210000D92102ED1A0000E12102EB2100AE
:101F000000F221020022000007220E2215221C22CC
:101F100023222A22312238223F2246224D225422D5
:101F20005B22622269227022436F6E666967757256
:101F30006174696F6E0073746F72656420696E20DE
:101F4000454550524F4D00436F6E6669677572612B
:101F500074696F6E006C6F6164656420662E204545
:101F60004550524F4D004261636B20010050726931
:101F70006E742066696C65005061757365205072DF
:101F8000696E740053746F70205072696E740043F0
:101F90006F6E74696E7565205072696E7400446569
:101FA0006C6574652066696C6500583A2578302048
:101FB0006D6D004D696E20656E6473746F703A25A7
:101FC0007378004D617820656E6473746F703A2584
:101FD00073580000593A257831206D6D004D696EB7
:101FE00020656E6473746F703A257379004D617863
:101FF00020656E6473746F703A25735900005A3A05
:10200000257832206D6D004D696E20656E647374A5
:102010006F703A25737A004D617820656E64737431
:102020006F703A25735A0000583A257830206D6D4C
:10203000004D696E20656E6473746F703A25737815
:10204000004D617820656E6473746F703A25735823
:102050000000593A257831206D6D004D696E20657C
:102060006E6473746F703A257379004D61782065E2
:102070006E6473746F703A25735900005A3A25786C
:1020800032206D6D004D696E20656E6473746F70E3
:102090003A25737A004D617820656E6473746F70B1
:1020A0003A25735A0000486F6D6520416C6C0053EF
:1020B00070656564204D756C2E3A256F6D2525255C
:1020C00000466C6F77204D756C2E203A256F662583
:1020D0002525005072656865617420504C410050A0
:1020E0007265686561742041425300436F6F6C6490
:1020F0006F776E0053657420746F204F7269676943
:102100006E0044697361626C6520737465707065FC
:1021100072004265642054656D702E3A2545620256
:10212000430054656D702E203020203A2545300242
:10213000430045787472756465722030204F66667E
:1021400000457874722E20706F736974696F6E0029
:1021500003F00302007722536574204F72696769A8
:102160006E005820506F732E204661737400582003
:10217000506F736974696F6E005920506F732E2011
:1021800046617374005920506F736974696F6E00F3
:102190005A20506F732E2046617374005A20506F7E
:1021A000736974696F6E00517569636B2053657450
:1021B00074696E677300506F736974696F6E004560
:1021C000787472756465720046616E20737065651F
:1021D000640002000007007B2253442043617264C4
:1021E00000446562756767696E670002000005005C
:1021F0008922436F6E66696775726174696F6E00DC
:1022000002000007009322A1220000000000B42277
:102210000000000000BA220000000000CA220000F6
:10222000000000CE220000000000D72200000000C5
:1022300000E0220000000000E9220000000000EDA4
:10224000220000000000FE220000000000FF22002B
:10225000000000000F230000000000132300000016
:1022600000002123000000000025230000000000E2
:10227000362300000000003C234323801D4A2351E5
:102280002358235F2366236D23801D74237B2382C1
:10229000238923801D902397239E23A523AC23B35A
:1022A00023052565632F25456302422565422F25B9
:1022B000456202005A3A257832004D756C3A256F16
:1022C0006D204275663A256F4200256F7300583ABB
:1022D000257830206D6D00593A257831206D6D00DC
:1022E0005A3A257832206D6D00256F730045313ADA
:1022F0002565302F25453002437E256F3000004292
:102300003A2565622F25456202437E256F620025CE
:102310006F73005072696E74696E672074696D65C1
:10232000002555740046696C616D656E742070728D
:10233000696E74656400255566206D00BA2300003F
:10234000000000C3230000000000D2230452040058
:1023500000E323031A040800F023031B040000FE1B
:1023600023031C0400000C24031D0400001A240392
:102370001E04000027240332040000332403330426
:1023800000003F2403340400004B24033504000004
:102390005724025F240000662402732400007A247C
:1023A00002832400008A2402932400009A24030656
:1023B000040000AA240307040000453A25783320CE
:1023C0006D6D003120636C69636B203D2031206DA1
:1023D0006D0046616E2073706565643A254673250D
:1023E0002525005475726E2046616E204F6666008A
:1023F0005365742046616E203235252525005365CE
:10240000742046616E2035302525250053657420E3
:1024100046616E20373525252500536574204661B9
:102420006E2046756C6C004563686F2020203A254D
:10243000646F00496E666F2020203A25646900456C
:1024400072726F7273203A2564650044727920724B
:10245000756E3A2564640047656E6572616C0002B2
:1024600000000400B924416363656C65726174699E
:102470006F6E000200000400C1244665656472614D
:102480007465000200000300C92445787472756405
:102490006572000200000F00CF2453746F72652034
:1024A000746F20454550524F4D004C6F616420665B
:1024B0002E20454550524F4D00801DED24F424FB45
:1024C00024801D022509251025801D17251E258025
:1024D0001D25252C2533253A25412548254F2556F0
:1024E000255D2564256B25722579258025872504A2
:1024F00010040000942502A5250000AC2502BA2591
:102500000000C125040A040000CB25040D040000CE
:10251000D425040E040000E0250416040000E8257C
:102520000413040000F1250429040000FE25042CF6
:102530000400000B26042B0400001626042A0400C5
:10254000002026042E0400002E26044D0400004125
:1025500026044C0400005226042D0400005E2604CC
:10256000220400006B2604230400007526042404C2
:1025700000007F2604250400008D260426040000A8
:102580009B26042F04000042617564726174653AF1
:10259000256F63005374657070657220496E6163C6
:1025A00074697665000320040200A7264D61782E29
:1025B00020496E616374697665000321040200ABF3
:1025C000265072696E743A25617A004D6F76653ACD
:1025D00025615A004A65726B2020203A25616A0005
:1025E0004D61783A25667A00486F6D653A25665ADE
:1025F0000053746570732F4D4D3A25536500537425
:102600006172742046523A255866004D6178204622
:10261000523A25584600416363656C3A255841009B
:10262000537461622E54696D653A2558770057617D
:10263000697420556E6974733A20255855206D6D64
:1026400000576169742054656D702E20255854021E
:102650004300436F6E74726F6C3A2558680044549F
:102660002F50494420503A25587000504944204981
:102670003A2558690050494420443A25586400449A
:1026800072697665204D696E3A25586D004472690D
:102690007665204D61783A25584D00504944204DCB
:1026A00061783A25584400AF26B626BD26C426CB0D
:1026B000260000000000DA260000000000E42600EA
:1026C00000000000F32600000000004469732E2083
:1026D00041667465723A256973005B735D20303D15
:1026E0004F6666004469732E2041667465723A2510
:1026F0006970005B735D20303D4F66660001290202
:1027000029042908291029202940298029012C027F
:102710002C01260226042608261026202640268084
:1027200026402C802C01230223042308231023207D
:102730002340238023012002200420082010202091
:102740002040208020102C202C012F022F042F0845
:102750002F102F202F402F802F7EFE7EFD7EFB7EB0
:10276000F77EEF7EDF7EBF7E7F000100009D271297
:1027700000020000AF274300030000F2270401031A
:102780000904F62718020309041028160303090494
:1027900028280C0001C10201803601813612010097
:1027A0000202000020C01683040001010203010997
:1027B000024300020100C0320904000001020201CC
:1027C000000524001001052401000104240206056F
:1027D00024060001070582030800400904010002E5
:1027E0000A000000070503024000000705840240BC
:1027F00000000403090418035400650065006E001E
:10280000730079006400750069006E006F000000BD
:10281000160355005300420020005300650072006B
:10282000690061006C0000000C03310032003300CD
:10283000340035000000494E46494E4954594E4136
:102840004ECDCCCC3D0AD7233C17B7D13877CC2B13
:10285000329595E6241FB14F0A000020410000C8C0
:102860004200401C4620BCBE4CCA1B0E5AAEC59D41
:1028700074001D8973ABA5D611241FBECFEFD0E223
:10288000DEBFCDBF12E0A0E0B1E0E6EAF8EB01E088
:102890000BBF02C007900D92A034B107D9F71BBE41
:1028A00014E1A0E4B2E001C01D92A23EB107E1F73D
:1028B00018E2C8E7D8E204C02297FE010E9403DCB8
:1028C000C237D107C9F70E94F3D40C9451DC0C94A1
:1028D0000000A0E0B0E0EFE6F4E10C9420DCEC01B5
:1028E0005B016115710519F0FB0191838083F990FB
:1028F0008F2D90E00E9407DC892BC9F7FDE2FF16BF
:1029000021F4F990EE24E39405C02BE2F21609F4C9
:10291000F990EE248E0101501040C80166E378E280
:1029200043E050E00E94F816892B01F58E010E5FFE
:102930001F4FC80169E378E245E050E00E94F816B5
:10294000892B19F48E01095F1F4FA114B10419F0EE
:10295000F50111830083E0FC04C070E090E080E8A2
:1029600014C070E090E080E86FEF08C1C8016EE32A
:1029700078E243E050E00E94F816892B69F4A11434
:10298000B10429F470E090E080EC6FE7F7C0229684
:10299000F501D183C083F6CF8824992440E050E02C
:1029A00060E070E0EF2DE053EA30A0F5F2E0EF2AAE
:1029B0008E2D90E09C0128703070E2FE06C0232B23
:1029C00079F50894811C911C2BC0232B19F00894D5
:1029D00081089108DB01CA0112E0880F991FAA1F24
:1029E000BB1F1A95D1F7480F591F6A1F7B1F440F51
:1029F000551F661F771F4E0F511D611D711D4839F0
:102A000029E9520729E9620729E1720748F084E0C1
:102A1000E82A06C0EE3F31F4E3FC39C098E0E92A29
:102A2000F990C0CFE53311F0E53189F529912D32C8
:102A300019F4E0E1EE2A05C02B3219F081E090E0B4
:102A400003C0299182E090E0E22FE053EA3018F0D1
:102A5000C81BD90B1CC020E030E0FCE020383F0749
:102A60005CF4C901880F991F880F991F280F391F1F
:102A7000220F331F2E0F311DE991E053EA3068F326
:102A8000E4FE03C0309521953F4F820E931ECE2C5D
:102A9000DD24E1FE07C0A114B10421F02197F50166
:102AA000D183C083CB01BA010E947FD87B018C0106
:102AB000F3E0CF22DD2423E0C216D10421F417FB7A
:102AC000109517F9109557016801C801B70120E06A
:102AD00030E040E050E00E94DFD7882309F44AC08C
:102AE00097FE0DC025E5E22E28E2F22E9094819407
:102AF00091089394C0E2D0E000E010E012C09DE69F
:102B0000E92E98E2F92EF6CFF701259135914591FE
:102B10005491C601B5010E948FDA5B016C018C1AD9
:102B20009D0A8C169D0684F7D595C7950F5F1F4F9C
:102B30000630110529F08CEF9FEFE80EF91EF1CF5A
:102B4000C501D6017C018D018C2D880F8D2D881F2C
:102B50008F3F51F0C601B50120E030E040E050E089
:102B60000E94DFD7882331F482E290E09093E11451
:102B70008093E0147E2D9F2D802F612F272F392FDA
:102B8000482F562FB901CA01CDB7DEB7ECE00C943F
:102B90003CDC2F923F925F926F927F928F929F9236
:102BA000AF92BF92CF92DF92EF92FF920F931F935B
:102BB000CF93DF938C011B01EA016115710519F0B8
:102BC000FB0191838083209749F0CE010297839780
:102BD00028F020E030E040E050E0F6C0F801A1909D
:102BE0008F018A2D90E00E9407DC892BB9F7FDE266
:102BF000AF1631F4F801A1908F015524539407C00A
:102C0000FBE2AF1619F4F801A1908F01552420972B
:102C100019F0C031D105C1F4F0E3AF1679F4F80131
:102C20008081883711F0883549F4F801A1800E5F62
:102C30001F4FF2E05F2AC0E1D0E006C0209721F4E8
:102C400080E3A816E9F427C0C830D10531F1C930B6
:102C5000D10524F4C230D10531F50CC0CA30D105FC
:102C600089F0C031D105F9F4C12CD12CE12CB8E0A8
:102C7000FB2E28C0C12CD12CE12CA0E4FA2E22C0BE
:102C8000CAE0D0E0FCECCF2EFCECDF2EFCECEF2E0B
:102C9000FCE0FF2E17C0C8E0D0E0C12CD12CE12C05
:102CA000E0E1FE2E0FC09E01442737FD4095542FD2
:102CB00060E070E080E090E80E94B8DBC901DA01D2
:102CC0006C017D0120E030E040E050E060E03E013A
:102CD000882477FC8094982C70EDB72EBA0CE9E02C
:102CE000EB1570F48A2D81548A3118F499ECB92EC1
:102CF00006C08A2D81568A3150F589EAB82EBA0C61
:102D00008B2D90E08C179D0714F56F3FE1F0C216F4
:102D1000D306E406F506B0F0CA01B901A401930197
:102D20000E9465DB9B01AC012B0D311D411D511D26
:102D30002130F0E03F07F0E04F07F0E85F0710F4C4
:102D400061E001C06FEFF801A1908F01C5CF2114A0
:102D5000310481F0662331F001501040F1011183FC
:102D6000008308C051FE1AC002501040F1011183C7
:102D7000008314C067FF12C050FC05C02FEF3FEF67
:102D80004FEF5FE704C020E030E040E050E882E22F
:102D900090E09093E1148093E01416C050FE08C0B8
:102DA00050954095309521953F4F4F4F5F4F0CC048
:102DB00057FF0AC082E290E09093E1148093E01400
:102DC0002FEF3FEF4FEF5FE7B901CA01DF91CF91DE
:102DD0001F910F91FF90EF90DF90CF90BF90AF9039
:102DE0009F908F907F906F905F903F902F9008956D
:102DF000FB01DC014150504088F08D9181341CF082
:102E00008B350CF4805E659161341CF06B350CF4ED
:102E1000605E861B611171F3990B0895881BFCCFCE
:102E2000FB01DC0102C001900D9241505040D8F7E7
:102E30000895FB01DC010D900020E9F71197019046
:102E40000D920020E1F70895FC018191861721F091
:102E50008823D9F7992708953197CF010895FB0169
:102E6000DC018D91019080190110D9F3990B08951F
:102E7000FB01DC0101900D920020E1F70895FB01B8
:102E8000DC014150504048F001900D920020C9F7FC
:102E900001C01D9241505040E0F70895FC0181E0CF
:102EA00090E00190061609F4CF010020D1F70197B8
:102EB0000895A0E0B0E0EFE5F7E10C9424DC7C019C
:102EC000EB018A01690109C0CE012196F60109953D
:102ED000F70181937F010150104001151105A1F701
:102EE000CDB7DEB7E8E00C9440DCBF92CF92DF9222
:102EF000EF92FF920F931F937B018C01FB010995C9
:102F0000B82EC8010196F7010995C82EC80102968E
:102F1000F7010995D82EC8010396F7010995982F56
:102F20006B2D7C2D8D2D1F910F91FF90EF90DF90D9
:102F3000CF90BF900895DF92EF92FF920F931F936F
:102F40007B018C01FB010995D82EC8010196F70180
:102F50000995982F8D2D1F910F91FF90EF90DF9085
:102F60000895A0E0B0E0E7EBF7E10C9424DCEC017D
:102F70007B018A01690109C0CE012196F7016191A7
:102F80007F01F60109950150104001151105A1F7C7
:102F9000CDB7DEB7E8E00C9440DCBF92CF92DF9271
:102FA000EF92FF920F931F93D52EC62EB72E790165
:102FB0008C01642FF9010995C80101966D2DF70167
:102FC0000995C80102966C2DF7010995C801039671
:102FD0006B2DF70109951F910F91FF90EF90DF90F6
:102FE000CF90BF900895DF92EF92FF920F931F93BF
:102FF000D72E7A018C01FA010995C80101966D2D31
:10300000F70109951F910F91FF90EF90DF900895C0
:103010009C01F999FECF32BD21BDF89A80B5089583
:103020009C01F999FECF1FBA32BD21BD60BD0FB61C
:10303000F894FA9AF99A0FBE0895089560911101D3
:103040007091120180911301909114016817790712
:1030500044F470931401609313018DE594E00E9491
:10306000582D0895BC01893191051CF469E170E087
:1030700005C0893C910514F068EC70E070938D10E8
:1030800060938C108BEA94E00E94582D0895EF9283
:10309000FF920F931F93CF93DF93EC01893191053A
:1030A0001CF4C9E1D0E006C081E0C53FD80714F0A8
:1030B000C4EFD1E0BE01882777FD8095982F0E944C
:1030C00081D87B018C0160918A1070918B108827C8
:1030D00077FD8095982F0E9481D89B01AC01C80193
:1030E000B7010E94E6D79B01AC01609186107091F8
:1030F000871080918810909189100E948FDA6093D8
:103100008610709387108093881090938910D093C5
:103110008B10C0938A108CE994E0BE010E94582D58
:10312000DF91CF911F910F91FF90EF9008950E9432
:103130002E539C018091110190911201281739079B
:1031400024F4309312012093110108950E948351B9
:1031500008952F923F924F925F926F927F928F923B
:103160009F92AF92BF92CF92DF92EF92FF920F9316
:103170001F93DF93CF93CDB7DEB728970FB6F894A0
:10318000DEBF0FBECDBFA090A30FB090A40FC09024
:10319000A50FD090A60F2090A70F3090A80F4090B9
:1031A000A90F5090AA0F8091AB0F9091AC0FA091F6
:1031B000AD0FB091AE0F89839A83AB83BC8320910E
:1031C000CB0F3091CC0F4091CD0F5091CE0F60902E
:1031D000CF0F7090D00F8090D10F9090D20F809130
:1031E000D30F9091D40FA091D50FB091D60F8D83AE
:1031F0009E83AF83B88780914F0F882359F40F2E99
:10320000F0E0EF2EF0E0FF2EF0E80F2FFFE31F2F8E
:10321000F02D0AC00F2EF0E7EF2EF2E4FF2EF1E2C0
:103220000F2FFDE31F2FF02DC601B5010E9419D706
:10323000A80197010E948FDAAB01BC0187E694E0F8
:1032400022E00E944D2E80914F0F882359F40F2EBB
:10325000F0E0EF2EF0E0FF2EF0E80F2FFFE31F2F3E
:10326000F02D0AC00F2EF0E7EF2EF2E4FF2EF1E270
:103270000F2FFDE31F2FF02DC201B101A401930117
:103280000E9419D7A80197010E948FDAAB01BC01F7
:103290008EE694E022E00E944D2E80914F0F88230D
:1032A00059F40F2EF0E0EF2EF0E0FF2EF0E80F2F94
:1032B000FFE31F2FF02D0AC00F2EF0E7EF2EF2E4F0
:1032C000FF2EF1E20F2FFDE31F2FF02D69817A8190
:1032D0008B819C812D813E814F8158850E9419D719
:1032E000A80197010E948FDAAB01BC0182E794E04C
:1032F00022E00E944D2E20919F0F3091A00F40910F
:10330000A10F5091A20FA0905C0FB0905D0FC090E4
:103310005E0FD0905F0F80914F0F882359F40F2ECE
:10332000F0E0EF2EF0E0FF2EF0E80F2FFFE31F2F6D
:10333000F02D0AC00F2EF0E7EF2EF2E4FF2EF1E29F
:103340000F2FFDE31F2FF02DCA01B9010E9481D874
:10335000A60195010E948FDAA80197010E948FDAD9
:10336000AB01BC0186E794E022E00E94892E2896FA
:103370000FB6F894DEBF0FBECDBFCF91DF911F9186
:103380000F91FF90EF90DF90CF90BF90AF909F9004
:103390008F907F906F905F904F903F902F90089507
:1033A0006F927F928F929F92AF92BF92CF92DF9255
:1033B000EF92FF920F931F93DF93CF9300D000D033
:1033C000CDB7DEB76091A0107091A1108091A210CE
:1033D0009091A3102FE632E143E85AE30E948FDA7E
:1033E0007B018C01CE01019661E870E044E050E081
:1033F00028E038E10E945917C801B70129813A81B4
:103400004B815C810E9419D7AB01BC0183EC94E035
:1034100022E00E944D2E84EE94E00E945C2CE0910C
:10342000C501F091C601638574858585968520E088
:1034300030E040E751E40E94EDD918160CF47AC050
:103440006624772443018DE790E068E078E10E94EC
:1034500075177B018C01E60CF71C081D191DC801AE
:10346000B70120E831E541E050E00E94DADB922E1E
:10347000832E742E652E622F732F842F952F20E8B4
:103480003EEA4EEF5FEF0E9465DB5B016C01AE0C24
:10349000BF1CC01ED11E85ED94E0492D582D672D0F
:1034A000762D0E94952DC601B50120E13EE040E059
:1034B00050E00E94DADB122F032FF42EE52E87EE68
:1034C00094E0422F502F6F2D7E2D0E94952D612F5D
:1034D000702F8F2D9E2D20EF31EF4FEF5FEF0E9469
:1034E00065DBA60EB71EC81ED91EC601B5012CE3AA
:1034F00030E040E050E00E94DADB8EEE94E0BA016A
:10350000A9010E94952D86EF94E00E946A2C0F90ED
:103510000F900F900F90CF91DF911F910F91FF901F
:10352000EF90DF90CF90BF90AF909F908F907F9063
:103530006F9008950FB6F8946091CC147091CD14EB
:103540008091CE149091CF140FBE20919C10309199
:103550009D1040919E1050919F10621B730B840B25
:10356000950B28EE33E040E050E00E94B8DBC90143
:10357000DA013C014D0167CF809142028823C1F0FE
:10358000109242020E94CF45809116018150809393
:103590001601882349F480911501833010F40E94AC
:1035A0005E3F85E08093160186EA93E10E94B0CCED
:1035B000089508C00E942C4E0E94BC1A86EA93E12E
:1035C0000E9430AB80913F0F8823A1F70895CF93DD
:1035D000DF9397FD10C0EC018F3F910521F01CF0A7
:1035E000CFEFD0E002C0009731F08091D90F886012
:1035F0008093D90F07C08091D90F877F8093D90F0F
:10360000C0E0D0E0662311F00E94D91A80914903EE
:1036100090E0C817D90729F089EB94E0BE010E9419
:10362000582DC0934903DF91CF910895EF92FF92F7
:103630000F931F93DF93CF930F92CDB7DEB78DE03B
:10364000898384EDE82E84E1F82EC7018E010F5F97
:103650001F4FB80141E050E00E948ED58AE0898377
:10366000C701B80141E050E00E948ED50F90CF9184
:10367000DF911F910F91FF90EF9008951F93182FE6
:10368000E0914E02F0914F0244A555A566A577A59D
:103690008AE794E022E00E944D2EE0914E02F091E4
:1036A0004F0240A951A962A973A989E994E020E0D9
:1036B0000E944D2E0E948C3CAB01BC018DE794E032
:1036C00022E00E944D2E40918F0150919001609117
:1036D00091017091920189E994E020E00E944D2EC1
:1036E000112391F080E994E061E070E00E946E2D7A
:1036F0006CEF7FE08091870190918801681B790BC6
:1037000085E994E00E946E2DE0918401F0E0EA5B8F
:10371000FC4F60818BE894E070E00E946E2DE09198
:103720001701EF3F29F4E0914E02F0914F02E08142
:10373000F0E0EA5BFC4F608181E894E070E00E9479
:103740006E2D0E94161B1F9108952F923F924F924B
:103750005F926F927F928F929F92AF92BF92CF9221
:10376000DF92EF92FF920F931F93DF93CF93CDB72A
:10377000DEB7E0970FB6F894DEBF0FBECDBF6C0189
:1037800080912002282F84FF22C0D6018C9182FDD7
:1037900009C081FF1CC016968D919C9117978F369A
:1037A0009105A9F00FB6F8948091CC149091CD14A6
:1037B000A091CE14B091CF140FBE80933E0390938E
:1037C0003F03A0934003B09341030C94C42BF60134
:1037D0000081118102FFC8C5808591858C319105DA
:1037E00009F43CC28D31910590F48430910518F4B0
:1037F0000297D0F52DC08431910509F428C2853196
:10380000910509F428C2049709F099C5D3C18338FA
:10381000910509F425C38438910568F48B35910529
:1038200009F460C28C35910509F460C28A359105AE
:1038300009F085C554C28538910509F470C48538EE
:10384000910508F473C38638910509F078C526C53B
:10385000C6010E947A7C882309F471C580E061E08A
:1038600041E00E94CC6C6BC58091A30F9091A40F96
:10387000A091A50FB091A60F89879A87AB87BC87C7
:103880008091A70F9091A80FA091A90FB091AA0FB6
:103890008D879E87AF87B88B8091AB0F9091AC0FCF
:1038A000A091AD0FB091AE0F898B9A8BAB8BBC8B77
:1038B000C6010E947A7C882309F441C5FE01319635
:1038C00088E0DF011D928A95E9F7F601828180FD8B
:1038D00005C020E030E040E050E007C0D6019796F8
:1038E0002D913D914D915C919A9780914F0F882336
:1038F00051F0CA01B90123E333E34BEC51E40E94D8
:103900008FDA9B01AC0129833A834B835C83F601F8
:10391000828181FD05C020E030E040E050E007C03A
:10392000D6019B962D913D914D915C919E978091F2
:103930004F0F882351F0CA01B90123E333E34BEC65
:1039400051E40E948FDA9B01AC012D833E834F83AB
:103950005887FE01759680E1DF011D928A95E9F78F
:103960008091A30F9091A40FA091A50FB091A60FE5
:103970008D8B9E8BAF8BB88F8091A70F9091A80FE6
:10398000A091A90FB091AA0F898F9A8FAB8FBC8F8E
:103990008091AB0F9091AC0FA091AD0FB091AE0F95
:1039A0008D8F9E8FAF8FB8A36091C70F7091C80F96
:1039B0008091C90F9091CA0F0E9481D820915C0F0D
:1039C00030915D0F40915E0F50915F0F0E948FDA32
:1039D00069A37AA38BA39CA3F601828182FFC7C04F
:1039E00087A490A8A1A8B2A880914F0F882351F076
:1039F000C501B40123E333E34BEC51E40E948FDAB9
:103A00004B015C016D897E898F89988D29853A8566
:103A10004B855C850E9418D76DA77EA78FA798ABB2
:103A2000698D7A8D8B8D9C8D2D853E854F8558892E
:103A30000E9418D72B013C01C501B40120E030E001
:103A400040E850E40E948FDAA50194010E948FDAC9
:103A50007B018C016DA57EA58FA598A99B01AC016A
:103A60000E948FDA9B01AC01C801B7010E9418D7F0
:103A70007B018C01C301B201A30192010E948FDA84
:103A80009B01AC01C801B7010E9418D70E94FCDA63
:103A90007B018C016DA57EA58FA598A9A30192013C
:103AA0000E94FAD99B01AC0117FB109517F91095EC
:103AB000C801B7010E94E6D77B018C01A8019701DC
:103AC0000E9449DB882329F08BEF94E00E946F2C41
:103AD00036C4D60118968D919C911997039721F4BD
:103AE00017FB109517F91095C501B40120E030E0DF
:103AF00040E050E00E94DFD7882344F417FB109584
:103B000017F91095B7FAB094B7F8B094C301B201A1
:103B1000A80197010E948FDA9B01AC016DA57EA5DB
:103B20008FA598A90E9418D720E030E040E05FE31D
:103B30000E948FDA69837A838B839C836DA57EA52F
:103B40008FA598A9A80197010E948FDA9B01AC016B
:103B5000C301B2010E9419D720E030E040E05FE3EA
:103B60000E948FDA6D837E838F8398870CC0698172
:103B70007A818B819C812D813E814F8158850E9465
:103B8000FAD94B015C01E0E0D60118968D919C9129
:103B90001997029709F4E1E0CE010996BE016B5E28
:103BA0007F4FAE014F5F5F4F95018401EE2E0E9463
:103BB0000F5BC5C30E94D91AF6012081318133FD04
:103BC00005C060E070E080E090E007C0D601939609
:103BD0006D917D918D919C91969732FF0BC0F6016E
:103BE000678D70A181A192A128EE33E040E050E002
:103BF0000E9465DB0FB6F894E090CC14F090CD14E1
:103C00000091CE141091CF140FBEE60EF71E081FC0
:103C1000191F04C00E942C4E0E94BC1A0FB6F894C3
:103C20008091CC149091CD14A091CE14B091CF146A
:103C30000FBE27013801481A590A6A0A7B0AD301C4
:103C4000C20180509449A543B74720F378C381E06F
:103C500080934F0F74C310924F0F71C3C8018873C4
:103C60009070892B11F080E008C0C80156E096954D
:103C700087955A95E1F78095817006FF08C01092EC
:103C80009F0F1092A00F1092A10F1092A20F8823E5
:103C900021F041E051E061E01EC0D6012D913C9140
:103CA000C90188739070892B09F43CC1C90143E0B4
:103CB000969587954A95E1F7582F5170C90134E0E0
:103CC000969587953A95E1F7682F617025FD02C0BA
:103CD00040E001C041E0852F0E94268123C110925F
:103CE000910F2DC381E08093910F29C3A090CB0F3A
:103CF000B090CC0FE090CD0FF090CE0F6090CF0F32
:103D00007090D00F8090D10F9090D20F2090D30F51
:103D10003090D40F4090D50F5090D60F03FF21C0A4
:103D2000F601228533854485558580914F0F882380
:103D300051F0CA01B90123E333E34BEC51E40E9493
:103D40008FDA9B01AC01CA01B9012091A30F309118
:103D5000A40F4091A50F5091A60F0E9418D75B01A8
:103D60007C0104FF23C0D6011E962D913D914D91FB
:103D70005C91519780914F0F882351F0CA01B9018E
:103D800023E333E34BEC51E40E948FDA9B01AC0157
:103D9000CA01B9012091A70F3091A80F4091A90F36
:103DA0005091AA0F0E9418D73B014C0105FF21C07A
:103DB000F601228933894489558980914F0F8823E0
:103DC00051F0CA01B90123E333E34BEC51E40E9403
:103DD0008FDA9B01AC01CA01B9012091AB0F309180
:103DE000AC0F4091AD0F5091AE0F0E9418D71B0140
:103DF0002C01B501C7019301A401710182010E9448
:103E00000078D6018C9186FF9AC256962D913D91ED
:103E10004D915C91599780914F0F882351F0CA01C1
:103E2000B90123E333E34BEC51E40E948FDA9B01A9
:103E3000AC01CA01B9012091E0013091E10140914A
:103E4000E2015091E3010E948FDA0E944ED8609304
:103E50009F0F7093A00F8093A10F9093A20F6FC23A
:103E60006091A30F7091A40F8091A50F9091A60F60
:103E70002091A70F3091A80F4091A90F5091AA0F40
:103E8000E090AB0FF090AC0F0091AD0F1091AE0F22
:103E900060908610709087108090881090908910A4
:103EA0000F2EF0E0AF2EF0E0BF2EF0E0CF2EF0E0CE
:103EB000DF2EF02DA0929210B0929310C092941029
:103EC000D0929510A0929610B0929710C092981030
:103ED000D092991000D000D0A090F401B090F501DC
:103EE000C090F601D090F701EDB7FEB7A182B28283
:103EF000C382D4820F2EF0E8AF2EFFE4BF2EF3EC86
:103F0000CF2EF7E4DF2EF02D0E94DE7F6092861028
:103F10007092871080928810909289100F900F9065
:103F20000F900F9080E00E94217809C280E00E94EB
:103F30003F7980E090E0A0E0B0E08093CB0F9093D9
:103F4000CC0FA093CD0FB093CE0F8093CF0F909353
:103F5000D00FA093D10FB093D20F8093D30F909333
:103F6000D40FA093D50FB093D60F6091FC01709140
:103F7000FD018091FE019091FF010E94D87980900F
:103F8000461090904710A0904810B09049100091B2
:103F90004A1010914B1020914C1030914D104091CF
:103FA0004210509143106091441070914510D90116
:103FB000C8017801FA2FEB2F081519052A053B05D2
:103FC0002CF4D501C4017401FA2FEB2FC701AF2FD8
:103FD000BE2F84179507A607B70714F4DB01CA01A3
:103FE0002C013D01481859086A087B085301420119
:103FF0002C013D01401A510A620A730A83017201C1
:104000002C013D01441A550A660A770A88EC96E0AD
:10401000B501A4010E94822D81ED96E0B801A701AF
:104020000E94822D8AED96E0B301A2010E94822DAA
:10403000D6018D919C91119792FF2AC15F968D9127
:104040009D910D90BC91A02D181619061A061B06FD
:104050000CF01EC18DE793E0B40140E158E10E94ED
:10406000F3170E94B52E282FF999FECF88E690E02D
:1040700092BD81BDF89A80B5281769F0F999FECFF5
:104080001FBA88E690E092BD81BD20BD0FB6F894BE
:10409000FA9AF99A0FBE8FE793E0B70140E158E131
:1040A0000E94F3170E94B52E282FF999FECF88E6BB
:1040B00090E092BD81BDF89A80B5281769F0F99912
:1040C000FECF1FBA88E690E092BD81BD20BD0FB63D
:1040D000F894FA9AF99A0FBE81E893E0B20140E1B0
:1040E00058E10E94F3170E94B52E282FF999FECFB0
:1040F00088E690E092BD81BDF89A80B5281709F452
:10410000C7C0F999FECF1FBA88E690E092BD81BD85
:1041100020BD0FB6F894FA9AF99A0FBEB9C0009173
:10412000D70F10E025E0169507952A95E1F7017065
:1041300080E00E943F791092930F1092940F10929A
:10414000950F1092960F1092970F1092980F109251
:10415000990F10929A0F20915E1030915F1040914C
:1041600060105091611020939B0F30939C0F4093EF
:104170009D0F50939E0F80E090E0A0E0B0E0809310
:10418000CB0F9093CC0FA093CD0FB093CE0F809315
:10419000CF0F9093D00FA093D10FB093D20F8093F5
:1041A000D30F9093D40FA093D50FB093D60F109246
:1041B000800F1092810F1092820F1092830F109235
:1041C000840F1092850F1092860F1092870F209304
:1041D000880F3093890F40938A0F50938B0F609113
:1041E000FC017091FD018091FE019091FF010E9400
:1041F000D87960915E1070915F10809160109091FD
:1042000061100E9481D820E030E040EC5FE30E9422
:104210008FDA0E944ED8AB01BC0180914A10909178
:104220004B10A0914C10B0914D106A017B01C81A3F
:10423000D90AEA0AFB0A8091421090914310A0919A
:104240004410B09145104A015B01881A990AAA0AE4
:10425000BB0A8091461090914710A0914810B091F0
:104260004910481B590B6A0B7B0B88EC96E00E94A7
:10427000822D81ED96E0B701A6010E94822D8AED84
:1042800096E0B501A4010E94822D802F0E943F7903
:1042900081E061E041E00E94268151C04091800FA1
:1042A0005091810F6091820F7091830F82E892E0AC
:1042B0000E94952D4091840F5091850F6091860F3B
:1042C0007091870F87E095E00E94952D4091880FAF
:1042D0005091890F60918A0F70918B0F87E095E064
:1042E0000E94822D40913610509137106091381005
:1042F0007091391087E792E00E94952D40913A1015
:1043000050913B1060913C1070913D1087E095E01A
:104310000E94952D40913E1050913F1060914010A9
:104320007091411087E095E00E94822D80E00E940C
:10433000217889E692E00E945C2C0E94A9180FB6B1
:10434000F8948091CC149091CD14A091CE14B0919A
:10435000CF140FBE80933E0390933F03A09340037E
:10436000B09341030C94C42B01FD02C00C94B12BFB
:10437000F601868197818337910509F475C78437E3
:10438000910508F086C08235910509F481C6833510
:10439000910508F03DC08931910509F442C18A3187
:1043A0009105C8F48631910509F41AC18731910548
:1043B00048F48431910509F407C1459711F00C9434
:1043C000C42B08C18731910509F410C1489711F039
:1043D0000C94C42B20C18C31910509F44CC18D3152
:1043E000910548F48A31910509F422C14B9711F0E7
:1043F0000C94C42B3AC18032910509F45DC18A3214
:10440000910509F46DC14E9711F00C94C42B42C173
:104410008836910509F4B8C189369105D8F48535F7
:10442000910509F458C68635910550F483359105F8
:1044300009F431C68435910511F00C94C42B2FC6B4
:104440008C35910509F468C68336910511F00C94FA
:10445000C42BABC68B36910509F410C68C3691057A
:1044600050F48936910509F456C28A36910511F047
:104470000C94C42BF1C58F36910509F4E2C682373E
:10448000910509F4F8C68D36910511F00C94C42BF2
:104490004CC28F3C910511F40C94712A803D91051A
:1044A000F0F58E3B910509F453C48F3B9105D8F488
:1044B0008737910509F4F3C68837910550F484379E
:1044C000910509F40DC58537910511F00C94C42BA5
:1044D000D5C68837910509F40EC78C38910511F0BF
:1044E0000C94C42BD4C18B3C910509F49AC78C3C25
:1044F000910550F4893C910509F407C78A3C910560
:1045000011F00C94C42B47C78D3C910511F40C9409
:104510006A2A8E3C910510F00C946D2A95C7F1E043
:1045200081399F0711F40C94C82A21E0823992073F
:1045300010F531E08F32930709F45AC541E080331A
:10454000940760F48C3D910511F40C94A32A8D3DE1
:10455000910511F00C94C42B0C94B32A51E08E35C4
:10456000950711F40C94152B8059914011F00C947F
:10457000C42B0C94C52AB1E0853F9B0711F40C9421
:10458000042BE1E0863F9E0768F4F1E082399F0743
:1045900011F40C94CB2A845F914011F00C94C42B3D
:1045A0000C94FC2A31E0873F930709F493C741E05C
:1045B000873F940710F40C94122B8751924011F00E
:1045C0000C94C42B0C941A2B8AE091E10E94A88AC7
:1045D0000C94C42B8AE091E10E94FB8D0C94C42BB7
:1045E0008AE091E10E94DE880C94C42B17FD02C082
:1045F0000C94C42B8AE091E160E00E94A599D60159
:10460000D3966D917C91D4978AE091E140E00E942D
:10461000118A0C94C42B8AE091E10E94F6880C94D4
:10462000C42B8AE091E160E00E94578D0C94C42B6A
:1046300012FD02C00C94C42BF601478D50A161A15C
:1046400072A180917411882311F40C94C42B4093AF
:104650006B1150936C1160936D1170936E118AE41D
:1046600091E10E9436970C94C42B8AE091E10E945C
:10467000EC890C94C42B17FD02C00C94C42BD601FA
:10468000D3966D917C91D4978AE091E10E94AD8997
:104690000C94C42B17FD02C00C94C42B8AE091E14A
:1046A00060E00E94A599F60163A974A98AE091E1EE
:1046B0000E945E890C94C42B17FD02C00C94C42B7D
:1046C0008AE091E160E00E94A599D601D3966D91B0
:1046D0007C91D4978AE091E10E9422890C94C42BAA
:1046E00012FD02C00C94C42B13FD02C00C94C42B09
:1046F000F601878D90A1A1A1B2A1B7FF02C00C94D1
:10470000C42B8F3F9105A105B10519F014F00C944D
:10471000C42BE3A0F4A020E030E0F901EE0FFF1F6E
:10472000E155FE4FE4918E2F90E08E159F0511F418
:104730000C94C42B2F5F3F4F2833310571F7F7FEE0
:1047400002C00C94C42B8E2D0E9406D0D6015F9619
:104750009C915F9790962C91EE2DF0E0092E0E948F
:1047600075D08E2D692F722F0E9423D286E295E09C
:10477000B7010E946E2DF601678D70A182E395E06E
:104780000E94582D0C94C42B0E94103F882311F0D6
:104790000C94C42B0FB6F8948091CC149091CD1446
:1047A000A091CE14B091CF140FBE80933E0390938E
:1047B0003F03A0934003B09341038091200283FF05
:1047C00002C00C94C42BD6018D919C91119793FD3E
:1047D0000CC092FF0CC05F968D919D910D90BC9185
:1047E000A02D0097A105B10511F40E94D91AF60178
:1047F0008081918192FD02C00C94C42B878C90A083
:10480000A1A0B2A09C012070317091FF1FC0068D45
:10481000232B11F410E011C010E0D6015A966D91CF
:104820007D918D919C915D9720E030E040E050E0DB
:104830000E94EDD918160CF411E0C501B4010E94D4
:1048400081D8402F212F0E947A439EC7E0914E02CB
:10485000F0914F020081232B11F410E00FC010E003
:10486000F601628D738D848D958D20E030E040E0FF
:1048700050E00E94EDD918160CF411E0C501B40106
:104880000E9481D8402F212F0E947A437DC70E9429
:10489000103F882309F078C70FB6F8948091CC14A4
:1048A0009091CD14A091CE14B091CF140FBE8093EF
:1048B0003E0390933F03A0934003B0934103809144
:1048C000200283FD61C7D6018D919C91119792FFC3
:1048D0005BC75F96ED90FD900D911C91929790FDB6
:1048E00002C0BB2410C0BB24F601628D738D848D81
:1048F000958D20E030E040E050E00E94EDD91816A0
:1049000014F4BB24B394C801B7010E9481D84B2D85
:104910000E94A03F39C783E0169507958A95E1F775
:10492000802F81700E943E1B2FC70E94103F88235A
:1049300009F02AC70FB6F8948091CC149091CD1449
:10494000A091CE14B091CF140FBE80933E039093EC
:104950003F03A0934003B09341038091200283FD65
:1049600013C786EA93E168E572E040E00E9436AA48
:1049700086EA93E10E94B1C40E94D91A80904E0247
:1049800090904F02D6012D913C91119731FF08C0B4
:104990005E968C91882321F418E1812E11E0912EEE
:1049A00032FF23C0F601E78CF0A001A112A1D401CF
:1049B000AC9030FD02C0BB2410C0BB24F601628D58
:1049C000738D848D958D20E030E040E050E00E94B2
:1049D000EDD9181614F4BB24B394C801B7010E9492
:1049E00081D84A2D2B2D0E947A43D4019C966D913B
:1049F0007D918D919C919F97D0962D913D914D9158
:104A00005C91D3970E9418D77B018C0120E030E0A5
:104A100040E050E00E94EDD918165CF4C801B701DF
:104A200020E030E040E050E40E94DFD7882364F4C7
:104A3000ABC6C801B70120E030E040E050EC0E9476
:104A4000EDD918160CF4A0C63324F40122A533A521
:104A500080A591A58217930714F4332433940FB6DD
:104A6000F8944090CC145090CD146090CE14709077
:104A7000CF140FBE49A65AA66BA67CA64424552483
:104A8000320110E00FB6F8942091CC143091CD147F
:104A90004091CE145091CF140FBE2DA33EA34FA32F
:104AA00058A7DA01C90129A53AA54BA55CA5821B27
:104AB000930BA40BB50B895E9340A040B04058F017
:104AC00080E00E943E1B8DA19EA1AFA1B8A589A741
:104AD0009AA7ABA7BCA70E94BC1A80914E029091E6
:104AE0004F028816990609F067C0D4019396ED909D
:104AF000FC9094971E141F040CF05EC0112309F063
:104B00005BC0332009F458C091966D917C919297C7
:104B1000882777FD8095982F0E9481D89B01AC0152
:104B2000F40164A575A586A597A50E94EDD9181670
:104B30000CF042C000D000D000D00DB71EB70F5F00
:104B40001F4F662777276E197F09882777FD809585
:104B5000982F0E9481D82091E0013091E10140918D
:104B6000E2015091E3010E948FDA0E944ED85B016E
:104B70006C01F40187859089A189B289F80180834D
:104B80009183A283B3831482158260E070E080E099
:104B900090E020E030E040E050E0EE24FF24870188
:104BA0000E94457711E02DB73EB72A5F3F4F0FB601
:104BB000F8943EBF0FBE2DBF41145104610471042F
:104BC00009F053C03320C9F0D401D0966D917D9186
:104BD0008D919C91D39720E030E040E85FE30E9404
:104BE00018D79B01AC01F40164A575A586A597A50E
:104BF0000E94EDD987FF1AC045CFD401D0966D91A0
:104C00007D918D919C91D39720E030E040E85FE367
:104C10000E9419D79B01AC01F40164A575A586A576
:104C200097A50E94DFD718160CF42CCFD4015F96FD
:104C30006D917C919097882777FD8095982F28EE2D
:104C400033E040E050E00E9465DB2B013C012DA1E8
:104C50003EA14FA158A5420E531E641E751E41145D
:104C600051046104710409F40DCFD301C2012DA1D7
:104C70003EA14FA158A5821B930BA40BB50B8050EE
:104C80009449A543B74708F4FDCE112309F44AC05F
:104C900080914E0290914F028816990609F042C009
:104CA00000D000D000D00DB71EB70F5F1F4FD4014A
:104CB00093966D917C919497882777FD8095982F96
:104CC0000E9481D82091E0013091E1014091E20100
:104CD0005091E3010E948FDA0E944ED85B016C0173
:104CE000F40187859089A189B289F8018083918335
:104CF000A283B3831482158260E070E080E090E0CC
:104D000020E030E040E050E0EE24FF2487010E94E4
:104D100045772DB73EB72A5F3F4F0FB6F8943EBF99
:104D20000FBE2DBF1092E6130FB6F8948091CC14ED
:104D30009091CD14A091CE14B091CF140FBE80935A
:104D40003E0390933F03A0934003B09341031CC5DF
:104D500023FD1AC586EA93E16CE472E040E00E940C
:104D600036AA86EA93E10E94B1C40E94D91AD601FC
:104D70008D919C91119792FF21C05F96ED90FD90CF
:104D80000D911C91929790FD02C0BB2410C0BB24D2
:104D9000F601628D738D848D958D20E030E040E0CA
:104DA00050E00E94EDD9181614F4BB24B394C80146
:104DB000B7010E9481D84B2D0E94A03F60918B01CA
:104DC00070918C0180918D0190918E0120918F01C5
:104DD0003091900140919101509192010E9418D719
:104DE0007B018C0120E030E040E050E00E94EDD9F2
:104DF00018165CF4C801B70120E030E040E450E44C
:104E00000E94DFD7882364F4BFC4C801B70120E043
:104E100030E040E450EC0E94EDD918160CF4B4C414
:104E20000FB6F894E090CC14F090CD140091CE140D
:104E30001091CF140FBE24C00FB6F8948091CC14FB
:104E40009091CD14A091CE14B091CF140FBE8E19B5
:104E50009F09A00BB10B895E9340A040B04070F059
:104E600080E00E943E1B0FB6F894E090CC14F090C6
:104E7000CD140091CE141091CF140FBE0E94BC1A15
:104E800060918B0170918C0180918D0190918E01C8
:104E900020E030E040E05FE30E9419D720918F01CD
:104EA0003091900140919101509192010E94DFD781
:104EB00087FDC2CF1092E6130FB6F8948091CC1400
:104EC0009091CD14A091CE14B091CF140FBE8093C9
:104ED0003E0390933F03A0934003B093410354C417
:104EE00023FD52C40FB6F8948090CC149090CD144A
:104EF000A090CE14B090CF140FBE0FB6F89480914E
:104F0000CC149091CD14A091CE14B091CF140FBEBB
:104F100088199909AA09BB09895E9340A040B0404D
:104F200070F080E00E943E1B0FB6F8948090CC1485
:104F30009090CD14A090CE14B090CF140FBE0E94CC
:104F4000BC1AC090C501D090C601D6011B96ED9049
:104F5000FD900D911C911E97C801B70120E030E033
:104F600040EF51E40E94EDD91816A4F4C801B7012E
:104F7000F60127813085418552850E9418D79F7799
:104F800020E030E040E85FE30E94EDD9181614F409
:104F9000772402C077247394C090C701D090C801D1
:104FA000D6011B96ED90FD900D911C911E97C801A6
:104FB000B70120E030E040EF51E40E94EDD918162F
:104FC0009CF4C801B701F6012781308541855285DF
:104FD0000E9418D79F7720E030E040E85FE30E940E
:104FE000EDD918160CF489CF772009F486CFCCC3FD
:104FF00012FD03C026E930E005C0D6015F962D9171
:105000003C91909713FD03C0CC24DD240AC0F60127
:10501000C3A0D4A0F2E0CF16D1041CF0B2E0CB2E96
:10502000D12CF601EE0FFF1FEB53FE4FE080F18015
:10503000B901882777FD8095982F0E9481D8AB0110
:10504000BC01F3E016950795FA95E1F70170C701E9
:105050002C2D0E94074098C312FD03C08FEF90E0F3
:1050600005C0D6015F968D919C919097612F6695B2
:105070006695669561700E94E71A86C3612F6695F2
:1050800066956695617080E090E00E94E71A7CC3A7
:105090001092920F79C381E08093920F75C312FF33
:1050A00014C0F601678D70A181A192A128EE33E0B2
:1050B00040E050E00E9465DB6093CA017093CB0131
:1050C0008093CC019093CD015FC30E94D91A81E0F7
:1050D0000E94598259C312FF16C0D6015F966D9186
:1050E0007D918D919C91929728EE33E040E050E0C5
:1050F0000E9465DB609342037093430380934403F3
:105100009093450341C310924203109243031092BF
:1051100044031092450338C303FF0DC0F601828596
:105120009385A485B5858093D4019093D501A093F0
:10513000D601B093D701D6018C9184FF0EC01E9684
:105140008D919D910D90BC91A02D8093D80190934D
:10515000D901A093DA01B093DB01F601808185FFCC
:105160000CC082899389A489B5898093DC019093CE
:10517000DD01A093DE01B093DF010E940E83D60112
:105180008C9186FF01C3E0914E02F0914F0256963A
:105190002D913D914D915C9159972187328743879D
:1051A000548780810E944944EFC212FD05C060E12E
:1051B00077E280E090E00BC0F601678D70A181A1DD
:1051C00092A128EE33E040E050E00E9465DB03FD51
:1051D000779A04FD769A05FD479A0FB6F894E09009
:1051E000CC14F090CD140091CE141091CF140FBEBA
:1051F000E60EF71E081F191F02C00E94A7820FB6F5
:10520000F8948091CC149091CD14A091CE14B091CB
:10521000CF140FBE27013801481A590A6A0A7B0ABF
:10522000D301C201805A9648A140B04030F3D60164
:105230003C9133FD779834FD769835FFA5C24798A9
:10524000A3C212FF04C0F601878D809320028091D3
:10525000200283FF99C260E070E080E090E040E0CF
:1052600020E00E947A4390C28DE892E00E946A2C6E
:105270000E94D01989C20E94A91886C217FF84C251
:10528000D601D3966D917C91D49786EA93E140E064
:105290000E9462AA86EA93E10E94B1C475C20E948C
:1052A000D91A84E495E00E945C2C1E9B03C08AE31B
:1052B00095E002C087E395E00E945C2C82E595E0D2
:1052C0000E945C2C1F9B03C08AE395E002C087E329
:1052D00095E00E945C2C80E695E00E945C2C649B2B
:1052E00003C08AE395E002C087E395E00E945C2C4E
:1052F0000E94161B49C212FF47C213FF45C2F601A6
:10530000878D63A10E9463A73FC203FF0DC0F60112
:1053100082859385A485B5858093000290930102D0
:10532000A0930202B0930302D6018C9184FF0EC0B9
:105330001E968D919D910D90BC91A02D809304029D
:1053400090930502A0930602B0930702F6018081B4
:1053500085FF0CC082899389A489B589809308024E
:1053600090930902A0930A02B0930B02D6018C918C
:1053700086FF0EC056968D919D910D90BC91A02DEB
:1053800080930C0290930D02A0930E02B0930F0233
:105390000E940E83F9C103FF0DC0F601828593853B
:1053A000A485B5858093100290931102A0931202F8
:1053B000B0931302D6018C9184FF0EC01E968D917E
:1053C0009D910D90BC91A02D809314029093150295
:1053D000A0931602B0931702F601808185FF0CC0DE
:1053E00082899389A489B5898093180290931902C0
:1053F000A0931A02B0931B02D6018C9186FF0EC0B7
:1054000056968D919D910D90BC91A02D80931C027C
:1054100090931D02A0931E02B0931F020E940E8360
:10542000B3C112FFB1C1F601278D30A141A152A134
:1054300012161306140615061CF020931501A4C1BC
:1054400081E080931501A0C180914E0290914F029E
:1054500012FD03C0FC01B59610C0F601878D90A126
:10546000A1A1B2A1B7FD90C10097A105B10519F4A2
:10547000EDE3F1E002C0E4E8F1E003FF0BC0D60188
:105480001A962D913D914D915C911D97228F338FEE
:10549000448F558FD6018C9184FF0AC01E962D91A2
:1054A0003D914D915C915197268F378F40A351A329
:1054B000D6018C9185FF0AC052962D913D914D9158
:1054C0005C91559722A333A344A355A3CF010E9417
:1054D000403C5AC10E94BA3A57C1C6010E94BB372C
:1054E00053C103FF0DC0F60182859385A485B58560
:1054F00080938E1090938F10A0939010B093911082
:10550000D6018C9186FF11C0E0914E02F0914F02BE
:1055100056962D913D914D915C915997278B308FE7
:10552000418F528F80810E94494440918E1050914A
:105530008F10609190107091911087E695E022E0B5
:105540000E94892E21C112FD05C024E630E040E012
:1055500050E005C0F601278D30A141A152A1C9013B
:105560000E94471811C112FD05C024E630E040E05A
:1055700050E007C0D6015F962D913D914D915C9111
:105580009297C9010E943218FFC00E94D91AFCC02C
:105590000E94EF78F9C010FF06C0F601C28CD38CD0
:1055A000E48CF58C08C0C0908610D0908710E090F5
:1055B0008810F0908910B801E4E076956795EA9537
:1055C000E1F76170A80175E0569547957A95E1F786
:1055D0004170980156E0369527955A95E1F721706C
:1055E00093E0169507959A95E1F7802F81708701D2
:1055F00076010E94BF81C8C080E00E94B7308DE86C
:1056000099E00E94892CC0C00E94C833E0914E02EC
:10561000F0914F0280810E9449448DEA99E00E94F6
:10562000892CB2C00E943638AFC08AE392E00E9453
:105630006A2CAAC04091AF0F5091B00F6091B10F8A
:105640007091B20F81E292E022E00E944D2E4091D3
:10565000B30F5091B40F6091B50F7091B60F87E002
:1056600095E022E00E944D2E4091B70F5091B80F67
:105670006091B90F7091BA0F87E095E022E00E9427
:10568000892E4091A30F5091A40F6091A50F7091A6
:10569000A60F8FE092E022E00E944D2E4091A70FCE
:1056A0005091A80F6091A90F7091AA0F87E095E023
:1056B00022E00E944D2E4091AB0F5091AC0F6091B3
:1056C000AD0F7091AE0F87E095E022E00E94892E29
:1056D0004091930F5091940F6091950F7091960F98
:1056E0008FEF91E00E94952D4091970F5091980F68
:1056F0006091990F70919A0F87E095E00E94952D27
:1057000040919B0F50919C0F60919D0F70919E0F47
:1057100087E095E00E94822D4091800F5091810F8B
:105720006091820F7091830F87EE91E00E94952D1A
:105730004091840F5091850F6091860F7091870F73
:1057400087E095E00E94952D4091880F5091890F38
:1057500060918A0F70918B0F87E095E00E94822DF7
:1057600013C011FF08C00E94D91AD6015E968C9111
:105770000E94494409C022FF07C08CE494E00E94C3
:105780005C2CC6010E94754CE0960FB6F894DEBF03
:105790000FBECDBFCF91DF911F910F91FF90EF9082
:1057A000DF90CF90BF90AF909F908F907F906F9041
:1057B0005F904F903F902F900895CF93DF9320C03C
:1057C00080917511882381F0888181FF04C08E81CA
:1057D0009F814D9739F18AE091E1BE010E944E8B85
:1057E000CE010E94324D03C0CE010E94A51BCE0106
:1057F0000E94434D0E94BC1A86EA93E10E9430AB9E
:1058000080913F0F882329F40E94D448EC0100972F
:1058100071F00E942C4E86EA93E10E9430AB2097F3
:1058200079F6E8CF8AE091E10E948D89D9CFDF91A6
:10583000CF910895CF93DF930E942C4E0E94D448BD
:10584000EC0186EA93E10E9430AB2097D1F0809181
:105850007511882381F0888181FF04C08E819F812A
:105860004D9791F08AE091E1BE010E944E8BCE01EE
:105870000E94324D03C0CE010E94A51BCE010E94A2
:10588000434D0E94A782D8CF8AE091E10E948D8982
:10589000EECFDF93CF930F92CDB7DEB7898384ED40
:1058A00094E1BE016F5F7F4F41E050E00E948ED5D2
:1058B0000F90CF91DF910895CF93DF93EC0102C059
:1058C0000E94492CFE01849121968823C9F7DF911B
:1058D000CF9108950E945C2C0E94161B08950F938F
:1058E0001F938C0187E493E00E945C2CC8010E9406
:1058F0006A2C1F910F9108950F931F938C018EE4D2
:1059000093E00E945C2CC8010E946A2C1F910F91A9
:1059100008950F931F938C018EE493E00E945C2CFA
:10592000C8010E945C2C1F910F9108950F931F9343
:105930008C0184E593E00E945C2CC8010E946A2CD3
:105940001F910F910895CF93DF93EC0103C021962F
:105950000E94492C88818823D1F7DF91CF91089547
:105960000F931F938B010E945C2CC8010E94A32CF3
:105970001F910F9108950F931F938B010E945C2C30
:10598000C8010E94A32C0E94161B1F910F9108951D
:10599000AF92BF92CF92DF92EF92FF920F931F933D
:1059A000DF93CF93CDB7DEB72B970FB6F894DEBF5A
:1059B0000FBECDBFC62ED92E1B869BE0A92EB12CC3
:1059C000AC0EBD1E6C2D9D2D2AE030E040E050E075
:1059D0000E94B8DBD52E7901042F152F80E3C80E65
:1059E000C801B7012AE030E040E050E00E9465DBEA
:1059F000C61AF501C2925F01CE2C7F2D802FE114D3
:105A0000F10401051105F1F6CF010E94A32C2B969C
:105A10000FB6F894DEBF0FBECDBFCF91DF911F91BF
:105A20000F91FF90EF90DF90CF90BF90AF900895CF
:105A3000EF92FF920F931F937A018B010E945C2CCF
:105A4000C801B7010E94C82C0E94161B1F910F911C
:105A5000FF90EF900895EF92FF920F931F937A01BA
:105A60008B010E945C2CC801B7010E94C82C1F91B9
:105A70000F91FF90EF900895EF92FF920F931F9375
:105A80007B018C0197FF0BC08DE20E94492C109581
:105A90000095F094E094E11CF11C011D111DC8015A
:105AA000B7010E94C82C1F910F91FF90EF900895AD
:105AB000EF92FF920F931F937B010E945C2C0027B3
:105AC000F7FC0095102FC801B7010E943C2D0E94E1
:105AD000161B1F910F91FF90EF900895EF92FF9288
