:100000000C941F140C944A140C944A140C944A1423
:100010000C944A140C944A140C944A140C944A14E8
:100020000C944A140C944A140C94A6D00C941FCF30
:100030000C944A140C944A140C944A140C944A14C8
:100040000C944A140C94574F0C944A140C944A1470
:100050000C944A140C944A140C94A64E0C94E2CDC1
:100060000C944A140C944A140C944A140C944A1498
:100070000C944A140C944A140C944A140C944A1488
:100080000C944A140C944A140C944A140C944A1478
:100090000C944A140C944A14C1A9DBA9F5A9B2AA7C
:1000A000F8B6F8B6F8B6F8B6F8B6F8B6F8B6F8B6E0
:1000B000F8B60FAA3EAA72AAF8B6F8B6F8B6F8B61D
:1000C000F8B6F8B6F8B6F8B6F8B6F8B6F8B65EAC64
:1000D000BDAC1CAD7BADDAAD39AE98AEF8B681B231
:1000E00005AF64AFC3AF22B081B0E0B03FB1AAB1F9
:1000F00015B2F8B6F8B6F8B6F8B6F8B62CAB94ABBD
:10010000F9ABD8B204B36DB3D6B3FBB34BB482B47E
:10011000B9B412B56DB5C6B525B64FB620B4F8B6AC
:10012000F8B6F8B6F8B6F8B6F8B6F8B6F8B6F8B65F
:10013000F8B6F8B6F8B6F8B6F5AAF8B6F8B6F8B65E
:10014000F8B6F8B6F8B6F8B6F8B6F8B6F8B653ABEF
:10015000F8B6F8B6F8B688B6C1B6F8B6F8B6F8B6D6
:10016000F8B6B3A9084AD73B3BCE016E84BCBFFDAD
:10017000C12F3D6C74319ABD56833DDA3D00C77F77
:1001800011BED9E4BB4C3E916BAAAABE0000008010
:100190003F05A84CCDB2D44EB93836A9020C50B99F
:1001A000918688083CA6AAAA2ABE000000803F00CB
:1001B0000001001C001D001300FFFF1A001E001F9D
:1001C000001200FFFF1B00200021001100FFFF2490
:1001D00000FFFFFFFF0F000E001000220023000DA4
:1001E000000700060026004E6F6E6C696E2E2070B0
:1001F0006F736974696F6E2073746570733A005021
:100200006F736974696F6E2073746570733A00431D
:10021000757272656E7420706F736974696F6E3A6F
:10022000004C61737420636F6D6D616E6465642052
:10023000706F736974696F6E3A00536574204D690D
:1002400063726F7374657070696E6700486561747E
:10025000696E6720457874727564657200506F73BB
:1002600046726F6D53746570733A005265616C44E9
:10027000656C74613A00436F6D7044656C74613AEB
:10028000004649524D574152455F4E414D453A5205
:10029000657065746965725F302E39312046495248
:1002A0004D574152455F55524C3A68747470733AD9
:1002B0002F2F6769746875622E636F6D2F7265707A
:1002C00065746965722F52657065746965722D4633
:1002D00069726D776172652F2050524F544F434FB2
:1002E0004C5F56455253494F4E3A312E30204D41C6
:1002F0004348494E455F545950453A44656C7461D2
:100300002045585452554445525F434F554E543A38
:10031000312052455045544945525F50524F544F39
:10032000434F4C3A320044656275673A006F6B0088
:100330000D0A004E414E00494E46004572726F72E2
:100340003A00496E666F3A005761726E696E673A9D
:1003500000526573656E643A004563686F3A006FDA
:100360006B200057726F6E6720636865636B7375EF
:100370006D004D697373696E6720636865636B73A5
:10038000756D00466F726D6174206572726F7200D8
:10039000446F6E65207072696E74696E672066695D
:1003A0006C6500205800205900205A00204500208C
:1003B0004600205300205000204900204A002052CF
:1003C0000053442072656164206572726F7200454B
:1003D00072726F723A6578706563746564206C69D7
:1003E0006E65200020676F742000736B69702000B9
:1003F000424C4B2000737461727400506F776572C9
:1004000055700045787465726E616C205265736535
:10041000740042726F776E206F7574205265736539
:1004200074005761746368646F6720526573657404
:1004300000536F667477617265205265736574004E
:10044000556E6B6E6F776E20636F6D6D616E643A83
:1004500000467265652052414D3A00583A002058D6
:100460003A0020593A00205A3A0020453A00543ABE
:100470000020423A0020403A002054002040002052
:1004800042403A0020524157003A002F00202F00EE
:1004900053706565644D756C7469706C793A00468B
:1004A0006C6F774D756C7469706C793A0046616E4B
:1004B00073706565643A005072696E746564206695
:1004C000696C616D656E743A005072696E74696E24
:1004D000672074696D653A006D200020646179734E
:1004E000200020686F7572732000206D696E0049CE
:1004F0006E76616C696420617263002C0020005983
:100500003A005A3A0045303A0045313A004D5331ED
:100510002C4D53322050696E7300536574206F75F3
:1005200074707574200020746F20004820004C20E7
:1005300000785F6D696E3A00785F6D61783A007996
:100540005F6D696E3A00795F6D61783A007A5F6D30
:10055000696E3A007A5F6D61783A004A65726B3A6B
:1005600000205A4A65726B3A00206C696E656172B0
:100570002073746570733A002071756164726174E0
:1005800069632073746570733A002C20737065651D
:10059000643D00454550524F4D207570646174654F
:1005A00064006C696E656172204C3A00207175615F
:1005B000647261746963204B3A004D6561737572B2
:1005C000656D656E742072657365742E004D65618E
:1005D000737572652F64656C74612028537465703F
:1005E0007329203D004D6561737572652F64656CDC
:1005F0007461203D004D65617375726564206F7292
:100600006967696E207365742E204D65617375721C
:10061000656D656E742072657365742E004F726926
:1006200067696E206D6561737572656D656E7420A6
:1006300063616E6E6F74206265207365742E202076
:10064000557365206F6E6C79205A2D436172746505
:100650007369616E202873747261696768742075AC
:100660007020616E6420646F776E29206D6F7665EF
:100670006D656E747320616E642074727920616799
:1006800061696E2E00496E76616C69642064656CE8
:10069000746120636F6F7264696E617465202D20D0
:1006A0006D6F76652069676E6F726564004C657664
:1006B000656C696E672063616C633A00546F77659F
:1006C0007220313A00546F77657220323A00546FCD
:1006D00077657220333A00416C706861204128329E
:1006E0003130293A00416C70686120422833333040
:1006F000293A00416C7068612043283930293A005A
:1007000044656C74612052616469757320412830BE
:10071000293A0044656C74612052616469757320E4
:10072000422830293A0044656C7461205261646942
:10073000757320432830293A004E6F206D6F76651F
:1007400020696E2064656C7461207365676D656EE9
:10075000742077697468203E2031207365676D6569
:100760006E742E20546869732073686F756C6420F2
:100770006E657665722068617070656E20616E646A
:10078000206D617920636175736520612070726FDF
:10079000626C656D2100546172676574457874728E
:1007A000005461726765744265643A0050494420A0
:1007B0004175746F74756E65207374617274002076
:1007C000626961733A200020643A2000206D696EEE
:1007D0003A2000206D61783A2000204B753A2000C5
:1007E0002054753A200020436C6173736963205074
:1007F000494400204B703A2000204B693A200020E9
:100800004B643A2000504944204175746F74756EF2
:1008100065206661696C6564212054656D70657240
:10082000617475726520746F20686967680050494B
:1008300044204175746F74756E65206661696C65DE
:1008400064212074696D656F7574005049442041BE
:1008500075746F74756E652066696E69736865641A
:10086000202120506C61636520746865204B702CDA
:10087000204B6920616E64204B6420636F6E73743B
:10088000616E747320696E2074686520436F6E66B4
:10089000696775726174696F6E2E68206F7220458A
:1008A0004550524F4D004D54454D503A00686561DA
:1008B000746564206265640065787472756465723D
:1008C00020003A2074656D702073656E736F72201E
:1008D000646566656374003A20776F726B696E6752
:1008E000005072696E7465722073657420696E744D
:1008F0006F206472792072756E206D6F646520754B
:100900006E74696C20726573746172742100417534
:10091000746F6C6576656C696E6720656E61626C7C
:100920006564004175746F6C6576656C696E6720EF
:1009300064697361626C6564005A2D70726F6265E0
:10094000206661696C6564005A2D70726F62652063
:100950006D61783A005072696E74657220686569DD
:100960006768743A0077616974004175746F6C65EB
:1009700076656C206163746976652028312F302993
:1009800000436F6E66696775726174696F6E20737C
:10099000746F72656420746F20454550524F4D2E20
:1009A00000436F6E66696775726174696F6E206C63
:1009B0006F616465642066726F6D20454550524FCB
:1009C0004D2E00436F6E66696775726174696F6E54
:1009D00020726573657420746F2064656661756C40
:1009E00074732E0050726F746F636F6C2076657233
:1009F00073696F6E206368616E6765642C20757023
:100A000067726164696E6700457874722E004550A4
:100A1000523A3020004550523A3120004550523A67
:100A20003220004550523A332000426175647261B1
:100A300074650046696C616D656E74207072696ED4
:100A4000746564205B6D5D005072696E7465722020
:100A5000616374697665205B735D004D61782E205B
:100A6000696E6163746976652074696D65205B6D7C
:100A7000732C303D6F66665D0053746F7020737425
:100A8000657070657220616674657220696E61635D
:100A9000746976697479205B6D732C303D6F66667E
:100AA0005D005820686F6D6520706F73205B6D6D01
:100AB0005D005920686F6D6520706F73205B6D6DF0
:100AC0005D005A20686F6D6520706F73205B6D6DDF
:100AD0005D0058206D6178206C656E677468205BDE
:100AE0006D6D5D0059206D6178206C656E6774686E
:100AF000205B6D6D5D005A206D6178206C656E67BE
:100B00007468205B6D6D5D0058206261636B6C6181
:100B10007368205B6D6D5D0059206261636B6C6171
:100B20007368205B6D6D5D005A206261636B6C6160
:100B30007368205B6D6D5D004D61782E206A657273
:100B40006B205B6D6D2F735D00416363656C657237
:100B50006174696F6E205B6D6D2F735E325D005442
:100B6000726176656C20616363656C65726174693E
:100B70006F6E205B6D6D2F735E325D005374657018
:100B80007320706572206D6D004D61782E20666552
:100B9000656472617465205B6D6D2F735D00486FD5
:100BA0006D696E67206665656472617465205B6D52
:100BB0006D2F735D00446961676F6E616C20726FA9
:100BC00064206C656E677468205B6D6D5D00486FB6
:100BD00072697A6F6E74616C2072616469757320DA
:100BE0005B6D6D5D005365676D656E74732F73206B
:100BF000666F72207072696E74696E670053656704
:100C00006D656E74732F7320666F722074726176D7
:100C1000656C00546F776572205820656E6473743C
:100C20006F70206F6666736574205B737465707394
:100C30005D00546F776572205920656E6473746F20
:100C400070206F6666736574205B73746570735D86
:100C500000546F776572205A20656E6473746F70EC
:100C6000206F6666736574205B73746570735D00D6
:100C70004D61782E20726164697573205B6D6D5DC6
:100C800000436F72722E20646961676F6E616C2021
:100C900041205B6D6D5D00436F72722E206469614F
:100CA000676F6E616C2042205B6D6D5D00436F72FB
:100CB000722E20646961676F6E616C2043205B6DEA
:100CC0006D5D004F5053206F7065726174696F6E77
:100CD000206D6F6465205B303D4F66662C313D436F
:100CE0006C61737369632C323D466173745D004FB0
:100CF0005053206D6F76652061667465722078258B
:100D00002072657472616374205B255D004F5053DF
:100D1000206D696E2E2064697374616E6365206650
:100D20006F722066696C2E207265747261637469DB
:100D30006F6E205B6D6D5D004F5053207265747255
:100D4000616374696F6E206C656E677468205B6D9B
:100D50006D5D004F50532072657472616374696FEA
:100D60006E206261636B6C617368205B6D6D5D000A
:100D70004265642048656174204D616E61676572EB
:100D8000205B302D335D004265642050494420646F
:100D900072697665206D617800426564205049442F
:100DA000206472697665206D696E0042656420502A
:100DB000494420502D6761696E00426564205049A6
:100DC0004420492D6761696E0042656420504944A2
:100DD00020442D6761696E004265642050494420BB
:100DE0006D61782076616C7565205B302D3235350C
:100DF0005D00737465707320706572206D6D006D99
:100E000061782E206665656472617465205B6D6D26
:100E10002F735D007374617274206665656472611E
:100E20007465205B6D6D2F735D00616363656C6538
:100E3000726174696F6E205B6D6D2F735E325D0041
:100E400068656174206D616E61676572205B302D2D
:100E5000335D00504944206472697665206D617885
:100E600000504944206472697665206D696E0050B7
:100E7000494420502D6761696E2F646561642D744B
:100E8000696D650050494420492D6761696E0050C5
:100E9000494420442D6761696E00504944206D61CA
:100EA000782076616C7565205B302D3235355D00BC
:100EB000582D6F6666736574205B73746570735D1F
:100EC00000592D6F6666736574205B73746570736B
:100ED0005D0074656D702E2073746162696C697A4F
:100EE000652074696D65205B735D0074656D702E9F
:100EF00020666F722072657472616374696F6E2010
:100F00007768656E2068656174696E67205B435D14
:100F10000064697374616E636520746F2072657418
:100F200072616374207768656E2068656174696EAC
:100F300067205B6D6D5D0065787472756465722005
:100F4000636F6F6C6572207370656564205B302D14
:100F50003235355D00616476616E6365204B205BE0
:100F6000303D6F66665D00616476616E6365204C3E
:100F7000205B303D6F66665D0053442043617264C0
:100F80002072656D6F76656400534420436172641E
:100F900020696E73657274656400534420696E69DC
:100FA00074206661696C006572726F722077726975
:100FB00074696E6720746F2066696C6500426567AE
:100FC000696E2066696C65206C69737400456E6497
:100FD0002066696C65206C6973740046696C6520D5
:100FE0006F70656E65643A002053697A653A004611
:100FF000696C652073656C65637465640066696C13
:10100000652E6F70656E206661696C65640053447F
:10101000207072696E74696E672062797465200051
:101020004E6F74205344207072696E74696E67004D
:101030006F70656E206661696C65642C2046696C12
:10104000653A200057726974696E6720746F206674
:10105000696C653A2000446F6E6520736176696E35
:10106000672066696C652E0046696C652064656C56
:10107000657465640044656C6574696F6E206661B3
:10108000696C6564004469726563746F727920638A
:10109000726561746564004372656174696F6E2086
:1010A0006661696C6564005344206572726F7243B7
:1010B0006F64653A00071C151C14000000224314DD
:1010C0001F1FDC104C11A0111012000000000000C6
:1010D0006012E812F4134414C01400000000A00FC2
:1010E0005C006009690010097900C0088C00700874
:1010F000A2002008BD00D007DE00800705013007F0
:101100003401E0066D019006B20140060702F005C9
:101110006D02A005E80250057B0300052B04B00416
:10112000F8046004EB06C003350920037F0B80023E
:10113000650DE001B00E40011D0FF000480FC80022
:101140006C0FA000ED0F60FFFE0F48FE0400801A38
:10115000D8009808AC012007800250065403C80547
:1011600028045805FC040005D005B004A406680452
:10117000780728044C08E8032009B003F409700339
:10118000C80A38039C0BF802700CB002440D6802C8
:10119000180E0802EC0E8801C00F8800F00F000046
:1011A0000400001B54006009640010097400C008AA
:1011B000840070089C002008B800D007D800800781
:1011C000000130072C01E00668019006AC014006E2
:1011D0000002F0056802A005E00250057403000556
:1011E0002404B004F0046004DC051004E406C00329
:1011F0000408700330092003780B8002600DE001C1
:10120000A80E4001680FA000C00F0000E80F60FFAB
:101210000400700DD8004804AC0158038002D802C5
:101220005403800228043802FC040002D005C801DF
:10123000A4069801780770014C084801200918019C
:10124000F409F000C80AC8009C0BA000700C7000E4
:10125000440D3800180E0000EC0EA8FFC00FE8FE89
:101260000000401F450060094F0010095C00C008E5
:101270006B0070087D0020089200D007AC0080074A
:10128000CC003007DE00E006230190065E01400638
:10129000A601F005FF01A0056D025005F30200054F
:1012A0009603B0045A046004400510044806C003C5
:1012B0006E077003A8082003EB09D002230B8002FD
:1012C000410C3002390DE001040E9001A20E4001E4
:1012D000170FF000690FA000A20F5000C60F00000A
:1012E000DD0FB0FFEB0F60FF0400681D4C00500BDA
:1012F00094005809DC0050082401A8076C01280755
:10130000B401C006FC017006440228068C02F005F8
:10131000D402B8051C03880564035805AC033005E6
:10132000F40310053C04E8048404C804CC04A804B5
:10133000140590045C057004A4055804EC053804F9
:10134000340620047C060804C406F0030C07D80306
:101350005407C8039C07B003E40798032C088003D4
:1013600074087003BC085803040948034C0930038F
:1013700094091803DC090803240AF0026C0AE0024D
:10138000B40AC802FC0AB002440BA0028C0B88020B
:10139000D40B70021C0C5802640C4002AC0C2802E6
:1013A000F40C10023C0DF001840DD801CC0DB801F5
:1013B000140E98015C0E7001A40E4801EC0E180189
:1013C000340FD8007C0F8800C40F0800FC0F000009
:1013D000000000000000000000000000000000000D
:1013E00000000000000000000000000000000000FD
:1013F0000000000004000016D800C006AC0178050B
:101400008002C004540348042804E803FC04980341
:10141000D0055003A40618037807D8024C08A80288
:1014200020097002F4093802C80A08029C0BD00196
:10143000700C9001440D5001180EF800EC0E88005D
:10144000C00F00000400401D900060091C01B0079F
:10145000A801D00634023806C002C8054C0368054E
:10146000D80318056404D804F00498047C056004CB
:1014700008063004940600042007D003AC07A80334
:1014800038088003C408580350093003DC090803F6
:10149000680AE002F40AB802800B88020C0C6002B1
:1014A000980C3002240DF801B00DC0013C0E8001F3
:1014B000C80E3001540FB800B40F2800E00F000030
:1014C0000400081D900058091C01B007A801C806B7
:1014D00034023006C002C0054C036805D803180565
:1014E0006404D004F00498047C0560040806300409
:1014F000940600042007D003AC07A8033808800333
:10150000C408580350093003DC090803680AD802EC
:10151000F40AB002800B88020C0C6002980C3002B6
:10152000240DF801B00DC0013C0E8001C80E300141
:10153000540FB800B40F2800E00F0000534420659A
:1015400072726F7220666978656400534420657218
:10155000726F7220646964206E6F74207265636FAD
:101560007665722100534420526561642045727291
:101570006F720042696E6172793A00436F6D6D61FE
:101580006E6442756666657200000000000000002F
:1015900000000000000000000024F403D950C38EB6
:1015A000B1C2A23D96828B3582127AE372816CCBF6
:1015B00066A861015DC758EB546151204E1E4B5621
:1015C00048C14559431A41013F093D2F3B7139CD6F
:1015D000374036C93465331432D430A32F802E6B94
:1015E0002D632C672B752A8E29B028DC2710274BFA
:1015F000268F25D9242B248223E0224322AC211AD2
:10160000218D200420801F001F841E0C1E971D2684
:101610001DB81C4E1CE61B821B201BC11A641A0A33
:101620001AB2195D190A19B9186A181C18D1178845
:10163000174017FA16B51673163116F115B315764D
:10164000153A150015C7148F1458142214EE13BA46
:1016500013881356132513F612C71299126C1240F1
:10166000121512EB11C1119811701148112111FBC3
:1016700010D610B1108D106910461024100210E120
:101680000FC00FA00F800F610F420F230F060FE84E
:101690000ECB0EAF0E930E770E5C0E410E270E0D85
:1016A0000EF30DDA0DC10DA80D900D780D600D49EA
:1016B0000D320D1B0D050DEF0CD90CC30CAE0C99A2
:1016C0000C850C700C5C0C480C350C210C0E0CFBC2
:1016D0000BE80BD60BC40BB20BA00B8E0B7D0B6B68
:1016E0000B5A0B4A0B390B290B180B080BF80AE99C
:1016F0000AD90ACA0ABB0AAC0A9D0A8E0A800A7174
:101700000A630A550A470A390A2C0A1E0A110A04F2
:101710000AF709EA09DD09D009C409B709AB099F2D
:1017200009920987097B096F09630958094C094126
:101730000936092B09200915090A090009F508EBE2
:1017400008E008D608CC08C208B808AE08A4089A71
:1017500008900887087D0874086B08610858084FCE
:101760000846083D0834082C0823081A08120809FE
:10177000080108F807F007E807E007D807D007C80E
:1017800007C007B807B007A807A1070000420FA1CC
:10179000071605D0030D038B022E02E801B2018665
:1017A00001630145012C0117010401F40049646C37
:1017B000650049646C6500486F6D652044656C7414
:1017C0006100537465707065722044697361626C66
:1017D0006564004B696C6C65640055706C6F616486
:1017E000696E672E2E2E005344207072696E74202D
:1017F00073746F7070656420627920757365722EE2
:101800000000002110422063308440A550C660E7EC
:1018100070088129914AA16BB18CC1ADD1CEE1EFA5
:10182000F13112100273325222B5529442F772D63D
:1018300062399318837BB35AA3BDD39CC3FFF3DEF5
:10184000E36224433420040114E664C774A444858D
:10185000546AA54BB528850995EEE5CFF5ACC58D45
:10186000D55336722611163006D776F6669556B4DD
:10187000465BB77AA719973887DFF7FEE79DD7BC95
:10188000C7C448E5588668A778400861180228232D
:1018900038CCC9EDD98EE9AFF9488969990AA92BE5
:1018A000B9F55AD44AB77A966A711A500A333A127D
:1018B0002AFDDBDCCBBFFB9EEB799B588B3BBB1A35
:1018C000ABA66C877CE44CC55C222C033C600C41CD
:1018D0001CAEED8FFDECCDCDDD2AAD0BBD688D4985
:1018E0009D977EB66ED55EF44E133E322E511E701D
:1018F0000E9FFFBEEFDDDFFCCF1BBF3AAF599F78D5
:101900008F8891A981CAB1EBA10CD12DC14EF16F85
:10191000E18010A100C230E32004502540467067EA
:1019200060B9839893FBA3DAB33DC31CD37FE35E16
:10193000F3B1029012F322D232354214527762563A
:1019400072EAB5CBA5A89589856EF54FE52CD50D26
:10195000C5E234C324A0148104667447642454058A
:1019600044DBA7FAB79987B8975FE77EF71DC73CB6
:10197000D7D326F2369106B01657667676154634DA
:10198000564CD96DC90EF92FE9C899E9898AB9ABC6
:10199000A94458654806782768C018E1088238A32A
:1019A000287DCB5CDB3FEB1EFBF98BD89BBBAB9A56
:1019B000BB754A545A376A167AF10AD01AB32A927A
:1019C0003A2EFD0FED6CDD4DCDAABD8BADE89DC966
:1019D0008D267C076C645C454CA23C832CE01CC1CA
:1019E0000C1FEF3EFF5DCF7CDF9BAFBABFD98FF8F6
:1019F0009F176E367E554E745E932EB23ED10EF01A
:101A00001E7C3C3E5E2B3D3F2F5B5D3B2C2A225CC7
:101A1000004E6F206572726F7220666F756E642E55
:101A20000043616E2774206F70656E20726F6F7453
:101A3000206469726563746F72792E00496E7661F5
:101A40006C696420666F726D61742C207265666FBC
:101A5000726D61742053442E004E6F206361726476
:101A60002C2077726F6E6720636869702073656CD5
:101A70006563742070696E2C206F7220535049206A
:101A800070726F626C656D3F0043616E27742061F8
:101A9000636365737320534420636172642E204432
:101AA0006F206E6F74207265666F726D61742E00A8
:101AB0000000000000000000000000FF0000010026
:101AC000416374696F6E3A256C6100031027020050
:101AD000B31C0310270200B71C0100000100BB1C4F
:101AE0000200000600BD1C03ED030400C91C03EE48
:101AF000030400D11C03EF030400D91C03FA030400
:101B000000E11C03FB030400E91C03FC030400F1D7
:101B10001C0200000900F91C02000005000B1D0258
:101B200000000900151D526571756573745061756B
:101B300073653A004E6F2053442043617264004342
:101B40006F6F6C646F776E005072656865617420AA
:101B5000414253005072656865617420504C4100E9
:101B60008025000040380000004B0000807000001D
:101B700000960000C0DA000000E10000002C010027
:101B800008B2010000C2010000F40100008403005B
:101B900090D0030000E803000008070020A1070020
:101BA00000100E0040420F0060E31600000000002D
:101BB0000200000900271D391D401D471D4E1D4F05
:101BC0006E004F666600596573004E6F0003000497
:101BD000004E2F4100003A00206461797320004DCF
:101BE0006963726F202044656C746120202020207E
:101BF0000042616E6742616E6700536C6F774261AD
:101C00006E6700446561642054696D650050494405
:101C1000005072696E74696E672E2E2E0020646506
:101C20006620000000003FCDCC4C3D0AD7A33B6F9F
:101C300012033A526570657469657220302E39312D
:101C4000002020202020627920654D6F74696F6E1E
:101C50002054656368004D6963726F202044656C91
:101C600074612020202020005072696E74657220FB
:101C700072656164792E0000401454040E15041C32
:101C8000000000040A040000000000001F1F1F1FC6
:101C90001F0000001F1111111F0000040A0A0A0E84
:101CA0001F1F0E001C1F11111F0000110A04110438
:101CB0000A1111551D5C1D631D6A1D711D711D7872
:101CC0001D7F1D861D8D1D941D9B1DA21DA91DB070
:101CD0001DB71DBE1DC51DCC1DD31DDA1DE11DE8A0
:101CE0001DEF1DF61DFD1D041E0B1E121E191E20CC
:101CF0001E271E2E1E351E3C1E711D431E4A1E51E0
:101D00001E581E5F1E661E6D1E741E711D7B1E8278
:101D10001E891E901E711D431E971E9E1EA51EAC81
:101D20001EB31EBA1E891E711DC11E781DC81ECF8E
:101D30001ED61EDD1EE41EEB1E0000000400F21E77
:101D40000000000400FA1E0000000400021F000052
:101D50000004000A1F121F0000000000201F0000E6
:101D6000000000311F00000000003F1F00000000C5
:101D700000501F03E8030000571F03F50301026230
:101D80001F03F60302046E1F0354040200791F03AD
:101D9000F7030400881F03F4030102941F000000EE
:101DA00000009D1F0000000000AD1F0000000000AB
:101DB000BD1F0000000000BE1F0000000000C71F84
:101DC0000000000000D71F0000000000E71F000017
:101DD000000000E81F0000000000F11F00000000EC
:101DE000000120000000000011200000000000128F
:101DF0002000000000001B2000000000002B20003D
:101E0000000000003B2000000000003C200000001B
:101E100000004520000000000055200000000000E8
:101E200065200000000000662000000000006F2018
:101E300000000000007F2000000000008F20000054
:101E4000000000902003FD0300009920041F0400FF
:101E500000AB200448040000BD200337040000C983
:101E6000200347040000D5200338040000DE2003CF
:101E700031040000EC200342040000FC20043D0477
:101E800000000C21033A0400001B21022A2100005B
:101E9000312103430400003C2102FC1A00004821C8
:101EA00002E71A0000532102031B00005F2102EE2B
:101EB0001A00006A21020A1B0000762102F51A00AE
:101EC00000812102111B00009021021F1B000099BC
:101ED0002102181B0000A22102AC210000B3210244
:101EE000E01A0000BB2102C5210000CC2102DA214A
:101EF0000000E121E821EF21F621FD2104220B223F
:101F000012221922202227222E2235223C2243226D
:101F10004A22436F6E66696775726174696F6E00FD
:101F200073746F72656420696E20454550524F4D41
:101F300000436F6E66696775726174696F6E006CDD
:101F40006F6164656420662E20454550524F4D00F8
:101F50004261636B2001005072696E742066696C87
:101F600065005061757365205072696E740053741A
:101F70006F70205072696E7400436F6E74696E7575
:101F800065205072696E740044656C6574652066E6
:101F9000696C6500583A257830206D6D004D696E8A
:101FA00020656E6473746F703A257378004D6178A4
:101FB00020656E6473746F703A2573580000593A47
:101FC000257831206D6D004D696E20656E647374E7
:101FD0006F703A257379004D617820656E64737473
:101FE0006F703A25735900005A3A257832206D6D8A
:101FF000004D696E20656E6473746F703A25737A54
:10200000004D617820656E6473746F703A25735A61
:102010000000583A257830206D6D004D696E2065BE
:102020006E6473746F703A257378004D6178206523
:102030006E6473746F703A2573580000593A2578AE
:1020400031206D6D004D696E20656E6473746F7024
:102050003A257379004D617820656E6473746F70F2
:102060003A25735900005A3A257832206D6D004D9B
:10207000696E20656E6473746F703A25737A004DD3
:10208000617820656E6473746F703A25735A00002E
:10209000486F6D6520416C6C005370656564204D20
:1020A000756C2E3A256F6D25252500466C6F7720BF
:1020B0004D756C2E203A256F6625252500507265DA
:1020C0006865617420504C410050726568656174A8
:1020D0002041425300436F6F6C646F776E0053650D
:1020E0007420746F204F726967696E004469736170
:1020F000626C6520737465707065720054656D70F4
:102100002E203020203A2545300243004578747255
:10211000756465722030204F666600457874722EB3
:1021200020706F736974696F6E0003F003020051D1
:1021300022536574204F726967696E005820506F92
:10214000732E2046617374005820506F7369746950
:102150006F6E005920506F732E20466173740059C2
:1021600020506F736974696F6E005A20506F732E20
:102170002046617374005A20506F736974696F6EE2
:1021800000517569636B2053657474696E677300E1
:10219000506F736974696F6E004578747275646509
:1021A000720046616E20737065656400020000076E
:1021B0000055225344204361726400446562756790
:1021C00067696E670002000005006322436F6E6658
:1021D000696775726174696F6E0002000007006DB7
:1021E000227B2200000000008B22000000000094EF
:1021F0002200000000009F220000000000A3220037
:1022000000000000AC220000000000B52200000029
:102210000000BE220000000000C2220000000000FA
:10222000D3220000000000D4220000000000D522CC
:102230000000000000D9220000000000E72200009A
:10224000000000EB220000000000FC220000000063
:102250000002230923711D102317231E2325232C7D
:10226000233323711D3A23412348234F23711D56E5
:10227000235D2364236B2372237923453A25656309
:102280002F25456302437E256F43005A3A25783255
:10229000206D6D004275666665723A256F420025B5
:1022A0006F7300583A257830206D6D00593A2578C3
:1022B00031206D6D005A3A257832206D6D00256F02
:1022C000730045313A2565302F25453002437E2580
:1022D0006F30000000256F73005072696E74696E74
:1022E000672074696D65002555740046696C616DE1
:1022F000656E74207072696E746564002555662081
:102300006D00802300000000008923000000000011
:1023100098230452040000A923031A040800B623DA
:10232000031B040000C423031C040000D223031D6C
:10233000040000E023031E040000ED230332040028
:1023400000F92303330400000524033404000011C2
:102350002403350400001D2402252400002C24023F
:10236000392400004024024924000050240259244A
:10237000000060240306040000702403070400002A
:10238000453A257833206D6D003120636C69636BAD
:10239000203D2031206D6D0046616E2073706565B3
:1023A000643A254673252525005475726E204661D2
:1023B0006E204F6666005365742046616E2032358C
:1023C000252525005365742046616E20353025256E
:1023D00025005365742046616E203735252525007C
:1023E0005365742046616E2046756C6C00456368C9
:1023F0006F2020203A25646F00496E666F202020F0
:102400003A256469004572726F7273203A256465DB
:10241000004472792072756E3A2564640047656ED7
:102420006572616C0002000004007F2441636365F3
:102430006C65726174696F6E00020000040087248D
:1024400046656564726174650002000003008F24B4
:102450004578747275646572000200000F0095245F
:1024600053746F726520746F20454550524F4D0074
:102470004C6F616420662E20454550524F4D0071CF
:102480001DB324BA24C124711DC824CF24D62471BD
:102490001DDD24E424711DEB24F224F9240025071A
:1024A000250E2515251C2523252A25312538253FD0
:1024B0002546254D2504100400005A25026B2500F1
:1024C00000722502802500008725040A040000917F
:1024D00025040D0400009A25040E040000A625041E
:1024E00016040000AE250413040000B725042904D7
:1024F0000000C425042C040000D125042B04000096
:10250000DC25042A040000E625042E040000F4253E
:10251000044D0400000726044C0400001826042D76
:1025200004000024260422040000312604230400B1
:10253000003B260424040000452604250400005323
:102540002604260400006126042F04000042617561
:1025500064726174653A256F6300537465707065C9
:102560007220496E6163746976650003200402007D
:102570006D264D61782E20496E6163746976650021
:10258000032104020071265072696E743A25617A43
:10259000004D6F76653A25615A004A65726B2020BE
:1025A000203A25616A004D61783A25667A00486FC5
:1025B0006D653A25665A0053746570732F4D4D3A18
:1025C0002553650053746172742046523A2558664B
:1025D000004D61782046523A2558460041636365B4
:1025E0006C3A25584100537461622E54696D653A06
:1025F000255877005761697420556E6974733A20C5
:10260000255855206D6D00576169742054656D70B3
:102610002E20255854024300436F6E74726F6C3A3B
:102620002558680044542F50494420503A2558708A
:102630000050494420493A255869005049442044F3
:102640003A255864004472697665204D696E3A25D2
:10265000586D004472697665204D61783A25584D71
:1026600000504944204D61783A2558440075267C35
:102670002683268A2691260000000000A02600005E
:10268000000000AA260000000000B926000000009B
:10269000004469732E2041667465723A256973009F
:1026A0005B735D20303D4F6666004469732E2041A8
:1026B000667465723A256970005B735D20303D4F2A
:1026C00066660001290229042908291029202940C9
:1026D000298029012C022C01260226042608261016
:1026E00026202640268026402C802C01230223040D
:1026F00023082310232023402380230120022004C9
:102700002008201020202040208020102C202C0188
:102710002F022F042F082F102F202F402F802F7EC5
:10272000FE7EFD7EFB7EF77EEF7EDF7EBF7E7F003E
:102730000100006327120002000075274300030018
:1027400000B8270401030904BC271802030904D6B2
:10275000271603030904EE270C0001C1020180368D
:102760000181361201000202000020C0168304001D
:10277000010102030109024300020100C032090401
:1027800000000102020100052400100105240100DF
:10279000010424020605240600010705820308003F
:1027A0004009040100020A0000000705030240007E
:1027B00000070584024000000403090418035400C4
:1027C000650065006E0073007900640075006900A3
:1027D0006E006F00000016035500530042002000F9
:1027E000530065007200690061006C0000000C037A
:1027F000310032003300340035000000494E4649B4
:102800004E4954594E414ECDCCCC3D0AD7233C17AE
:10281000B7D13877CC2B329595E6241FB14F0A00FB
:102820000020410000C84200401C4620BCBE4CCAEB
:102830001B0E5AAEC59D7400E5853BA8D7D2112466
:102840001FBECFEFD0E2DEBFCDBF11E0A0E0B1E010
:10285000EAE0F1EB01E00BBF02C007900D92AC3F44
:10286000B107D9F71BBE14E1ACEFB1E001C01D9276
:10287000A939B107E1F718E2CEE3D8E204C0229704
:10288000FE010E9435D8C833D107C9F70E9425D16F
:102890000C9483D80C940000A0E0B0E0E2E5F4E1F1
:1028A0000C9452D8EC015B016115710519F0FB0124
:1028B00091838083F9908F2D90E00E9439D8892BE5
:1028C000C9F7FDE2FF1621F4F990EE24E39405C068
:1028D0002BE2F21609F4F990EE248E01015010401B
:1028E000C8016CEF77E243E050E00E94DB16892BD1
:1028F00001F58E010E5F1F4FC8016FEF77E245E0D3
:1029000050E00E94DB16892B19F48E01095F1F4FDE
:10291000A114B10419F0F50111830083E0FC04C097
:1029200070E090E080E814C070E090E080E86FEF25
:1029300008C1C80164E078E243E050E00E94DB1681
:10294000892B69F4A114B10429F470E090E080ECC3
:102950006FE7F7C02296F501D183C083F6CF8824B4
:10296000992440E050E060E070E0EF2DE053EA3061
:10297000A0F5F2E0EF2A8E2D90E09C0128703070D7
:10298000E2FE06C0232B79F50894811C911C2BC014
:10299000232B19F0089481089108DB01CA0112E089
:1029A000880F991FAA1FBB1F1A95D1F7480F591FEF
:1029B0006A1F7B1F440F551F661F771F4E0F511D47
:1029C000611D711D483929E9520729E9620729E18A
:1029D000720748F084E0E82A06C0EE3F31F4E3FCD9
:1029E00039C098E0E92AF990C0CFE53311F0E5311C
:1029F00089F529912D3219F4E0E1EE2A05C02B3238
:102A000019F081E090E003C0299182E090E0E22F8C
:102A1000E053EA3018F0C81BD90B1CC020E030E0AE
:102A2000FCE020383F075CF4C901880F991F880F2C
:102A3000991F280F391F220F331F2E0F311DE991C7
:102A4000E053EA3068F3E4FE03C0309521953F4F30
:102A5000820E931ECE2CDD24E1FE07C0A114B1042A
:102A600021F02197F501D183C083CB01BA010E94E7
:102A7000B1D47B018C01F3E0CF22DD2423E0C21628
:102A8000D10421F417FB109517F91095570168012F
:102A9000C801B70120E030E040E050E00E9411D4CE
:102AA000882309F44AC097FE0DC02BE1E22E28E2EC
:102AB000F22E9094819491089394C0E2D0E000E0CB
:102AC00010E012C093E3E92E98E2F92EF6CFF70159
:102AD0002591359145915491C601B5010E94C1D609
:102AE0005B016C018C1A9D0A8C169D0684F7D595A6
:102AF000C7950F5F1F4F0630110529F08CEF9FEF30
:102B0000E80EF91EF1CFC501D6017C018D018C2D97
:102B1000880F8D2D881F8F3F51F0C601B50120E031
:102B200030E040E050E00E9411D4882331F482E28A
:102B300090E090939814809397147E2D9F2D802F72
:102B4000612F272F392F482F562FB901CA01CDB732
:102B5000DEB7ECE00C946ED82F923F925F926F92AA
:102B60007F928F929F92AF92BF92CF92DF92EF921D
:102B7000FF920F931F93CF93DF938C011B01EA0108
:102B80006115710519F0FB0191838083209749F04D
:102B9000CE010297839728F020E030E040E050E03B
:102BA000F6C0F801A1908F018A2D90E00E9439D8DB
:102BB000892BB9F7FDE2AF1631F4F801A1908F012E
:102BC0005524539407C0FBE2AF1619F4F801A19005
:102BD0008F015524209719F0C031D105C1F4F0E3DD
:102BE000AF1679F4F8018081883711F0883549F4FF
:102BF000F801A1800E5F1F4FF2E05F2AC0E1D0E034
:102C000006C0209721F480E3A816E9F427C0C83055
:102C1000D10531F1C930D10524F4C230D10531F5E7
:102C20000CC0CA30D10589F0C031D105F9F4C12CEE
:102C3000D12CE12CB8E0FB2E28C0C12CD12CE12CEA
:102C4000A0E4FA2E22C0CAE0D0E0FCECCF2EFCECCF
:102C5000DF2EFCECEF2EFCE0FF2E17C0C8E0D0E02A
:102C6000C12CD12CE12CE0E1FE2E0FC09E014427A7
:102C700037FD4095542F60E070E080E090E80E94BE
:102C8000EAD7C901DA016C017D0120E030E040E0C3
:102C900050E060E03E01882477FC8094982C70ED31
:102CA000B72EBA0CE9E0EB1570F48A2D81548A3105
:102CB00018F499ECB92E06C08A2D81568A3150F548
:102CC00089EAB82EBA0C8B2D90E08C179D0714F56D
:102CD0006F3FE1F0C216D306E406F506B0F0CA0174
:102CE000B901A40193010E9497D79B01AC012B0D60
:102CF000311D411D511D2130F0E03F07F0E04F072D
:102D0000F0E85F0710F461E001C06FEFF801A190F7
:102D10008F01C5CF2114310481F0662331F00150B9
:102D20001040F1011183008308C051FE1AC0025007
:102D30001040F1011183008314C067FF12C050FCE2
:102D400005C02FEF3FEF4FEF5FE704C020E030E01A
:102D500040E050E882E290E09093981480939714BA
:102D600016C050FE08C050954095309521953F4FB4
:102D70004F4F5F4F0CC057FF0AC082E290E0909324
:102D80009814809397142FEF3FEF4FEF5FE7B9014F
:102D9000CA01DF91CF911F910F91FF90EF90DF90CB
:102DA000CF90BF90AF909F908F907F906F905F90EB
:102DB0003F902F900895FB01DC014150504088F076
:102DC0008D9181341CF08B350CF4805E65916134FB
:102DD0001CF06B350CF4605E861B611171F3990B6E
:102DE0000895881BFCCFFB01DC0102C001900D920D
:102DF00041505040D8F70895FB01DC010D900020B0
:102E0000E9F7119701900D920020E1F70895FC0178
:102E10008191861721F08823D9F799270895319752
:102E2000CF010895FB01DC018D9101908019011003
:102E3000D9F3990B0895FB01DC0101900D9200205C
:102E4000E1F70895FB01DC014150504048F001904A
:102E50000D920020C9F701C01D9241505040E0F78B
:102E60000895FC0181E090E00190061609F4CF017D
:102E70000020D1F701970895A0E0B0E0E2E4F7E187
:102E80000C9456D87C01EB018A01690109C0CE017E
:102E90002196F6010995F70181937F0101501040B9
:102EA00001151105A1F7CDB7DEB7E8E00C9472D893
:102EB000BF92CF92DF92EF92FF920F931F937B010D
:102EC0008C01FB010995B82EC8010196F7010995FF
:102ED000C82EC8010296F7010995D82EC80103969D
:102EE000F7010995982F6B2D7C2D8D2D1F910F913A
:102EF000FF90EF90DF90CF90BF900895DF92EF9218
:102F0000FF920F931F937B018C01FB010995D82E33
:102F1000C8010196F7010995982F8D2D1F910F91EA
:102F2000FF90EF90DF900895A0E0B0E0EAE9F7E1CC
:102F30000C9456D8EC017B018A01690109C0CE01CD
:102F40002196F70161917F01F6010995015010402A
:102F500001151105A1F7CDB7DEB7E8E00C9472D8E2
:102F6000BF92CF92DF92EF92FF920F931F93D52ED5
:102F7000C62EB72E79018C01642FF9010995C8017D
:102F800001966D2DF7010995C80102966C2DF70188
:102F90000995C80103966B2DF70109951F910F91B3
:102FA000FF90EF90DF90CF90BF900895DF92EF9267
:102FB000FF920F931F93D72E7A018C01FA01099586
:102FC000C80101966D2DF70109951F910F91FF9092
:102FD000EF90DF9008959C01F999FECF32BD21BD9D
:102FE000F89A80B508959C01F999FECF1FBA32BDB9
:102FF00021BD60BD0FB6F894FA9AF99A0FBE0895F4
:1030000008956091110170911201809113019091C6
:1030100014016817790744F4709314016093130145
:1030200081E594E00E94F02B0895BC01893191055F
:103030001CF469E170E005C0893C910514F068EC6E
:1030400070E070934410609343108FE994E00E9405
:10305000F02B0895EF92FF920F931F93CF93DF937E
:10306000EC01893191051CF4C9E1D0E006C081E092
:10307000C53FD80714F0C4EFD1E0BE01882777FD23
:103080008095982F0E94B3D47B018C0160914110F0
:1030900070914210882777FD8095982F0E94B3D4B5
:1030A0009B01AC01C801B7010E9418D49B01AC017F
:1030B00060913D1070913E1080913F1090914010B2
:1030C0000E94C1D660933D1070933E1080933F10D4
:1030D00090934010D0934210C093411080E994E047
:1030E000BE010E94F02BDF91CF911F910F91FF90B5
:1030F000EF9008950E94FF4F9C01809111019091E3
:1031000012012817390724F430931201209311017A
:1031100008950E94754E08952F923F924F925F92AC
:103120006F927F928F929F92AF92BF92CF92DF92D7
:10313000EF92FF920F931F93DF93CF93CDB7DEB73C
:1031400028970FB6F894DEBF0FBECDBFA0905A0FE0
:10315000B0905B0FC0905C0FD0905D0F20905E0F21
:1031600030905F0F4090600F5090610F8091620F20
:103170009091630FA091640FB091650F89839A833A
:10318000AB83BC832091820F3091830F4091840FD9
:103190005091850F6090860F7090870F8090880FF8
:1031A0009090890F80918A0F90918B0FA0918C0F36
:1031B000B0918D0F8D839E83AF83B8878091060F6A
:1031C000882359F40F2EF0E0EF2EF0E0FF2EF0E808
:1031D0000F2FFFE31F2FF02D0AC00F2EF0E7EF2E69
:1031E000F2E4FF2EF1E20F2FFDE31F2FF02DC601B9
:1031F000B5010E944BD3A80197010E94C1D6AB0133
:10320000BC018BE594E022E00E94E52C8091060F42
:10321000882359F40F2EF0E0EF2EF0E0FF2EF0E8B7
:103220000F2FFFE31F2FF02D0AC00F2EF0E7EF2E18
:10323000F2E4FF2EF1E20F2FFDE31F2FF02DC2016C
:10324000B101A40193010E944BD3A80197010E94F0
:10325000C1D6AB01BC0182E694E022E00E94E52CDD
:103260008091060F882359F40F2EF0E0EF2EF0E046
:10327000FF2EF0E80F2FFFE31F2FF02D0AC00F2EB7
:10328000F0E7EF2EF2E4FF2EF1E20F2FFDE31F2F08
:10329000F02D69817A818B819C812D813E814F81C6
:1032A00058850E944BD3A80197010E94C1D6AB015B
:1032B000BC0186E694E022E00E94E52C2091560FA6
:1032C0003091570F4091580F5091590FA090130F04
:1032D000B090140FC090150FD090160F8091060F6C
:1032E000882359F40F2EF0E0EF2EF0E0FF2EF0E8E7
:1032F0000F2FFFE31F2FF02D0AC00F2EF0E7EF2E48
:10330000F2E4FF2EF1E20F2FFDE31F2FF02DCA0193
:10331000B9010E94B3D4A60195010E94C1D6A801AB
:1033200097010E94C1D6AB01BC018AE694E022E07D
:103330000E94212D28960FB6F894DEBF0FBECDBF98
:10334000CF91DF911F910F91FF90EF90DF90CF9081
:10335000BF90AF909F908F907F906F905F904F90B5
:103360003F902F9008956F927F928F929F92AF928D
:10337000BF92CF92DF92EF92FF920F931F93DF9352
:10338000CF9300D000D0CDB7DEB7609157107091C9
:1033900058108091591090915A102FE632E143E86D
:1033A0005AE30E94C1D67B018C01CE01019661E8EF
:1033B00070E044E050E02BEE37E10E943C17C8017A
:1033C000B70129813A814B815C810E944BD3AB01CB
:1033D000BC0187EB94E022E00E94E52C88ED94E0AC
:1033E0000E94F42AE0918401F0918501638574853F
:1033F0008585968520E030E040E751E40E941FD6A5
:1034000018160CF47AC06624772443018DE790E007
:103410006BEE77E10E9458177B018C01E60CF71CDC
:10342000081D191DC801B70120E831E541E050E051
:103430000E940CD8922E832E742E652E622F732F2D
:10344000842F952F20E83EEA4EEF5FEF0E9497D73A
:103450005B016C01AE0CBF1CC01ED11E89EC94E058
:10346000492D582D672D762D0E942D2CC601B501B2
:1034700020E13EE040E050E00E940CD8122F032FE4
:10348000F42EE52E8BED94E0422F502F6F2D7E2DE4
:103490000E942D2C612F702F8F2D9E2D20EF31EF4C
:1034A0004FEF5FEF0E9497D7A60EB71EC81ED91E1A
:1034B000C601B5012CE330E040E050E00E940CD89A
:1034C00082EE94E0BA01A9010E942D2C8AEE94E0CC
:1034D0000E94022B0F900F900F900F90CF91DF91D1
:1034E0001F910F91FF90EF90DF90CF90BF90AF9022
:1034F0009F908F907F906F9008950FB6F894609191
:1035000083147091841480918514909186140FBE59
:1035100020915310309154104091551050915610F5
:10352000621B730B840B950B28EE33E040E050E0F8
:103530000E94EAD7C901DA013C014D0167CF8091B1
:10354000FE018823C1F01092FE010E94F842809192
:103550001601815080931601882349F4809115014A
:10356000833010F40E941E3D85E0809316018DE5A6
:1035700093E10E94E2C8089508C00E941E4B0E9479
:103580009F1A8DE593E10E94F8A78091F60E88239B
:10359000A1F70895CF93DF9397FD10C0EC018F3F03
:1035A000910521F01CF0CFEFD0E002C0009731F080
:1035B0008091900F88608093900F07C08091900F4A
:1035C000877F8093900FC0E0D0E0662311F00E94C7
:1035D000BC1A8091000390E0C817D90729F08DEA42
:1035E00094E0BE010E94F02BC0930003DF91CF91C5
:1035F0000895EF92FF920F931F93DF93CF930F9253
:10360000CDB7DEB78DE089838BE8E82E84E1F82E14
:10361000C7018E010F5F1F4FB80141E050E00E94CB
:10362000C0D18AE08983C701B80141E050E00E941F
:10363000C0D10F90CF91DF911F910F91FF90EF902C
:103640000895E0910502F091060244A555A566A5EE
:1036500077A58EE694E022E00E94E52CE091050239
:10366000F091060240A951A962A973A98DE894E0DE
:1036700020E00E94E52CE0911701EF3F29F4E09152
:103680000502F0910602E081F0E0E350FD4F608119
:1036900085E794E070E00E94062C0E94F91A0895D4
:1036A0002F923F924F925F926F927F928F929F9252
:1036B000AF92BF92CF92DF92EF92FF920F931F9340
:1036C000DF93CF93CDB7DEB7E0970FB6F894DEBFA8
:1036D0000FBECDBF6C018091DD01282F84FF22C079
:1036E000D6018C9182FD09C081FF1CC016968D9178
:1036F0009C9117978F369105A9F00FB6F894809199
:10370000831490918414A0918514B09186140FBEF7
:103710008093F5029093F602A093F702B093F8021B
:103720000C945C2AF6010081118102FFC8C58085D6
:1037300091858C31910509F43CC28D31910590F44D
:103740008430910518F40297D0F52DC0843191058D
:1037500009F428C28531910509F428C2049709F0BB
:1037600099C5D3C18338910509F425C384389105DF
:1037700068F48B35910509F460C28C35910509F424
:1037800060C28A35910509F085C554C28538910516
:1037900009F470C48538910508F473C3863891051F
:1037A00009F078C526C5C6010E944B79882309F423
:1037B00071C580E061E041E00E949D696BC5809128
:1037C0005A0F90915B0FA0915C0FB0915D0F8987AC
:1037D0009A87AB87BC8780915E0F90915F0FA09115
:1037E000600FB091610F8D879E87AF87B88B8091F6
:1037F000620F9091630FA091640FB091650F898B58
:103800009A8BAB8BBC8BC6010E944B79882309F441
:1038100041C5FE01319688E0DF011D928A95E9F7E6
:10382000F601828180FD05C020E030E040E050E0FC
:1038300007C0D60197962D913D914D915C919A9735
:103840008091060F882351F0CA01B90123E333E3C5
:103850004BEC51E40E94C1D69B01AC0129833A8311
:103860004B835C83F601828181FD05C020E030E05E
:1038700040E050E007C0D6019B962D913D914D91BF
:103880005C919E978091060F882351F0CA01B9017F
:1038900023E333E34BEC51E40E94C1D69B01AC011E
:1038A0002D833E834F835887FE01759680E1DF01AB
:1038B0001D928A95E9F780915A0F90915B0FA09124
:1038C0005C0FB0915D0F8D8B9E8BAF8BB88F80910D
:1038D0005E0F90915F0FA091600FB091610F898F83
:1038E0009A8FAB8FBC8F8091620F9091630FA091E4
:1038F000640FB091650F8D8F9E8FAF8FB8A36091CD
:103900007E0F70917F0F8091800F9091810F0E94A8
:10391000B3D42091130F3091140F4091150F509193
:10392000160F0E94C1D669A37AA38BA39CA3F601AC
:10393000828182FFC7C087A490A8A1A8B2A8809165
:10394000060F882351F0C501B40123E333E34BECA8
:1039500051E40E94C1D64B015C016D897E898F893B
:10396000988D29853A854B855C850E944AD36DA741
:103970007EA78FA798AB698D7A8D8B8D9C8D2D85B9
:103980003E854F8558890E944AD32B013C01C501D1
:10399000B40120E030E040E850E40E94C1D6A50127
:1039A00094010E94C1D67B018C016DA57EA58FA5D7
:1039B00098A99B01AC010E94C1D69B01AC01C80132
:1039C000B7010E944AD37B018C01C301B201A3015C
:1039D00092010E94C1D69B01AC01C801B7010E94AF
:1039E0004AD30E942ED77B018C016DA57EA58FA5A1
:1039F00098A9A30192010E942CD69B01AC0117FB50
:103A0000109517F91095C801B7010E9418D47B01D1
:103A10008C01A80197010E947BD7882329F08FEEA3
:103A200094E00E94072B36C4D60118968D919C9184
:103A30001997039721F417FB109517F91095C501F5
:103A4000B40120E030E040E050E00E9411D488232F
:103A500044F417FB109517F91095B7FAB094B7F81E
:103A6000B094C301B201A80197010E94C1D69B0185
:103A7000AC016DA57EA58FA598A90E944AD320E030
:103A800030E040E05FE30E94C1D669837A838B8394
:103A90009C836DA57EA58FA598A9A80197010E947A
:103AA000C1D69B01AC01C301B2010E944BD320E0FF
:103AB00030E040E05FE30E94C1D66D837E838F8358
:103AC00098870CC069817A818B819C812D813E8190
:103AD0004F8158850E942CD64B015C01E0E0D60155
:103AE00018968D919C911997029709F4E1E0CE0107
:103AF0000996BE016B5E7F4FAE014F5F5F4F950130
:103B00008401EE2E0E94E057C5C30E94BC1AF60144
:103B10002081318133FD05C060E070E080E090E0FD
:103B200007C0D60193966D917D918D919C9196974A
:103B300032FF0BC0F601678D70A181A192A128EE22
:103B400033E040E050E00E9497D70FB6F894E09041
:103B50008314F090841400918514109186140FBE84
:103B6000E60EF71E081F191F04C00E941E4B0E947C
:103B70009F1A0FB6F8948091831490918414A091A9
:103B80008514B09186140FBE27013801481A590ACE
:103B90006A0A7B0AD301C20180509449A543B74702
:103BA00020F378C381E08093060F74C31092060F50
:103BB00071C3C80188739070892B11F080E008C030
:103BC000C80156E0969587955A95E1F780958170E2
:103BD00006FF08C01092560F1092570F1092580F00
:103BE0001092590F882321F041E051E061E01EC09E
:103BF000D6012D913C91C90188739070892B09F4ED
:103C00003CC1C90143E0969587954A95E1F7582F45
:103C10005170C90134E0969587953A95E1F7682F80
:103C2000617025FD02C040E001C041E0852F0E9487
:103C3000F77D23C11092480F2DC381E08093480F78
:103C400029C3A090820FB090830FE090840FF09072
:103C5000850F6090860F7090870F8090880F9090EE
:103C6000890F20908A0F30908B0F40908C0F5090CE
:103C70008D0F03FF21C0F6012285338544855585CC
:103C80008091060F882351F0CA01B90123E333E381
:103C90004BEC51E40E94C1D69B01AC01CA01B901B1
:103CA00020915A0F30915B0F40915C0F50915D0F46
:103CB0000E944AD35B017C0104FF23C0D6011E96FB
:103CC0002D913D914D915C9151978091060F8823E4
:103CD00051F0CA01B90123E333E34BEC51E40E94F4
:103CE000C1D69B01AC01CA01B90120915E0F309190
:103CF0005F0F4091600F5091610F0E944AD33B01CA
:103D00004C0105FF21C0F601228933894489558978
:103D10008091060F882351F0CA01B90123E333E3F0
:103D20004BEC51E40E94C1D69B01AC01CA01B90120
:103D30002091620F3091630F4091640F5091650F95
:103D40000E944AD31B012C01B501C7019301A401B4
:103D5000710182010E94D174D6018C9186FF9AC2B2
:103D600056962D913D914D915C9159978091060FFA
:103D7000882351F0CA01B90123E333E34BEC51E44A
:103D80000E94C1D69B01AC01CA01B90120919D01DD
:103D900030919E0140919F015091A0010E94C1D697
:103DA0000E9480D46093560F7093570F8093580FE2
:103DB0009093590F6FC260915A0F70915B0F809171
:103DC0005C0F90915D0F20915E0F30915F0F4091DD
:103DD000600F5091610FE090620FF090630F0091BF
:103DE000640F1091650F60903D1070903E108090B0
:103DF0003F10909040100F2EF0E0AF2EF0E0BF2E5D
:103E0000F0E0CF2EF0E0DF2EF02DA0924910B0921E
:103E10004A10C0924B10D0924C10A0924D10B0920C
:103E20004E10C0924F10D092501000D000D0A090F1
:103E3000B101B090B201C090B301D090B401EDB720
:103E4000FEB7A182B282C382D4820F2EF0E8AF2ED9
:103E5000FFE4BF2EF3ECCF2EF7E4DF2EF02D0E940F
:103E6000AF7C60923D1070923E1080923F10909215
:103E700040100F900F900F900F9080E00E94F2740E
:103E800009C280E00E94107680E090E0A0E0B0E0FF
:103E90008093820F9093830FA093840FB093850F2C
:103EA0008093860F9093870FA093880FB093890F0C
:103EB00080938A0F90938B0FA0938C0FB0938D0FEC
:103EC0006091B9017091BA018091BB019091BC01E0
:103ED0000E94A9768090FD0F9090FE0FA090FF0F9A
:103EE000B090001000910110109102102091031069
:103EF000309104104091F90F5091FA0F6091FB0F2F
:103F00007091FC0FD901C8017801FA2FEB2F081529
:103F100019052A053B052CF4D501C4017401FA2FBB
:103F2000EB2FC701AF2FBE2F84179507A607B70742
:103F300014F4DB01CA012C013D01481859086A0834
:103F40007B08530142012C013D01401A510A620ACB
:103F5000730A830172012C013D01441A550A660A55
:103F6000770A8CEB96E0B501A4010E941A2C85EC2F
:103F700096E0B801A7010E941A2C8EEC96E0B301DE
:103F8000A2010E941A2CD6018D919C91119792FF4B
:103F90002AC15F968D919D910D90BC91A02D181610
:103FA00019061A061B060CF01EC18DE793E0B4013A
:103FB00043EF57E10E94D6170E944D2D282FF99903
:103FC000FECF88E690E092BD81BDF89A80B52817B3
:103FD00069F0F999FECF1FBA88E690E092BD81BDE5
:103FE00020BD0FB6F894FA9AF99A0FBE8FE793E0C6
:103FF000B70143EF57E10E94D6170E944D2D282F9D
:10400000F999FECF88E690E092BD81BDF89A80B51F
:10401000281769F0F999FECF1FBA88E690E092BDA3
:1040200081BD20BD0FB6F894FA9AF99A0FBE81E8C7
:1040300093E0B20143EF57E10E94D6170E944D2D45
:10404000282FF999FECF88E690E092BD81BDF89ABD
:1040500080B5281709F4C7C0F999FECF1FBA88E6C2
:1040600090E092BD81BD20BD0FB6F894FA9AF99AFE
:104070000FBEB9C000918E0F10E025E01695079590
:104080002A95E1F7017080E00E94107610924A0FA5
:1040900010924B0F10924C0F10924D0F10924E0F2A
:1040A00010924F0F1092500F1092510F2091151037
:1040B0003091161040911710509118102093520F04
:1040C0003093530F4093540F5093550F80E090E07E
:1040D000A0E0B0E08093820F9093830FA093840FB1
:1040E000B093850F8093860F9093870FA093880FCE
:1040F000B093890F80938A0F90938B0FA0938C0FAE
:10410000B0938D0F1092370F1092380F1092390F15
:1041100010923A0F10923B0F10923C0F10923D0FED
:1041200010923E0F20933F0F3093400F4093410F6A
:104130005093420F6091B9017091BA018091BB0117
:104140009091BC010E94A976609115107091161093
:1041500080911710909118100E94B3D420E030E0A5
:1041600040EC5FE30E94C1D60E9480D4AB01BC0149
:104170008091011090910210A0910310B091041051
:104180006A017B01C81AD90AEA0AFB0A8091F90F71
:104190009091FA0FA091FB0FB091FC0F4A015B01C7
:1041A000881A990AAA0ABB0A8091FD0F9091FE0F06
:1041B000A091FF0FB0910010481B590B6A0B7B0BAD
:1041C0008CEB96E00E941A2C85EC96E0B701A601D4
:1041D0000E941A2C8EEC96E0B501A4010E941A2CC4
:1041E000802F0E94107681E061E041E00E94F77D1F
:1041F00051C04091370F5091380F6091390F709135
:104200003A0F86E792E00E942D2C40913B0F50918F
:104210003C0F60913D0F70913E0F8BEF94E00E9438
:104220002D2C40913F0F5091400F6091410F7091A4
:10423000420F8BEF94E00E941A2C4091ED0F5091A9
:10424000EE0F6091EF0F7091F00F8BE692E00E94FD
:104250002D2C4091F10F5091F20F6091F30F70915E
:10426000F40F8BEF94E00E942D2C4091F50F5091AC
:10427000F60F6091F70F7091F80F8BEF94E00E94AA
:104280001A2C80E00E94F2748DE592E00E94F42ADC
:104290000E948C180FB6F894809183149091841426
:1042A000A0918514B09186140FBE8093F50290936F
:1042B000F602A093F702B093F8020C945C2A01FD79
:1042C00002C00C94492AF6018681978183379105B3
:1042D00009F467C68437910508F086C082359105D8
:1042E00009F473C58335910508F03DC08931910506
:1042F00009F433C18A319105C8F48631910509F476
:104300000DC18731910548F48431910509F4FAC053
:10431000459711F00C945C2AFBC08731910509F494
:1043200003C1489711F00C945C2A12C18C3191059D
:1043300009F437C18D31910548F48A31910509F4AA
:1043400012C14B9711F00C945C2A26C18032910562
:1043500009F442C18A32910509F44FC14E9711F018
:104360000C945C2A2AC18836910509F48FC18936DC
:104370009105D8F48535910509F44AC5863591052E
:1043800050F48335910509F423C58435910511F066
:104390000C945C2A21C58C35910509F45AC58336E5
:1043A000910511F00C945C2A9DC58B36910509F49A
:1043B00002C58C36910550F48936910509F428C25E
:1043C0008A36910511F00C945C2AE3C48F3691056E
:1043D00009F4D4C58237910509F4EAC58D369105F3
:1043E00011F00C945C2A1EC28F3C910509F411C790
:1043F000803D9105E0F58E3B910509F426C48F3B85
:104400009105D8F48737910509F4E6C588379105F9
:1044100050F48437910509F42EC48537910511F0C5
:104420000C945C2AC8C58837910509F401C68C38FC
:10443000910511F00C945C2AA7C18B3C910509F4FD
:104440008DC68C3C910550F4893C910509F4FAC560
:104450008A3C910511F00C945C2A3AC68D3C91057A
:1044600009F4D0C68E3C910508F0CFC687C6F1E0AE
:1044700081399F0709F424C721E082399207F0F4BB
:1044800031E08F32930709F451C441E0803394073F
:1044900050F48C3D910509F4EEC68D3D910511F067
:1044A0000C945C2AF8C651E08E35950709F455C77F
:1044B0008059914011F00C945C2AFFC6B1E0853F11
:1044C0009B0709F439C7E1E0863F9E0758F4F1E005
:1044D00082399F0709F4F7C6845F914011F00C946C
:1044E0005C2A22C731E0873F930709F48BC641E07D
:1044F000873F940708F42EC78751924011F00C941F
:104500005C2A30C781EC90E10E9470870C945C2A91
:1045100081EC90E10E94C38A0C945C2A81EC90E1CA
:104520000E94A6850C945C2A17FD02C00C945C2A9C
:1045300081EC90E160E00E946D96D601D3966D917A
:104540007C91D49781EC90E140E00E94D986B4C779
:1045500081EC90E10E94BE85AFC781EC90E160E004
:104560000E941F8AA9C712FFA7C7F601478D50A155
:1045700061A172A180912B11882309F49DC74093FA
:10458000221150932311609324117093251181E01F
:1045900091E10E94FE9390C781EC90E10E94B48665
:1045A0008BC717FF89C7D601D3966D917C91D4979D
:1045B00081EC90E10E9475867FC717FF7DC781EC73
:1045C00090E160E00E946D96F60163A974A981EC08
:1045D00090E10E94268670C717FF6EC781EC90E1BC
:1045E00060E00E946D96D601D3966D917C91D49730
:1045F00081EC90E10E94EA855FC712FF5DC713FF5F
:104600005BC7F601878D90A1A1A1B2A1B7FD54C7E8
:104610008F3F9105A105B10511F00CF04DC7E3A046
:10462000F4A020E030E0F901EE0FFF1FE155FE4F4E
:10463000E4918E2F90E08E159F0509F43DC72F5F02
:104640003F4F2833310579F7F7FC36C78E2D0E948E
:1046500038CCD6015F969C915F9790962C91EE2D69
:10466000F0E0092E0E94A7CC8E2D692F722F0E9498
:1046700055CE8AE195E0B7010E94062CF601678DC0
:1046800070A186E295E00E94F02B16C70E94E83CDC
:10469000882309F011C70FB6F89480918314909184
:1046A0008414A0918514B09186140FBE8093F502F6
:1046B0009093F602A093F702B093F8028091DD0187
:1046C00083FDFAC6D6018D919C91119793FD0CC084
:1046D00092FF0CC05F968D919D910D90BC91A02D85
:1046E0000097A105B10511F40E94BC1AF601808162
:1046F000918192FFE1C6878C90A0A1A0B2A09C01FD
:104700002070317091FF1FC0068D232B11F410E033
:1047100011C010E0D6015A966D917D918D919C91BA
:104720005D9720E030E040E050E00E941FD6181670
:104730000CF411E0C501B4010E94B3D4402F212F25
:104740000E94A540B9C6E0910502F09106020081E1
:10475000232B11F410E00FC010E0F601628D738D71
:10476000848D958D20E030E040E050E00E941FD61F
:1047700018160CF411E0C501B4010E94B3D4402F07
:10478000212F0E94A54098C60E94E83C882309F08A
:1047900093C60FB6F8948091831490918414A091DD
:1047A0008514B09186140FBE8093F5029093F602A3
:1047B000A093F702B093F8028091DD0183FD7CC6DF
:1047C000D6018D919C91119792FF76C65F96ED90E0
:1047D000FD900D911C91929790FD02C0BB2410C0DA
:1047E000BB24F601628D738D848D958D20E030E0C1
:1047F00040E050E00E941FD6181614F4BB24B39476
:10480000C801B7010E94B3D44B2D0E94693A54C627
:1048100083E0169507958A95E1F7802F81700E94B5
:10482000211B4AC60E94E83C882309F045C60FB602
:10483000F8948091831490918414A0918514B09180
:1048400086140FBE8093F5029093F602A093F702B0
:10485000B093F8028091DD0183FD2EC68DE593E1D2
:104860006CE472E040E00E94FEA68DE593E10E94B8
:1048700035C10E94BC1A8090050290900602D601B4
:104880002D913C91119731FF08C05E968C91882341
:1048900021F418E1812E11E0912E32FF23C0F601A0
:1048A000E78CF0A001A112A1D401AC9030FD02C0B0
:1048B000BB2410C0BB24F601628D738D848D958D51
:1048C00020E030E040E050E00E941FD6181614F4BB
:1048D000BB24B394C801B7010E94B3D44A2D2B2D39
:1048E0000E94A540D4019C966D917D918D919C91E3
:1048F0009F97D0962D913D914D915C91D3970E94B9
:104900004AD37B018C0120E030E040E050E00E947F
:104910001FD618165CF4C801B70120E030E040E073
:1049200050E40E9411D4882364F4C6C5C801B701BD
:1049300020E030E040E050EC0E941FD618160CF446
:10494000BBC53324F40122A533A580A591A5821708
:10495000930714F4332433940FB6F89440908314DF
:104960005090841460908514709086140FBE49A6F0
:104970005AA66BA67CA644245524320110E00FB63B
:10498000F8942091831430918414409185145091AF
:1049900086140FBE2DA33EA34FA358A7DA01C90169
:1049A00029A53AA54BA55CA5821B930BA40BB50BBF
:1049B000895E9340A040B04058F080E00E94211BE7
:1049C0008DA19EA1AFA1B8A589A79AA7ABA7BCA7A7
:1049D0000E949F1A809105029091060288169906FE
:1049E00009F067C0D4019396ED90FC9094971E1443
:1049F0001F040CF05EC0112309F05BC0332009F4E2
:104A000058C091966D917C919297882777FD8095FB
:104A1000982F0E94B3D49B01AC01F40164A575A545
:104A200086A597A50E941FD618160CF042C000D08C
:104A300000D000D00DB71EB70F5F1F4F6627772736
:104A40006E197F09882777FD8095982F0E94B3D42F
:104A500020919D0130919E0140919F015091A001B4
:104A60000E94C1D60E9480D45B016C01F40187854D
:104A70009089A189B289F80180839183A283B3834D
:104A80001482158260E070E080E090E020E030E089
:104A900040E050E0EE24FF2487010E94167411E0EC
:104AA0002DB73EB72A5F3F4F0FB6F8943EBF0FBEFB
:104AB0002DBF411451046104710409F053C0332027
:104AC000C9F0D401D0966D917D918D919C91D39731
:104AD00020E030E040E85FE30E944AD39B01AC0154
:104AE000F40164A575A586A597A50E941FD687FF2A
:104AF0001AC045CFD401D0966D917D918D919C9136
:104B0000D39720E030E040E85FE30E944BD39B0165
:104B1000AC01F40164A575A586A597A50E9411D4E2
:104B200018160CF42CCFD4015F966D917C91909760
:104B3000882777FD8095982F28EE33E040E050E0FD
:104B40000E9497D72B013C012DA13EA14FA158A552
:104B5000420E531E641E751E4114510461047104FB
:104B600009F40DCFD301C2012DA13EA14FA158A53B
:104B7000821B930BA40BB50B80509449A543B747F8
:104B800008F4FDCE112309F44AC0809105029091EA
:104B900006028816990609F042C000D000D000D065
:104BA0000DB71EB70F5F1F4FD40193966D917C9187
:104BB0009497882777FD8095982F0E94B3D42091F1
:104BC0009D0130919E0140919F015091A0010E9452
:104BD000C1D60E9480D45B016C01F4018785908965
:104BE000A189B289F80180839183A283B38314825F
:104BF000158260E070E080E090E020E030E040E08E
:104C000050E0EE24FF2487010E9416742DB73EB7B2
:104C10002A5F3F4F0FB6F8943EBF0FBE2DBF1092D4
:104C20009D130FB6F8948091831490918414A091F1
:104C30008514B09186140FBE8093F5029093F6020E
:104C4000A093F702B093F80237C410929D130FB6E9
:104C5000F8948091831490918414A0918514B0915C
:104C600086140FBE8093F5029093F602A093F7028C
:104C7000B093F80221C423FD1FC40FB6F8948090AE
:104C8000831490908414A0908514B09086140FBE65
:104C90000FB6F8948091831490918414A091851498
:104CA000B09186140FBE88199909AA09BB09895EBB
:104CB0009340A040B04070F080E00E94211B0FB6EE
:104CC000F8948090831490908414A0908514B090F0
:104CD00086140FBE0E949F1AC0908401D090850157
:104CE000D6011B96ED90FD900D911C911E97C80169
:104CF000B70120E030E040EF51E40E941FD61816C3
:104D00000CF0DAC3C801B701F6012781308541856F
:104D100052850E944AD39F7720E030E040E85FE36D
:104D20000E941FD618160CF4B3CFC6C312FD03C0E1
:104D300026E930E005C0D6015F962D913C91909711
:104D400013FD03C0CC24DD2409C0F601C3A0D4A008
:104D50001C141D041CF4B1E0CB2ED12CF601EE0F77
:104D6000FF1FEC57FE4FE080F180B901882777FDE7
:104D70008095982F0E94B3D4AB01BC01F3E0169547
:104D80000795FA95E1F70170C7012C2D0E94603D4F
:104D900093C312FD03C08FEF90E005C0D6015F966C
:104DA0008D919C919097612F66956695669561703F
:104DB0000E94CA1A81C3612F6695669566956170D7
:104DC00080E090E00E94CA1A77C31092490F74C322
:104DD00081E08093490F70C312FF14C0F601678D04
:104DE00070A181A192A128EE33E040E050E00E9442
:104DF00097D760938701709388018093890190937E
:104E00008A015AC30E94BC1A81E00E942A7F54C3BF
:104E100012FF16C0D6015F966D917D918D919C9188
:104E2000929728EE33E040E050E00E9497D76093DD
:104E3000F9027093FA028093FB029093FC023CC348
:104E40001092F9021092FA021092FB021092FC02E8
:104E500033C303FF0DC0F60182859385A485B58514
:104E60008093910190939201A0939301B093940148
:104E7000D6018C9184FF0EC01E968D919D910D9050
:104E8000BC91A02D8093950190939601A0939701DA
:104E9000B0939801F601808185FF0CC082899389C7
:104EA000A489B5898093990190939A01A0939B015D
:104EB000B0939C010E94D67FD6018C9186FFFCC2E4
:104EC000E0910502F091060256962D913D914D918B
:104ED0005C915997218732874387548780810E944C
:104EE0007441EAC212FD05C060E177E280E090E023
:104EF0000BC0F601678D70A181A192A128EE33E06D
:104F000040E050E00E9497D703FD779A04FD769A1F
:104F100005FD479A0FB6F894E0908314F09084143E
:104F200000918514109186140FBEE60EF71E081F1F
:104F3000191F02C00E946F7F0FB6F89480918314EE
:104F400090918414A0918514B09186140FBE27010E
:104F50003801481A590A6A0A7B0AD301C201805AE9
:104F60009648A140B04030F3D6013C9133FD77988C
:104F700034FD769835FFA0C247989EC212FF04C048
:104F8000F601878D8093DD018091DD0183FF94C25E
:104F900060E070E080E090E040E020E00E94A5400A
:104FA0008BC281E892E00E94022B0E94B31984C256
:104FB0000E948C1881C217FF7FC2D601D3966D91D3
:104FC0007C91D4978DE593E140E00E942AA78DE57E
:104FD00093E10E9435C170C20E94BC1A88E395E03B
:104FE0000E94F42A1E9B03C08EE295E002C08BE271
:104FF00095E00E94F42A86E495E00E94F42A1F9B23
:1050000003C08EE295E002C08BE295E00E94F42A94
:1050100084E595E00E94F42A649B03C08EE295E04B
:1050200002C08BE295E00E94F42A0E94F91A44C261
:1050300012FF42C213FF40C2F601878D63A10E9496
:105040002BA43AC203FF0DC0F60182859385A48587
:10505000B5858093BD019093BE01A093BF01B0932D
:10506000C001D6018C9184FF0EC01E968D919D913A
:105070000D90BC91A02D8093C1019093C201A0938B
:10508000C301B093C401F601808185FF0CC0828901
:105090009389A489B5898093C5019093C601A09393
:1050A000C701B093C801D6018C9186FF0EC05696F9
:1050B0008D919D910D90BC91A02D8093C9019093ED
:1050C000CA01A093CB01B093CC010E94D67FF4C15A
:1050D00003FF0DC0F60182859385A485B585809375
:1050E000CD019093CE01A093CF01B093D001D60112
:1050F0008C9184FF0EC01E968D919D910D90BC9158
:10510000A02D8093D1019093D201A093D301B093AD
:10511000D401F601808185FF0CC082899389A4891E
:10512000B5898093D5019093D601A093D701B09310
:10513000D801D6018C9186FF0EC056968D919D9117
:105140000D90BC91A02D8093D9019093DA01A0938A
:10515000DB01B093DC010E94D67FAEC112FFACC16F
:10516000F601278D30A141A152A112161306140693
:1051700015060CF4A1C1209315019EC18091050272
:105180009091060212FD03C0FC01B5960EC0F60117
:10519000878D90A1A1A1B2A1B7FD8EC10097A105F5
:1051A000B10509F089C1EDE3F1E003FF0BC0D601C1
:1051B0001A962D913D914D915C911D97228F338FC1
:1051C000448F558FD6018C9184FF0AC01E962D9175
:1051D0003D914D915C915197268F378F40A351A3FC
:1051E000D6018C9185FF0AC052962D913D914D912B
:1051F0005C91559722A333A344A355A3CF010E94EA
:10520000223A5AC10E94C83857C1C6010E94F635D9
:1052100053C103FF0DC0F60182859385A485B58532
:105220008093451090934610A0934710B093481078
:10523000D6018C9186FF11C0E0910502F091060223
:1052400056962D913D914D915C915997278B308FBA
:10525000418F528F80810E9474414091451050913E
:10526000461060914710709148108BE595E022E060
:105270000E94212D21C112FD05C024E630E040E04E
:1052800050E005C0F601278D30A141A152A1C9010E
:105290000E942A1811C112FD05C024E630E040E04A
:1052A00050E007C0D6015F962D913D914D915C91E4
:1052B0009297C9010E941518FFC00E94BC1AFCC039
:1052C0000E94C075F9C010FF06C0F601C28CD38CD5
:1052D000E48CF58C08C0C0903D10D0903E10E0905A
:1052E0003F10F0904010B801E4E076956795EA959C
:1052F000E1F76170A80175E0569547957A95E1F759
:105300004170980156E0369527955A95E1F721703E
:1053100093E0169507959A95E1F7802F81708701A4
:1053200076010E94907EC8C080E00E944F2F81E8E5
:1053300099E00E94212BC0C00E944F32E0910502EB
:10534000F091060280810E94744181EA99E00E94F6
:10535000212BB2C00E947136AFC08AE392E00E9456
:10536000022BAAC04091660F5091670F6091680FA1
:105370007091690F81E292E022E00E94E52C409159
:105380006A0F50916B0F60916C0F70916D0F8BEFE6
:1053900094E022E00E94E52C40916E0F50916F0F37
:1053A0006091700F7091710F8BEF94E022E00E947A
:1053B000212D40915A0F50915B0F60915C0F7091BD
:1053C0005D0F8FE092E022E00E94E52C40915E0F9D
:1053D00050915F0F6091600F7091610F8BEF94E0BF
:1053E00022E00E94E52C4091620F5091630F609182
:1053F000640F7091650F8BEF94E022E00E94212DE5
:1054000040914A0F50914B0F60914C0F70914D0F8E
:105410008FEF91E00E942D2C40914E0F50914F0F35
:105420006091500F7091510F8BEF94E00E942D2CE2
:105430004091520F5091530F6091540F7091550F3E
:105440008BEF94E00E941A2C4091370F5091380F47
:105450006091390F70913A0F87EE91E00E942D2CE8
:1054600040913B0F50913C0F60913D0F70913E0F6A
:105470008BEF94E00E942D2C40913F0F5091400FF4
:105480006091410F7091420F8BEF94E00E941A2CB3
:1054900013C011FF08C00E94BC1AD6015E968C9101
:1054A0000E94744109C022FF07C080E494E00E947A
:1054B000F42AC6010E946749E0960FB6F894DEBF51
:1054C0000FBECDBFCF91DF911F910F91FF90EF9055
:1054D000DF90CF90BF90AF909F908F907F906F9014
:1054E0005F904F903F902F900895CF93DF9320C00F
:1054F00080912C11882381F0888181FF04C08E81E6
:105500009F814D9739F181EC90E1BE010E94168890
:10551000CE010E94244A03C0CE010E94501BCE013E
:105520000E94354A0E949F1A8DE593E10E94F8A7D8
:105530008091F60E882329F40E94C645EC0100975D
:1055400071F00E941E4B8DE593E10E94F8A7209711
:1055500079F6E8CF81EC90E10E945586D9CFDF91B2
:10556000CF910895CF93DF930E941E4B0E94C645B2
:10557000EC018DE593E10E94F8A72097D1F080918E
:105580002C11882381F0888181FF04C08E819F8146
:105590004D9791F081EC90E1BE010E941688CE01FA
:1055A0000E94244A03C0CE010E94501BCE010E94DB
:1055B000354A0E946F7FD8CF81EC90E10E945586DA
:1055C000EECFDF93CF930F92CDB7DEB789838BE811
:1055D00094E1BE016F5F7F4F41E050E00E94C0D177
:1055E0000F90CF91DF910895CF93DF93EC0102C02C
:1055F0000E94E12AFE01849121968823C9F7DF9158
:10560000CF9108950E94F42A0E94F91A08950F93E9
:105610001F938C018BE393E00E94F42AC8010E943F
:10562000022B1F910F9108950F931F938C0182E419
:1056300093E00E94F42AC8010E94022B1F910F914F
:1056400008950F931F938C0182E493E00E94F42A43
:10565000C8010E94F42A1F910F9108950F931F9380
:105660008C0188E493E00E94F42AC8010E94022B76
:105670001F910F910895CF93DF93EC0103C0219602
:105680000E94E12A88818823D1F7DF91CF91089584
:105690000F931F938B010E94F42AC8010E943B2B99
:1056A0001F910F9108950F931F938B010E94F42A6D
:1056B000C8010E943B2B0E94F91A1F910F91089577
:1056C000AF92BF92CF92DF92EF92FF920F931F9310
:1056D000DF93CF93CDB7DEB72B970FB6F894DEBF2D
:1056E0000FBECDBFC62ED92E1B869BE0A92EB12C96
:1056F000AC0EBD1E6C2D9D2D2AE030E040E050E048
:105700000E94EAD7D52E7901042F152F80E3C80E09
:10571000C801B7012AE030E040E050E00E9497D78E
:10572000C61AF501C2925F01CE2C7F2D802FE114A5
:10573000F10401051105F1F6CF010E943B2B2B96D8
:105740000FB6F894DEBF0FBECDBFCF91DF911F9192
:105750000F91FF90EF90DF90CF90BF90AF900895A2
:10576000EF92FF920F931F937A018B010E94F42A0C
:10577000C801B7010E94602B0E94F91A1F910F9176
:10578000FF90EF900895EF92FF920F931F937A018D
:105790008B010E94F42AC801B7010E94602B1F915F
:1057A0000F91FF90EF900895EF92FF920F931F9348
:1057B0007B018C0197FF0BC08DE20E94E12A1095BE
:1057C0000095F094E094E11CF11C011D111DC8012D
:1057D000B7010E94602B1F910F91FF90EF900895E9
:1057E000EF92FF920F931F937B010E94F42A0027F0
:1057F000F7FC0095102FC801B7010E94D42B0E941E
:10580000F91A1F910F91FF90EF900895EF92FF9278
:105810000F931F937B010E94F42A0027F7FC009549
:10582000102FC801B7010E94D42B1F910F91FF9038
:10583000EF900895EF92FF920F931F937A018B01DF
:105840000E94F42AC801B7010E94D42B0E94F91AC1
:105850001F910F91FF90EF900895EF92FF920F9399
:105860001F937A018B010E94F42AC801B7010E949C
:10587000D42B1F910F91FF90EF9008959F92AF92BC
:10588000BF92CF92DF92EF92FF920F931F93CF932D
:10589000DF937B018C01942EA80197010E947BD796
:1058A000882319F083E393E020C0C0E0D0E05701E3
:1058B0006801E894D7F8C601B5012FEF3FEF4FE735
:1058C0005FE70E947BD7882351F4C601B5012FEF13
:1058D0003FEF4FE75FE70E9411D4181614F0C1E0C4
:1058E000D0E0219729F087E393E00E94F42A61C079
:1058F000C801B70120E030E040E050E00E9411D440
:1059000088233CF48DE20E94E12A17FB109517F9D9
:10591000109520E030E040E05FE3DD240BC0CA01D9
:10592000B90120E030E040E251E40E9418D49B012C
:10593000AC01D394D91498F3C801B7010E944BD39A
:105940005B016C010E9485D47B018C010E94602B5D
:10595000992019F08EE20E94E12AC801B7010E9445
:10596000B1D49B01AC01C601B5010E944AD31FC04E
:1059700020E030E040E251E40E94C1D67B018C017E
:105980000E9480D45B016C01CC24B7FCC094DC2C59
:10599000C601B5010E94D42BC601B5010E94B3D443
:1059A0009B01AC01C801B7010E944AD39A94992087
:1059B000F9F6DF91CF911F910F91FF90EF90DF905B
:1059C000CF90BF90AF909F900895DF92EF92FF929B
:1059D0000F931F937A018B01D22E0E94F42AC801E3
:1059E000B7014D2D0E943E2C1F910F91FF90EF901B
:1059F000DF900895EF92FF920F931F93CF93DF9361
:105A0000162F072FE42EF22E0E94F42A212F302F7A
:105A1000C901EC0110E00AC049915991699179914D
:105A20008DEF94E02F2D0E94E52C1F5F1E15A0F333
:105A30000E94F91ADF91CF911F910F91FF90EF9083
:105A40000895DF92EF92FF920F931F937A018B01DB
:105A5000D22E0E94F42AC801B7014D2D0E943E2C7F
:105A60000E94F91A1F910F91FF90EF90DF90089517
:105A70009C01F999FECF32BD21BDF89A80B50895F9
:105A80009C01F999FECF1FBA32BD21BD60BD0FB692
:105A9000F894FA9AF99A0FBE089590E020E030E069
:105AA0002836310539F0F999FECF32BD21BDF89A7B
:105AB00080B5980F2F5F3F4F88E02030380781F77F
:105AC000892F0895F999FECF12BC11BCF89A80B5C0
:105AD000813071F48BE490E068E37DE20E94581716
